{"contracts/TokenFaucet.sol":{"TokenFaucet":{"abi":[{"inputs":[],"stateMutability":"nonpayable","type":"constructor"},{"inputs":[{"internalType":"address","name":"owner","type":"address"}],"name":"OwnableInvalidOwner","type":"error"},{"inputs":[{"internalType":"address","name":"account","type":"address"}],"name":"OwnableUnauthorizedAccount","type":"error"},{"inputs":[],"name":"ReentrancyGuardReentrantCall","type":"error"},{"anonymous":false,"inputs":[{"indexed":true,"internalType":"address","name":"previousOwner","type":"address"},{"indexed":true,"internalType":"address","name":"newOwner","type":"address"}],"name":"OwnershipTransferred","type":"event"},{"anonymous":false,"inputs":[{"indexed":true,"internalType":"address","name":"tokenAddress","type":"address"},{"indexed":false,"internalType":"string","name":"name","type":"string"},{"indexed":false,"internalType":"string","name":"symbol","type":"string"}],"name":"TokenAdded","type":"event"},{"anonymous":false,"inputs":[{"indexed":true,"internalType":"address","name":"user","type":"address"},{"indexed":true,"internalType":"address","name":"token","type":"address"},{"indexed":false,"internalType":"uint256","name":"amount","type":"uint256"}],"name":"TokenClaimed","type":"event"},{"anonymous":false,"inputs":[{"indexed":true,"internalType":"address","name":"tokenAddress","type":"address"},{"indexed":false,"internalType":"bool","name":"active","type":"bool"},{"indexed":false,"internalType":"uint256","name":"faucetAmount","type":"uint256"}],"name":"TokenUpdated","type":"event"},{"inputs":[{"internalType":"address","name":"tokenAddress","type":"address"},{"internalType":"uint256","name":"faucetAmount","type":"uint256"},{"internalType":"uint256","name":"cooldown","type":"uint256"}],"name":"addToken","outputs":[],"stateMutability":"nonpayable","type":"function"},{"inputs":[{"internalType":"address","name":"tokenAddress","type":"address"}],"name":"claimToken","outputs":[],"stateMutability":"nonpayable","type":"function"},{"inputs":[{"internalType":"string","name":"name","type":"string"},{"internalType":"string","name":"symbol","type":"string"},{"internalType":"uint8","name":"decimals","type":"uint8"},{"internalType":"uint256","name":"initialSupply","type":"uint256"},{"internalType":"uint256","name":"faucetAmount","type":"uint256"},{"internalType":"uint256","name":"cooldown","type":"uint256"}],"name":"deployAndAddToken","outputs":[{"internalType":"address","name":"","type":"address"}],"stateMutability":"nonpayable","type":"function"},{"inputs":[],"name":"getAllTokens","outputs":[{"components":[{"internalType":"address","name":"tokenAddress","type":"address"},{"internalType":"string","name":"name","type":"string"},{"internalType":"string","name":"symbol","type":"string"},{"internalType":"uint8","name":"decimals","type":"uint8"},{"internalType":"uint256","name":"faucetAmount","type":"uint256"},{"internalType":"uint256","name":"cooldown","type":"uint256"},{"internalType":"bool","name":"active","type":"bool"}],"internalType":"struct TokenFaucet.TokenInfo[]","name":"","type":"tuple[]"}],"stateMutability":"view","type":"function"},{"inputs":[{"internalType":"address","name":"user","type":"address"},{"internalType":"address","name":"tokenAddress","type":"address"}],"name":"getClaimStatus","outputs":[{"internalType":"bool","name":"canClaim","type":"bool"},{"internalType":"uint256","name":"nextClaimTime","type":"uint256"},{"internalType":"uint256","name":"totalClaimed","type":"uint256"}],"stateMutability":"view","type":"function"},{"inputs":[],"name":"getTokenCount","outputs":[{"internalType":"uint256","name":"","type":"uint256"}],"stateMutability":"view","type":"function"},{"inputs":[],"name":"owner","outputs":[{"internalType":"address","name":"","type":"address"}],"stateMutability":"view","type":"function"},{"inputs":[{"internalType":"address","name":"tokenAddress","type":"address"}],"name":"removeToken","outputs":[],"stateMutability":"nonpayable","type":"function"},{"inputs":[],"name":"renounceOwnership","outputs":[],"stateMutability":"nonpayable","type":"function"},{"inputs":[{"internalType":"address","name":"","type":"address"}],"name":"tokenIndexes","outputs":[{"internalType":"uint256","name":"","type":"uint256"}],"stateMutability":"view","type":"function"},{"inputs":[{"internalType":"uint256","name":"","type":"uint256"}],"name":"tokenList","outputs":[{"internalType":"address","name":"tokenAddress","type":"address"},{"internalType":"string","name":"name","type":"string"},{"internalType":"string","name":"symbol","type":"string"},{"internalType":"uint8","name":"decimals","type":"uint8"},{"internalType":"uint256","name":"faucetAmount","type":"uint256"},{"internalType":"uint256","name":"cooldown","type":"uint256"},{"internalType":"bool","name":"active","type":"bool"}],"stateMutability":"view","type":"function"},{"inputs":[{"internalType":"address","name":"newOwner","type":"address"}],"name":"transferOwnership","outputs":[],"stateMutability":"nonpayable","type":"function"},{"inputs":[{"internalType":"address","name":"tokenAddress","type":"address"},{"internalType":"bool","name":"active","type":"bool"},{"internalType":"uint256","name":"faucetAmount","type":"uint256"},{"internalType":"uint256","name":"cooldown","type":"uint256"}],"name":"updateToken","outputs":[],"stateMutability":"nonpayable","type":"function"},{"inputs":[{"internalType":"address","name":"","type":"address"},{"internalType":"address","name":"","type":"address"}],"name":"userClaims","outputs":[{"internalType":"uint256","name":"lastClaimTime","type":"uint256"},{"internalType":"uint256","name":"totalClaimed","type":"uint256"}],"stateMutability":"view","type":"function"}],"evm":{"bytecode":{"linkReferences":{},"object":"608060405234801561001057600080fd5b50338061003757604051631e4fbdf760e01b81526000600482015260240160405180910390fd5b6100408161004a565b506001805561009a565b600080546001600160a01b038381166001600160a01b0319831681178455604051919092169283917f8be0079c531659141344cd1fd0a4f28419497f9722a3daafe3b4186f6b6457e09190a35050565b612bf1806100a96000396000f3fe60806040523480156200001157600080fd5b5060043610620000fd5760003560e01c806375befa8811620000975780639ead7222116200006e5780639ead72221462000256578063dee1f2af1462000282578063e0de5f141462000299578063f2fde38b14620002b057600080fd5b806375befa88146200020b57806378a89567146200023b5780638da5cb5b146200024457600080fd5b806332f289cf11620000d857806332f289cf1462000186578063408ad08b146200019f5780635fa7b58414620001ea578063715018a6146200020157600080fd5b806304bc3b1c14620001025780630e5f678814620001385780632a5c792a146200016d575b600080fd5b62000125620001133660046200141d565b60036020526000908152604090205481565b6040519081526020015b60405180910390f35b6200014f6200014936600462001442565b620002c7565b6040805193151584526020840192909252908201526060016200012f565b62000177620003c8565b6040516200012f9190620014ce565b6200019d620001973660046200141d565b620005a9565b005b620001d4620001b036600462001442565b60046020908152600092835260408084209091529082529020805460019091015482565b604080519283526020830191909152016200012f565b6200019d620001fb3660046200141d565b6200082b565b6200019d62000971565b620002226200021c3660046200167e565b62000989565b6040516001600160a01b0390911681526020016200012f565b60025462000125565b6000546001600160a01b031662000222565b6200026d6200026736600462001719565b62000c60565b6040516200012f979695949392919062001733565b6200019d6200029336600462001799565b62000de0565b6200019d620002aa366004620017cf565b620011bb565b6200019d620002c13660046200141d565b62001307565b6001600160a01b0381166000908152600360205260408120546002548291829181101580620003205750600281815481106200030757620003076200181c565b600091825260209091206006600790920201015460ff16155b156200033857600080600093509350935050620003c1565b6000600282815481106200035057620003506200181c565b600091825260208083206001600160a01b038b81168552600483526040808620918c16865292529083206007929092020160058101548254919450919291620003999162001848565b9050428111158080620003ad5782620003b0565b60005b846001015497509750975050505050505b9250925092565b60606002805480602002602001604051908101604052809291908181526020016000905b82821015620005a05760008481526020908190206040805160e081019091526007850290910180546001600160a01b031682526001810180549293919291840191620004389062001864565b80601f0160208091040260200160405190810160405280929190818152602001828054620004669062001864565b8015620004b75780601f106200048b57610100808354040283529160200191620004b7565b820191906000526020600020905b8154815290600101906020018083116200049957829003601f168201915b50505050508152602001600282018054620004d29062001864565b80601f0160208091040260200160405190810160405280929190818152602001828054620005009062001864565b8015620005515780601f10620005255761010080835404028352916020019162000551565b820191906000526020600020905b8154815290600101906020018083116200053357829003601f168201915b5050509183525050600382015460ff90811660208084019190915260048401546040840152600584015460608401526006909301541615156080909101529082526001929092019101620003ec565b50505050905090565b620005b362001348565b6001600160a01b03811660009081526003602052604090205460025481108015620006155750816001600160a01b031660028281548110620005f957620005f96200181c565b60009182526020909120600790910201546001600160a01b0316145b6200063d5760405162461bcd60e51b81526004016200063490620018a0565b60405180910390fd5b6000600282815481106200065557620006556200181c565b60009182526020909120600790910201600681015490915060ff16620006b45760405162461bcd60e51b8152602060048201526013602482015272546f6b656e206973206e6f742061637469766560681b604482015260640162000634565b3360009081526004602090815260408083206001600160a01b0387168452909152902060058201548154620006ea919062001848565b4210156200073b5760405162461bcd60e51b815260206004820152601a60248201527f436f6f6c646f776e20706572696f64206e6f7420706173736564000000000000604482015260640162000634565b42815560048201546001820180546000906200075990849062001848565b90915550506004828101546040516340c10f1960e01b81523392810192909252602482015284906001600160a01b038216906340c10f1990604401600060405180830381600087803b158015620007af57600080fd5b505af1158015620007c4573d6000803e3d6000fd5b50505050846001600160a01b0316336001600160a01b03167f4831bdd9dcf3048a28319ce81d3cab7a15366bcf449bc7803a539107440809cc85600401546040516200081291815260200190565b60405180910390a3505050506200082860018055565b50565b6200083562001373565b6001600160a01b03811660009081526003602052604090205460025481108015620008975750816001600160a01b0316600282815481106200087b576200087b6200181c565b60009182526020909120600790910201546001600160a01b0316145b620008b65760405162461bcd60e51b81526004016200063490620018a0565b600060028281548110620008ce57620008ce6200181c565b906000526020600020906007020160060160006101000a81548160ff021916908315150217905550816001600160a01b03167fcac50bd348eed3636ac2f6d57db9f054b1305b47fe8d18c9b961ef650c2e03c66000600284815481106200093957620009396200181c565b906000526020600020906007020160040154604051620009659291909115158252602082015260400190565b60405180910390a25050565b6200097b62001373565b620009876000620013a2565b565b60006200099562001373565b600087878787604051620009a990620013f2565b620009b89493929190620018c9565b604051809103906000f080158015620009d5573d6000803e3d6000fd5b509050806001600160a01b03811662000a025760405162461bcd60e51b8152600401620006349062001909565b6000851162000a255760405162461bcd60e51b8152600401620006349062001938565b60005b60025481101562000ac857816001600160a01b03166002828154811062000a535762000a536200181c565b60009182526020909120600790910201546001600160a01b03160362000ab35760405162461bcd60e51b8152602060048201526014602482015273546f6b656e20616c72656164792065786973747360601b604482015260640162000634565b8062000abf816200197c565b91505062000a28565b506040805160e0810182526001600160a01b038381168252602082018c81529282018b905260ff8a1660608301526080820188905260a08201879052600160c0830181905260028054918201815560005282517f405787fa12a823e0f2b7631cc41b3ba8828b3321ca811111fa75cd3aa3bb5ace600790920291820180546001600160a01b031916919093161782559251919290917f405787fa12a823e0f2b7631cc41b3ba8828b3321ca811111fa75cd3aa3bb5acf9091019062000b8e9082620019eb565b506040820151600282019062000ba59082620019eb565b50606082015160038201805460ff90921660ff199283161790556080830151600483015560a0830151600583015560c090920151600690910180549115159190921617905560025462000bfb9060019062001ab8565b6001600160a01b038216600081815260036020526040908190209290925590517f2fb34ce114a136590b874d8cf80e7652adda576578bacfa4f8023f720f5693949062000c4c908c908c9062001ace565b60405180910390a298975050505050505050565b6002818154811062000c7157600080fd5b6000918252602090912060079091020180546001820180546001600160a01b0390921693509062000ca29062001864565b80601f016020809104026020016040519081016040528092919081815260200182805462000cd09062001864565b801562000d215780601f1062000cf55761010080835404028352916020019162000d21565b820191906000526020600020905b81548152906001019060200180831162000d0357829003601f168201915b50505050509080600201805462000d389062001864565b80601f016020809104026020016040519081016040528092919081815260200182805462000d669062001864565b801562000db75780601f1062000d8b5761010080835404028352916020019162000db7565b820191906000526020600020905b81548152906001019060200180831162000d9957829003601f168201915b505050600384015460048501546005860154600690960154949560ff9283169591945092501687565b62000dea62001373565b6001600160a01b03831662000e135760405162461bcd60e51b8152600401620006349062001909565b6000821162000e365760405162461bcd60e51b8152600401620006349062001938565b60005b60025481101562000ed957836001600160a01b03166002828154811062000e645762000e646200181c565b60009182526020909120600790910201546001600160a01b03160362000ec45760405162461bcd60e51b8152602060048201526014602482015273546f6b656e20616c72656164792065786973747360601b604482015260640162000634565b8062000ed0816200197c565b91505062000e39565b50600083905060008490506000816001600160a01b03166306fdde036040518163ffffffff1660e01b8152600401600060405180830381865afa15801562000f25573d6000803e3d6000fd5b505050506040513d6000823e601f3d908101601f1916820160405262000f4f919081019062001b00565b90506000826001600160a01b03166395d89b416040518163ffffffff1660e01b8152600401600060405180830381865afa15801562000f92573d6000803e3d6000fd5b505050506040513d6000823e601f3d908101601f1916820160405262000fbc919081019062001b00565b90506000836001600160a01b031663313ce5676040518163ffffffff1660e01b8152600401602060405180830381865afa15801562000fff573d6000803e3d6000fd5b505050506040513d601f19601f8201168201806040525081019062001025919062001b77565b6040805160e0810182526001600160a01b038b811682526020820187815292820186905260ff84166060830152608082018b905260a082018a9052600160c0830181905260028054918201815560005282517f405787fa12a823e0f2b7631cc41b3ba8828b3321ca811111fa75cd3aa3bb5ace600790920291820180546001600160a01b031916919093161782559251939450909290917f405787fa12a823e0f2b7631cc41b3ba8828b3321ca811111fa75cd3aa3bb5acf0190620010eb9082620019eb565b5060408201516002820190620011029082620019eb565b50606082015160038201805460ff90921660ff199283161790556080830151600483015560a0830151600583015560c0909201516006909101805491151591909216179055600254620011589060019062001ab8565b6001600160a01b038916600081815260036020526040908190209290925590517f2fb34ce114a136590b874d8cf80e7652adda576578bacfa4f8023f720f56939490620011a9908690869062001ace565b60405180910390a25050505050505050565b620011c562001373565b6001600160a01b038416620011ee5760405162461bcd60e51b8152600401620006349062001909565b6001600160a01b03841660009081526003602052604090205460025481108015620012505750846001600160a01b0316600282815481106200123457620012346200181c565b60009182526020909120600790910201546001600160a01b0316145b6200126f5760405162461bcd60e51b81526004016200063490620018a0565b6000600282815481106200128757620012876200181c565b600091825260209182902060079091020160068101805460ff19168815159081179091556004820187905560058201869055604080519182529281018790529092506001600160a01b038816917fcac50bd348eed3636ac2f6d57db9f054b1305b47fe8d18c9b961ef650c2e03c6910160405180910390a2505050505050565b6200131162001373565b6001600160a01b0381166200133d57604051631e4fbdf760e01b81526000600482015260240162000634565b6200082881620013a2565b6002600154036200136c57604051633ee5aeb560e01b815260040160405180910390fd5b6002600155565b6000546001600160a01b03163314620009875760405163118cdaa760e01b815233600482015260240162000634565b600080546001600160a01b038381166001600160a01b0319831681178455604051919092169283917f8be0079c531659141344cd1fd0a4f28419497f9722a3daafe3b4186f6b6457e09190a35050565b6110248062001b9883390190565b80356001600160a01b03811681146200141857600080fd5b919050565b6000602082840312156200143057600080fd5b6200143b8262001400565b9392505050565b600080604083850312156200145657600080fd5b620014618362001400565b9150620014716020840162001400565b90509250929050565b60005b83811015620014975781810151838201526020016200147d565b50506000910152565b60008151808452620014ba8160208601602086016200147a565b601f01601f19169290920160200192915050565b60006020808301818452808551808352604092508286019150828160051b87010184880160005b838110156200158f57888303603f19018552815180516001600160a01b031684528781015160e0898601819052906200153182870182620014a0565b91505087820151858203898701526200154b8282620014a0565b60608481015160ff16908801526080808501519088015260a0808501519088015260c0938401511515939096019290925250509386019390860190600101620014f5565b509098975050505050505050565b634e487b7160e01b600052604160045260246000fd5b604051601f8201601f1916810167ffffffffffffffff81118282101715620015df57620015df6200159d565b604052919050565b600067ffffffffffffffff8211156200160457620016046200159d565b50601f01601f191660200190565b600082601f8301126200162457600080fd5b81356200163b6200163582620015e7565b620015b3565b8181528460208386010111156200165157600080fd5b816020850160208301376000918101602001919091529392505050565b60ff811681146200082857600080fd5b60008060008060008060c087890312156200169857600080fd5b863567ffffffffffffffff80821115620016b157600080fd5b620016bf8a838b0162001612565b97506020890135915080821115620016d657600080fd5b50620016e589828a0162001612565b9550506040870135620016f8816200166e565b959894975094956060810135955060808101359460a0909101359350915050565b6000602082840312156200172c57600080fd5b5035919050565b6001600160a01b038816815260e0602082018190526000906200175990830189620014a0565b82810360408401526200176d8189620014a0565b91505060ff861660608301528460808301528360a083015282151560c083015298975050505050505050565b600080600060608486031215620017af57600080fd5b620017ba8462001400565b95602085013595506040909401359392505050565b60008060008060808587031215620017e657600080fd5b620017f18562001400565b9350602085013580151581146200180757600080fd5b93969395505050506040820135916060013590565b634e487b7160e01b600052603260045260246000fd5b634e487b7160e01b600052601160045260246000fd5b808201808211156200185e576200185e62001832565b92915050565b600181811c908216806200187957607f821691505b6020821081036200189a57634e487b7160e01b600052602260045260246000fd5b50919050565b6020808252600f908201526e151bdad95b881b9bdd08199bdd5b99608a1b604082015260600190565b608081526000620018de6080830187620014a0565b8281036020840152620018f28187620014a0565b60ff95909516604084015250506060015292915050565b602080825260159082015274496e76616c696420746f6b656e206164647265737360581b604082015260600190565b60208082526024908201527f46617563657420616d6f756e74206d75737420626520677265617465722074686040820152630616e20360e41b606082015260800190565b60006001820162001991576200199162001832565b5060010190565b601f821115620019e657600081815260208120601f850160051c81016020861015620019c15750805b601f850160051c820191505b81811015620019e257828155600101620019cd565b5050505b505050565b815167ffffffffffffffff81111562001a085762001a086200159d565b62001a208162001a19845462001864565b8462001998565b602080601f83116001811462001a58576000841562001a3f5750858301515b600019600386901b1c1916600185901b178555620019e2565b600085815260208120601f198616915b8281101562001a895788860151825594840194600190910190840162001a68565b508582101562001aa85787850151600019600388901b60f8161c191681555b5050505050600190811b01905550565b818103818111156200185e576200185e62001832565b60408152600062001ae36040830185620014a0565b828103602084015262001af78185620014a0565b95945050505050565b60006020828403121562001b1357600080fd5b815167ffffffffffffffff81111562001b2b57600080fd5b8201601f8101841362001b3d57600080fd5b805162001b4e6200163582620015e7565b81815285602083850101111562001b6457600080fd5b62001af78260208301602086016200147a565b60006020828403121562001b8a57600080fd5b81516200143b816200166e56fe60806040523480156200001157600080fd5b506040516200102438038062001024833981016040819052620000349162000375565b33848460036200004583826200048f565b5060046200005482826200048f565b5050506001600160a01b0381166200008757604051631e4fbdf760e01b8152600060048201526024015b60405180910390fd5b6200009281620000ed565b506005805460ff60a01b1916600160a01b60ff851602179055620000e333620000c4600554600160a01b900460ff1690565b620000d190600a62000670565b620000dd908462000688565b6200013f565b50505050620006b8565b600580546001600160a01b038381166001600160a01b0319831681179093556040519116919082907f8be0079c531659141344cd1fd0a4f28419497f9722a3daafe3b4186f6b6457e090600090a35050565b6001600160a01b0382166200016b5760405163ec442f0560e01b8152600060048201526024016200007e565b62000179600083836200017d565b5050565b6001600160a01b038316620001ac578060026000828254620001a09190620006a2565b90915550620002209050565b6001600160a01b03831660009081526020819052604090205481811015620002015760405163391434e360e21b81526001600160a01b038516600482015260248101829052604481018390526064016200007e565b6001600160a01b03841660009081526020819052604090209082900390555b6001600160a01b0382166200023e576002805482900390556200025d565b6001600160a01b03821660009081526020819052604090208054820190555b816001600160a01b0316836001600160a01b03167fddf252ad1be2c89b69c2b068fc378daa952ba7f163c4a11628f55a4df523b3ef83604051620002a391815260200190565b60405180910390a3505050565b634e487b7160e01b600052604160045260246000fd5b600082601f830112620002d857600080fd5b81516001600160401b0380821115620002f557620002f5620002b0565b604051601f8301601f19908116603f01168101908282118183101715620003205762000320620002b0565b816040528381526020925086838588010111156200033d57600080fd5b600091505b8382101562000361578582018301518183018401529082019062000342565b600093810190920192909252949350505050565b600080600080608085870312156200038c57600080fd5b84516001600160401b0380821115620003a457600080fd5b620003b288838901620002c6565b95506020870151915080821115620003c957600080fd5b50620003d887828801620002c6565b935050604085015160ff81168114620003f057600080fd5b6060959095015193969295505050565b600181811c908216806200041557607f821691505b6020821081036200043657634e487b7160e01b600052602260045260246000fd5b50919050565b601f8211156200048a57600081815260208120601f850160051c81016020861015620004655750805b601f850160051c820191505b81811015620004865782815560010162000471565b5050505b505050565b81516001600160401b03811115620004ab57620004ab620002b0565b620004c381620004bc845462000400565b846200043c565b602080601f831160018114620004fb5760008415620004e25750858301515b600019600386901b1c1916600185901b17855562000486565b600085815260208120601f198616915b828110156200052c578886015182559484019460019091019084016200050b565b50858210156200054b5787850151600019600388901b60f8161c191681555b5050505050600190811b01905550565b634e487b7160e01b600052601160045260246000fd5b600181815b80851115620005b25781600019048211156200059657620005966200055b565b80851615620005a457918102915b93841c939080029062000576565b509250929050565b600082620005cb575060016200066a565b81620005da575060006200066a565b8160018114620005f35760028114620005fe576200061e565b60019150506200066a565b60ff8411156200061257620006126200055b565b50506001821b6200066a565b5060208310610133831016604e8410600b841016171562000643575081810a6200066a565b6200064f838362000571565b80600019048211156200066657620006666200055b565b0290505b92915050565b60006200068160ff841683620005ba565b9392505050565b80820281158282048414176200066a576200066a6200055b565b808201808211156200066a576200066a6200055b565b61095c80620006c86000396000f3fe608060405234801561001057600080fd5b50600436106100ea5760003560e01c806370a082311161008c57806395d89b411161006657806395d89b41146101e8578063a9059cbb146101f0578063dd62ed3e14610203578063f2fde38b1461023c57600080fd5b806370a082311461019c578063715018a6146101c55780638da5cb5b146101cd57600080fd5b806323b872dd116100c857806323b872dd14610142578063313ce5671461015557806340c10f191461017457806342966c681461018957600080fd5b806306fdde03146100ef578063095ea7b31461010d57806318160ddd14610130575b600080fd5b6100f761024f565b604051610104919061078d565b60405180910390f35b61012061011b3660046107f7565b6102e1565b6040519015158152602001610104565b6002545b604051908152602001610104565b610120610150366004610821565b6102fb565b600554600160a01b900460ff1660405160ff9091168152602001610104565b6101876101823660046107f7565b61031f565b005b61018761019736600461085d565b610335565b6101346101aa366004610876565b6001600160a01b031660009081526020819052604090205490565b610187610342565b6005546040516001600160a01b039091168152602001610104565b6100f7610356565b6101206101fe3660046107f7565b610365565b610134610211366004610898565b6001600160a01b03918216600090815260016020908152604080832093909416825291909152205490565b61018761024a366004610876565b610373565b60606003805461025e906108cb565b80601f016020809104026020016040519081016040528092919081815260200182805461028a906108cb565b80156102d75780601f106102ac576101008083540402835291602001916102d7565b820191906000526020600020905b8154815290600101906020018083116102ba57829003601f168201915b5050505050905090565b6000336102ef8185856103b3565b60019150505b92915050565b6000336103098582856103c5565b610314858585610444565b506001949350505050565b6103276104a3565b61033182826104d0565b5050565b61033f3382610506565b50565b61034a6104a3565b610354600061053c565b565b60606004805461025e906108cb565b6000336102ef818585610444565b61037b6104a3565b6001600160a01b0381166103aa57604051631e4fbdf760e01b8152600060048201526024015b60405180910390fd5b61033f8161053c565b6103c0838383600161058e565b505050565b6001600160a01b0383811660009081526001602090815260408083209386168352929052205460001981101561043e578181101561042f57604051637dc7a0d960e11b81526001600160a01b038416600482015260248101829052604481018390526064016103a1565b61043e8484848403600061058e565b50505050565b6001600160a01b03831661046e57604051634b637e8f60e11b8152600060048201526024016103a1565b6001600160a01b0382166104985760405163ec442f0560e01b8152600060048201526024016103a1565b6103c0838383610663565b6005546001600160a01b031633146103545760405163118cdaa760e01b81523360048201526024016103a1565b6001600160a01b0382166104fa5760405163ec442f0560e01b8152600060048201526024016103a1565b61033160008383610663565b6001600160a01b03821661053057604051634b637e8f60e11b8152600060048201526024016103a1565b61033182600083610663565b600580546001600160a01b038381166001600160a01b0319831681179093556040519116919082907f8be0079c531659141344cd1fd0a4f28419497f9722a3daafe3b4186f6b6457e090600090a35050565b6001600160a01b0384166105b85760405163e602df0560e01b8152600060048201526024016103a1565b6001600160a01b0383166105e257604051634a1406b160e11b8152600060048201526024016103a1565b6001600160a01b038085166000908152600160209081526040808320938716835292905220829055801561043e57826001600160a01b0316846001600160a01b03167f8c5be1e5ebec7d5bd14f71427d1e84f3dd0314c0f7b2291e5b200ac8c7c3b9258460405161065591815260200190565b60405180910390a350505050565b6001600160a01b03831661068e5780600260008282546106839190610905565b909155506107009050565b6001600160a01b038316600090815260208190526040902054818110156106e15760405163391434e360e21b81526001600160a01b038516600482015260248101829052604481018390526064016103a1565b6001600160a01b03841660009081526020819052604090209082900390555b6001600160a01b03821661071c5760028054829003905561073b565b6001600160a01b03821660009081526020819052604090208054820190555b816001600160a01b0316836001600160a01b03167fddf252ad1be2c89b69c2b068fc378daa952ba7f163c4a11628f55a4df523b3ef8360405161078091815260200190565b60405180910390a3505050565b600060208083528351808285015260005b818110156107ba5785810183015185820160400152820161079e565b506000604082860101526040601f19601f8301168501019250505092915050565b80356001600160a01b03811681146107f257600080fd5b919050565b6000806040838503121561080a57600080fd5b610813836107db565b946020939093013593505050565b60008060006060848603121561083657600080fd5b61083f846107db565b925061084d602085016107db565b9150604084013590509250925092565b60006020828403121561086f57600080fd5b5035919050565b60006020828403121561088857600080fd5b610891826107db565b9392505050565b600080604083850312156108ab57600080fd5b6108b4836107db565b91506108c2602084016107db565b90509250929050565b600181811c908216806108df57607f821691505b6020821081036108ff57634e487b7160e01b600052602260045260246000fd5b50919050565b808201808211156102f557634e487b7160e01b600052601160045260246000fdfea2646970667358221220651848834a5fa5ba56b8af296b2155372b938b406ef27534a7252a80f86f3a4764736f6c63430008140033a26469706673582212201c316ac399d8ef090b81d2bc99b04ebca46ac99d0b02e94f0649a7e5a39d3ee864736f6c63430008140033","opcodes":"PUSH1 0x80 PUSH1 0x40 MSTORE CALLVALUE DUP1 ISZERO PUSH2 0x10 JUMPI PUSH1 0x0 DUP1 REVERT JUMPDEST POP CALLER DUP1 PUSH2 0x37 JUMPI PUSH1 0x40 MLOAD PUSH4 0x1E4FBDF7 PUSH1 0xE0 SHL DUP2 MSTORE PUSH1 0x0 PUSH1 0x4 DUP3 ADD MSTORE PUSH1 0x24 ADD PUSH1 0x40 MLOAD DUP1 SWAP2 SUB SWAP1 REVERT JUMPDEST PUSH2 0x40 DUP2 PUSH2 0x4A JUMP JUMPDEST POP PUSH1 0x1 DUP1 SSTORE PUSH2 0x9A JUMP JUMPDEST PUSH1 0x0 DUP1 SLOAD PUSH1 0x1 PUSH1 0x1 PUSH1 0xA0 SHL SUB DUP4 DUP2 AND PUSH1 0x1 PUSH1 0x1 PUSH1 0xA0 SHL SUB NOT DUP4 AND DUP2 OR DUP5 SSTORE PUSH1 0x40 MLOAD SWAP2 SWAP1 SWAP3 AND SWAP3 DUP4 SWAP2 PUSH32 0x8BE0079C531659141344CD1FD0A4F28419497F9722A3DAAFE3B4186F6B6457E0 SWAP2 SWAP1 LOG3 POP POP JUMP JUMPDEST PUSH2 0x2BF1 DUP1 PUSH2 0xA9 PUSH1 0x0 CODECOPY PUSH1 0x0 RETURN INVALID PUSH1 0x80 PUSH1 0x40 MSTORE CALLVALUE DUP1 ISZERO PUSH3 0x11 JUMPI PUSH1 0x0 DUP1 REVERT JUMPDEST POP PUSH1 0x4 CALLDATASIZE LT PUSH3 0xFD JUMPI PUSH1 0x0 CALLDATALOAD PUSH1 0xE0 SHR DUP1 PUSH4 0x75BEFA88 GT PUSH3 0x97 JUMPI DUP1 PUSH4 0x9EAD7222 GT PUSH3 0x6E JUMPI DUP1 PUSH4 0x9EAD7222 EQ PUSH3 0x256 JUMPI DUP1 PUSH4 0xDEE1F2AF EQ PUSH3 0x282 JUMPI DUP1 PUSH4 0xE0DE5F14 EQ PUSH3 0x299 JUMPI DUP1 PUSH4 0xF2FDE38B EQ PUSH3 0x2B0 JUMPI PUSH1 0x0 DUP1 REVERT JUMPDEST DUP1 PUSH4 0x75BEFA88 EQ PUSH3 0x20B JUMPI DUP1 PUSH4 0x78A89567 EQ PUSH3 0x23B JUMPI DUP1 PUSH4 0x8DA5CB5B EQ PUSH3 0x244 JUMPI PUSH1 0x0 DUP1 REVERT JUMPDEST DUP1 PUSH4 0x32F289CF GT PUSH3 0xD8 JUMPI DUP1 PUSH4 0x32F289CF EQ PUSH3 0x186 JUMPI DUP1 PUSH4 0x408AD08B EQ PUSH3 0x19F JUMPI DUP1 PUSH4 0x5FA7B584 EQ PUSH3 0x1EA JUMPI DUP1 PUSH4 0x715018A6 EQ PUSH3 0x201 JUMPI PUSH1 0x0 DUP1 REVERT JUMPDEST DUP1 PUSH4 0x4BC3B1C EQ PUSH3 0x102 JUMPI DUP1 PUSH4 0xE5F6788 EQ PUSH3 0x138 JUMPI DUP1 PUSH4 0x2A5C792A EQ PUSH3 0x16D JUMPI JUMPDEST PUSH1 0x0 DUP1 REVERT JUMPDEST PUSH3 0x125 PUSH3 0x113 CALLDATASIZE PUSH1 0x4 PUSH3 0x141D JUMP JUMPDEST PUSH1 0x3 PUSH1 0x20 MSTORE PUSH1 0x0 SWAP1 DUP2 MSTORE PUSH1 0x40 SWAP1 KECCAK256 SLOAD DUP2 JUMP JUMPDEST PUSH1 0x40 MLOAD SWAP1 DUP2 MSTORE PUSH1 0x20 ADD JUMPDEST PUSH1 0x40 MLOAD DUP1 SWAP2 SUB SWAP1 RETURN JUMPDEST PUSH3 0x14F PUSH3 0x149 CALLDATASIZE PUSH1 0x4 PUSH3 0x1442 JUMP JUMPDEST PUSH3 0x2C7 JUMP JUMPDEST PUSH1 0x40 DUP1 MLOAD SWAP4 ISZERO ISZERO DUP5 MSTORE PUSH1 0x20 DUP5 ADD SWAP3 SWAP1 SWAP3 MSTORE SWAP1 DUP3 ADD MSTORE PUSH1 0x60 ADD PUSH3 0x12F JUMP JUMPDEST PUSH3 0x177 PUSH3 0x3C8 JUMP JUMPDEST PUSH1 0x40 MLOAD PUSH3 0x12F SWAP2 SWAP1 PUSH3 0x14CE JUMP JUMPDEST PUSH3 0x19D PUSH3 0x197 CALLDATASIZE PUSH1 0x4 PUSH3 0x141D JUMP JUMPDEST PUSH3 0x5A9 JUMP JUMPDEST STOP JUMPDEST PUSH3 0x1D4 PUSH3 0x1B0 CALLDATASIZE PUSH1 0x4 PUSH3 0x1442 JUMP JUMPDEST PUSH1 0x4 PUSH1 0x20 SWAP1 DUP2 MSTORE PUSH1 0x0 SWAP3 DUP4 MSTORE PUSH1 0x40 DUP1 DUP5 KECCAK256 SWAP1 SWAP2 MSTORE SWAP1 DUP3 MSTORE SWAP1 KECCAK256 DUP1 SLOAD PUSH1 0x1 SWAP1 SWAP2 ADD SLOAD DUP3 JUMP JUMPDEST PUSH1 0x40 DUP1 MLOAD SWAP3 DUP4 MSTORE PUSH1 0x20 DUP4 ADD SWAP2 SWAP1 SWAP2 MSTORE ADD PUSH3 0x12F JUMP JUMPDEST PUSH3 0x19D PUSH3 0x1FB CALLDATASIZE PUSH1 0x4 PUSH3 0x141D JUMP JUMPDEST PUSH3 0x82B JUMP JUMPDEST PUSH3 0x19D PUSH3 0x971 JUMP JUMPDEST PUSH3 0x222 PUSH3 0x21C CALLDATASIZE PUSH1 0x4 PUSH3 0x167E JUMP JUMPDEST PUSH3 0x989 JUMP JUMPDEST PUSH1 0x40 MLOAD PUSH1 0x1 PUSH1 0x1 PUSH1 0xA0 SHL SUB SWAP1 SWAP2 AND DUP2 MSTORE PUSH1 0x20 ADD PUSH3 0x12F JUMP JUMPDEST PUSH1 0x2 SLOAD PUSH3 0x125 JUMP JUMPDEST PUSH1 0x0 SLOAD PUSH1 0x1 PUSH1 0x1 PUSH1 0xA0 SHL SUB AND PUSH3 0x222 JUMP JUMPDEST PUSH3 0x26D PUSH3 0x267 CALLDATASIZE PUSH1 0x4 PUSH3 0x1719 JUMP JUMPDEST PUSH3 0xC60 JUMP JUMPDEST PUSH1 0x40 MLOAD PUSH3 0x12F SWAP8 SWAP7 SWAP6 SWAP5 SWAP4 SWAP3 SWAP2 SWAP1 PUSH3 0x1733 JUMP JUMPDEST PUSH3 0x19D PUSH3 0x293 CALLDATASIZE PUSH1 0x4 PUSH3 0x1799 JUMP JUMPDEST PUSH3 0xDE0 JUMP JUMPDEST PUSH3 0x19D PUSH3 0x2AA CALLDATASIZE PUSH1 0x4 PUSH3 0x17CF JUMP JUMPDEST PUSH3 0x11BB JUMP JUMPDEST PUSH3 0x19D PUSH3 0x2C1 CALLDATASIZE PUSH1 0x4 PUSH3 0x141D JUMP JUMPDEST PUSH3 0x1307 JUMP JUMPDEST PUSH1 0x1 PUSH1 0x1 PUSH1 0xA0 SHL SUB DUP2 AND PUSH1 0x0 SWAP1 DUP2 MSTORE PUSH1 0x3 PUSH1 0x20 MSTORE PUSH1 0x40 DUP2 KECCAK256 SLOAD PUSH1 0x2 SLOAD DUP3 SWAP2 DUP3 SWAP2 DUP2 LT ISZERO DUP1 PUSH3 0x320 JUMPI POP PUSH1 0x2 DUP2 DUP2 SLOAD DUP2 LT PUSH3 0x307 JUMPI PUSH3 0x307 PUSH3 0x181C JUMP JUMPDEST PUSH1 0x0 SWAP2 DUP3 MSTORE PUSH1 0x20 SWAP1 SWAP2 KECCAK256 PUSH1 0x6 PUSH1 0x7 SWAP1 SWAP3 MUL ADD ADD SLOAD PUSH1 0xFF AND ISZERO JUMPDEST ISZERO PUSH3 0x338 JUMPI PUSH1 0x0 DUP1 PUSH1 0x0 SWAP4 POP SWAP4 POP SWAP4 POP POP PUSH3 0x3C1 JUMP JUMPDEST PUSH1 0x0 PUSH1 0x2 DUP3 DUP2 SLOAD DUP2 LT PUSH3 0x350 JUMPI PUSH3 0x350 PUSH3 0x181C JUMP JUMPDEST PUSH1 0x0 SWAP2 DUP3 MSTORE PUSH1 0x20 DUP1 DUP4 KECCAK256 PUSH1 0x1 PUSH1 0x1 PUSH1 0xA0 SHL SUB DUP12 DUP2 AND DUP6 MSTORE PUSH1 0x4 DUP4 MSTORE PUSH1 0x40 DUP1 DUP7 KECCAK256 SWAP2 DUP13 AND DUP7 MSTORE SWAP3 MSTORE SWAP1 DUP4 KECCAK256 PUSH1 0x7 SWAP3 SWAP1 SWAP3 MUL ADD PUSH1 0x5 DUP2 ADD SLOAD DUP3 SLOAD SWAP2 SWAP5 POP SWAP2 SWAP3 SWAP2 PUSH3 0x399 SWAP2 PUSH3 0x1848 JUMP JUMPDEST SWAP1 POP TIMESTAMP DUP2 GT ISZERO DUP1 DUP1 PUSH3 0x3AD JUMPI DUP3 PUSH3 0x3B0 JUMP JUMPDEST PUSH1 0x0 JUMPDEST DUP5 PUSH1 0x1 ADD SLOAD SWAP8 POP SWAP8 POP SWAP8 POP POP POP POP POP POP JUMPDEST SWAP3 POP SWAP3 POP SWAP3 JUMP JUMPDEST PUSH1 0x60 PUSH1 0x2 DUP1 SLOAD DUP1 PUSH1 0x20 MUL PUSH1 0x20 ADD PUSH1 0x40 MLOAD SWAP1 DUP2 ADD PUSH1 0x40 MSTORE DUP1 SWAP3 SWAP2 SWAP1 DUP2 DUP2 MSTORE PUSH1 0x20 ADD PUSH1 0x0 SWAP1 JUMPDEST DUP3 DUP3 LT ISZERO PUSH3 0x5A0 JUMPI PUSH1 0x0 DUP5 DUP2 MSTORE PUSH1 0x20 SWAP1 DUP2 SWAP1 KECCAK256 PUSH1 0x40 DUP1 MLOAD PUSH1 0xE0 DUP2 ADD SWAP1 SWAP2 MSTORE PUSH1 0x7 DUP6 MUL SWAP1 SWAP2 ADD DUP1 SLOAD PUSH1 0x1 PUSH1 0x1 PUSH1 0xA0 SHL SUB AND DUP3 MSTORE PUSH1 0x1 DUP2 ADD DUP1 SLOAD SWAP3 SWAP4 SWAP2 SWAP3 SWAP2 DUP5 ADD SWAP2 PUSH3 0x438 SWAP1 PUSH3 0x1864 JUMP JUMPDEST DUP1 PUSH1 0x1F ADD PUSH1 0x20 DUP1 SWAP2 DIV MUL PUSH1 0x20 ADD PUSH1 0x40 MLOAD SWAP1 DUP2 ADD PUSH1 0x40 MSTORE DUP1 SWAP3 SWAP2 SWAP1 DUP2 DUP2 MSTORE PUSH1 0x20 ADD DUP3 DUP1 SLOAD PUSH3 0x466 SWAP1 PUSH3 0x1864 JUMP JUMPDEST DUP1 ISZERO PUSH3 0x4B7 JUMPI DUP1 PUSH1 0x1F LT PUSH3 0x48B JUMPI PUSH2 0x100 DUP1 DUP4 SLOAD DIV MUL DUP4 MSTORE SWAP2 PUSH1 0x20 ADD SWAP2 PUSH3 0x4B7 JUMP JUMPDEST DUP3 ADD SWAP2 SWAP1 PUSH1 0x0 MSTORE PUSH1 0x20 PUSH1 0x0 KECCAK256 SWAP1 JUMPDEST DUP2 SLOAD DUP2 MSTORE SWAP1 PUSH1 0x1 ADD SWAP1 PUSH1 0x20 ADD DUP1 DUP4 GT PUSH3 0x499 JUMPI DUP3 SWAP1 SUB PUSH1 0x1F AND DUP3 ADD SWAP2 JUMPDEST POP POP POP POP POP DUP2 MSTORE PUSH1 0x20 ADD PUSH1 0x2 DUP3 ADD DUP1 SLOAD PUSH3 0x4D2 SWAP1 PUSH3 0x1864 JUMP JUMPDEST DUP1 PUSH1 0x1F ADD PUSH1 0x20 DUP1 SWAP2 DIV MUL PUSH1 0x20 ADD PUSH1 0x40 MLOAD SWAP1 DUP2 ADD PUSH1 0x40 MSTORE DUP1 SWAP3 SWAP2 SWAP1 DUP2 DUP2 MSTORE PUSH1 0x20 ADD DUP3 DUP1 SLOAD PUSH3 0x500 SWAP1 PUSH3 0x1864 JUMP JUMPDEST DUP1 ISZERO PUSH3 0x551 JUMPI DUP1 PUSH1 0x1F LT PUSH3 0x525 JUMPI PUSH2 0x100 DUP1 DUP4 SLOAD DIV MUL DUP4 MSTORE SWAP2 PUSH1 0x20 ADD SWAP2 PUSH3 0x551 JUMP JUMPDEST DUP3 ADD SWAP2 SWAP1 PUSH1 0x0 MSTORE PUSH1 0x20 PUSH1 0x0 KECCAK256 SWAP1 JUMPDEST DUP2 SLOAD DUP2 MSTORE SWAP1 PUSH1 0x1 ADD SWAP1 PUSH1 0x20 ADD DUP1 DUP4 GT PUSH3 0x533 JUMPI DUP3 SWAP1 SUB PUSH1 0x1F AND DUP3 ADD SWAP2 JUMPDEST POP POP POP SWAP2 DUP4 MSTORE POP POP PUSH1 0x3 DUP3 ADD SLOAD PUSH1 0xFF SWAP1 DUP2 AND PUSH1 0x20 DUP1 DUP5 ADD SWAP2 SWAP1 SWAP2 MSTORE PUSH1 0x4 DUP5 ADD SLOAD PUSH1 0x40 DUP5 ADD MSTORE PUSH1 0x5 DUP5 ADD SLOAD PUSH1 0x60 DUP5 ADD MSTORE PUSH1 0x6 SWAP1 SWAP4 ADD SLOAD AND ISZERO ISZERO PUSH1 0x80 SWAP1 SWAP2 ADD MSTORE SWAP1 DUP3 MSTORE PUSH1 0x1 SWAP3 SWAP1 SWAP3 ADD SWAP2 ADD PUSH3 0x3EC JUMP JUMPDEST POP POP POP POP SWAP1 POP SWAP1 JUMP JUMPDEST PUSH3 0x5B3 PUSH3 0x1348 JUMP JUMPDEST PUSH1 0x1 PUSH1 0x1 PUSH1 0xA0 SHL SUB DUP2 AND PUSH1 0x0 SWAP1 DUP2 MSTORE PUSH1 0x3 PUSH1 0x20 MSTORE PUSH1 0x40 SWAP1 KECCAK256 SLOAD PUSH1 0x2 SLOAD DUP2 LT DUP1 ISZERO PUSH3 0x615 JUMPI POP DUP2 PUSH1 0x1 PUSH1 0x1 PUSH1 0xA0 SHL SUB AND PUSH1 0x2 DUP3 DUP2 SLOAD DUP2 LT PUSH3 0x5F9 JUMPI PUSH3 0x5F9 PUSH3 0x181C JUMP JUMPDEST PUSH1 0x0 SWAP2 DUP3 MSTORE PUSH1 0x20 SWAP1 SWAP2 KECCAK256 PUSH1 0x7 SWAP1 SWAP2 MUL ADD SLOAD PUSH1 0x1 PUSH1 0x1 PUSH1 0xA0 SHL SUB AND EQ JUMPDEST PUSH3 0x63D JUMPI PUSH1 0x40 MLOAD PUSH3 0x461BCD PUSH1 0xE5 SHL DUP2 MSTORE PUSH1 0x4 ADD PUSH3 0x634 SWAP1 PUSH3 0x18A0 JUMP JUMPDEST PUSH1 0x40 MLOAD DUP1 SWAP2 SUB SWAP1 REVERT JUMPDEST PUSH1 0x0 PUSH1 0x2 DUP3 DUP2 SLOAD DUP2 LT PUSH3 0x655 JUMPI PUSH3 0x655 PUSH3 0x181C JUMP JUMPDEST PUSH1 0x0 SWAP2 DUP3 MSTORE PUSH1 0x20 SWAP1 SWAP2 KECCAK256 PUSH1 0x7 SWAP1 SWAP2 MUL ADD PUSH1 0x6 DUP2 ADD SLOAD SWAP1 SWAP2 POP PUSH1 0xFF AND PUSH3 0x6B4 JUMPI PUSH1 0x40 MLOAD PUSH3 0x461BCD PUSH1 0xE5 SHL DUP2 MSTORE PUSH1 0x20 PUSH1 0x4 DUP3 ADD MSTORE PUSH1 0x13 PUSH1 0x24 DUP3 ADD MSTORE PUSH19 0x546F6B656E206973206E6F7420616374697665 PUSH1 0x68 SHL PUSH1 0x44 DUP3 ADD MSTORE PUSH1 0x64 ADD PUSH3 0x634 JUMP JUMPDEST CALLER PUSH1 0x0 SWAP1 DUP2 MSTORE PUSH1 0x4 PUSH1 0x20 SWAP1 DUP2 MSTORE PUSH1 0x40 DUP1 DUP4 KECCAK256 PUSH1 0x1 PUSH1 0x1 PUSH1 0xA0 SHL SUB DUP8 AND DUP5 MSTORE SWAP1 SWAP2 MSTORE SWAP1 KECCAK256 PUSH1 0x5 DUP3 ADD SLOAD DUP2 SLOAD PUSH3 0x6EA SWAP2 SWAP1 PUSH3 0x1848 JUMP JUMPDEST TIMESTAMP LT ISZERO PUSH3 0x73B JUMPI PUSH1 0x40 MLOAD PUSH3 0x461BCD PUSH1 0xE5 SHL DUP2 MSTORE PUSH1 0x20 PUSH1 0x4 DUP3 ADD MSTORE PUSH1 0x1A PUSH1 0x24 DUP3 ADD MSTORE PUSH32 0x436F6F6C646F776E20706572696F64206E6F7420706173736564000000000000 PUSH1 0x44 DUP3 ADD MSTORE PUSH1 0x64 ADD PUSH3 0x634 JUMP JUMPDEST TIMESTAMP DUP2 SSTORE PUSH1 0x4 DUP3 ADD SLOAD PUSH1 0x1 DUP3 ADD DUP1 SLOAD PUSH1 0x0 SWAP1 PUSH3 0x759 SWAP1 DUP5 SWAP1 PUSH3 0x1848 JUMP JUMPDEST SWAP1 SWAP2 SSTORE POP POP PUSH1 0x4 DUP3 DUP2 ADD SLOAD PUSH1 0x40 MLOAD PUSH4 0x40C10F19 PUSH1 0xE0 SHL DUP2 MSTORE CALLER SWAP3 DUP2 ADD SWAP3 SWAP1 SWAP3 MSTORE PUSH1 0x24 DUP3 ADD MSTORE DUP5 SWAP1 PUSH1 0x1 PUSH1 0x1 PUSH1 0xA0 SHL SUB DUP3 AND SWAP1 PUSH4 0x40C10F19 SWAP1 PUSH1 0x44 ADD PUSH1 0x0 PUSH1 0x40 MLOAD DUP1 DUP4 SUB DUP2 PUSH1 0x0 DUP8 DUP1 EXTCODESIZE ISZERO DUP1 ISZERO PUSH3 0x7AF JUMPI PUSH1 0x0 DUP1 REVERT JUMPDEST POP GAS CALL ISZERO DUP1 ISZERO PUSH3 0x7C4 JUMPI RETURNDATASIZE PUSH1 0x0 DUP1 RETURNDATACOPY RETURNDATASIZE PUSH1 0x0 REVERT JUMPDEST POP POP POP POP DUP5 PUSH1 0x1 PUSH1 0x1 PUSH1 0xA0 SHL SUB AND CALLER PUSH1 0x1 PUSH1 0x1 PUSH1 0xA0 SHL SUB AND PUSH32 0x4831BDD9DCF3048A28319CE81D3CAB7A15366BCF449BC7803A539107440809CC DUP6 PUSH1 0x4 ADD SLOAD PUSH1 0x40 MLOAD PUSH3 0x812 SWAP2 DUP2 MSTORE PUSH1 0x20 ADD SWAP1 JUMP JUMPDEST PUSH1 0x40 MLOAD DUP1 SWAP2 SUB SWAP1 LOG3 POP POP POP POP PUSH3 0x828 PUSH1 0x1 DUP1 SSTORE JUMP JUMPDEST POP JUMP JUMPDEST PUSH3 0x835 PUSH3 0x1373 JUMP JUMPDEST PUSH1 0x1 PUSH1 0x1 PUSH1 0xA0 SHL SUB DUP2 AND PUSH1 0x0 SWAP1 DUP2 MSTORE PUSH1 0x3 PUSH1 0x20 MSTORE PUSH1 0x40 SWAP1 KECCAK256 SLOAD PUSH1 0x2 SLOAD DUP2 LT DUP1 ISZERO PUSH3 0x897 JUMPI POP DUP2 PUSH1 0x1 PUSH1 0x1 PUSH1 0xA0 SHL SUB AND PUSH1 0x2 DUP3 DUP2 SLOAD DUP2 LT PUSH3 0x87B JUMPI PUSH3 0x87B PUSH3 0x181C JUMP JUMPDEST PUSH1 0x0 SWAP2 DUP3 MSTORE PUSH1 0x20 SWAP1 SWAP2 KECCAK256 PUSH1 0x7 SWAP1 SWAP2 MUL ADD SLOAD PUSH1 0x1 PUSH1 0x1 PUSH1 0xA0 SHL SUB AND EQ JUMPDEST PUSH3 0x8B6 JUMPI PUSH1 0x40 MLOAD PUSH3 0x461BCD PUSH1 0xE5 SHL DUP2 MSTORE PUSH1 0x4 ADD PUSH3 0x634 SWAP1 PUSH3 0x18A0 JUMP JUMPDEST PUSH1 0x0 PUSH1 0x2 DUP3 DUP2 SLOAD DUP2 LT PUSH3 0x8CE JUMPI PUSH3 0x8CE PUSH3 0x181C JUMP JUMPDEST SWAP1 PUSH1 0x0 MSTORE PUSH1 0x20 PUSH1 0x0 KECCAK256 SWAP1 PUSH1 0x7 MUL ADD PUSH1 0x6 ADD PUSH1 0x0 PUSH2 0x100 EXP DUP2 SLOAD DUP2 PUSH1 0xFF MUL NOT AND SWAP1 DUP4 ISZERO ISZERO MUL OR SWAP1 SSTORE POP DUP2 PUSH1 0x1 PUSH1 0x1 PUSH1 0xA0 SHL SUB AND PUSH32 0xCAC50BD348EED3636AC2F6D57DB9F054B1305B47FE8D18C9B961EF650C2E03C6 PUSH1 0x0 PUSH1 0x2 DUP5 DUP2 SLOAD DUP2 LT PUSH3 0x939 JUMPI PUSH3 0x939 PUSH3 0x181C JUMP JUMPDEST SWAP1 PUSH1 0x0 MSTORE PUSH1 0x20 PUSH1 0x0 KECCAK256 SWAP1 PUSH1 0x7 MUL ADD PUSH1 0x4 ADD SLOAD PUSH1 0x40 MLOAD PUSH3 0x965 SWAP3 SWAP2 SWAP1 SWAP2 ISZERO ISZERO DUP3 MSTORE PUSH1 0x20 DUP3 ADD MSTORE PUSH1 0x40 ADD SWAP1 JUMP JUMPDEST PUSH1 0x40 MLOAD DUP1 SWAP2 SUB SWAP1 LOG2 POP POP JUMP JUMPDEST PUSH3 0x97B PUSH3 0x1373 JUMP JUMPDEST PUSH3 0x987 PUSH1 0x0 PUSH3 0x13A2 JUMP JUMPDEST JUMP JUMPDEST PUSH1 0x0 PUSH3 0x995 PUSH3 0x1373 JUMP JUMPDEST PUSH1 0x0 DUP8 DUP8 DUP8 DUP8 PUSH1 0x40 MLOAD PUSH3 0x9A9 SWAP1 PUSH3 0x13F2 JUMP JUMPDEST PUSH3 0x9B8 SWAP5 SWAP4 SWAP3 SWAP2 SWAP1 PUSH3 0x18C9 JUMP JUMPDEST PUSH1 0x40 MLOAD DUP1 SWAP2 SUB SWAP1 PUSH1 0x0 CREATE DUP1 ISZERO DUP1 ISZERO PUSH3 0x9D5 JUMPI RETURNDATASIZE PUSH1 0x0 DUP1 RETURNDATACOPY RETURNDATASIZE PUSH1 0x0 REVERT JUMPDEST POP SWAP1 POP DUP1 PUSH1 0x1 PUSH1 0x1 PUSH1 0xA0 SHL SUB DUP2 AND PUSH3 0xA02 JUMPI PUSH1 0x40 MLOAD PUSH3 0x461BCD PUSH1 0xE5 SHL DUP2 MSTORE PUSH1 0x4 ADD PUSH3 0x634 SWAP1 PUSH3 0x1909 JUMP JUMPDEST PUSH1 0x0 DUP6 GT PUSH3 0xA25 JUMPI PUSH1 0x40 MLOAD PUSH3 0x461BCD PUSH1 0xE5 SHL DUP2 MSTORE PUSH1 0x4 ADD PUSH3 0x634 SWAP1 PUSH3 0x1938 JUMP JUMPDEST PUSH1 0x0 JUMPDEST PUSH1 0x2 SLOAD DUP2 LT ISZERO PUSH3 0xAC8 JUMPI DUP2 PUSH1 0x1 PUSH1 0x1 PUSH1 0xA0 SHL SUB AND PUSH1 0x2 DUP3 DUP2 SLOAD DUP2 LT PUSH3 0xA53 JUMPI PUSH3 0xA53 PUSH3 0x181C JUMP JUMPDEST PUSH1 0x0 SWAP2 DUP3 MSTORE PUSH1 0x20 SWAP1 SWAP2 KECCAK256 PUSH1 0x7 SWAP1 SWAP2 MUL ADD SLOAD PUSH1 0x1 PUSH1 0x1 PUSH1 0xA0 SHL SUB AND SUB PUSH3 0xAB3 JUMPI PUSH1 0x40 MLOAD PUSH3 0x461BCD PUSH1 0xE5 SHL DUP2 MSTORE PUSH1 0x20 PUSH1 0x4 DUP3 ADD MSTORE PUSH1 0x14 PUSH1 0x24 DUP3 ADD MSTORE PUSH20 0x546F6B656E20616C726561647920657869737473 PUSH1 0x60 SHL PUSH1 0x44 DUP3 ADD MSTORE PUSH1 0x64 ADD PUSH3 0x634 JUMP JUMPDEST DUP1 PUSH3 0xABF DUP2 PUSH3 0x197C JUMP JUMPDEST SWAP2 POP POP PUSH3 0xA28 JUMP JUMPDEST POP PUSH1 0x40 DUP1 MLOAD PUSH1 0xE0 DUP2 ADD DUP3 MSTORE PUSH1 0x1 PUSH1 0x1 PUSH1 0xA0 SHL SUB DUP4 DUP2 AND DUP3 MSTORE PUSH1 0x20 DUP3 ADD DUP13 DUP2 MSTORE SWAP3 DUP3 ADD DUP12 SWAP1 MSTORE PUSH1 0xFF DUP11 AND PUSH1 0x60 DUP4 ADD MSTORE PUSH1 0x80 DUP3 ADD DUP9 SWAP1 MSTORE PUSH1 0xA0 DUP3 ADD DUP8 SWAP1 MSTORE PUSH1 0x1 PUSH1 0xC0 DUP4 ADD DUP2 SWAP1 MSTORE PUSH1 0x2 DUP1 SLOAD SWAP2 DUP3 ADD DUP2 SSTORE PUSH1 0x0 MSTORE DUP3 MLOAD PUSH32 0x405787FA12A823E0F2B7631CC41B3BA8828B3321CA811111FA75CD3AA3BB5ACE PUSH1 0x7 SWAP1 SWAP3 MUL SWAP2 DUP3 ADD DUP1 SLOAD PUSH1 0x1 PUSH1 0x1 PUSH1 0xA0 SHL SUB NOT AND SWAP2 SWAP1 SWAP4 AND OR DUP3 SSTORE SWAP3 MLOAD SWAP2 SWAP3 SWAP1 SWAP2 PUSH32 0x405787FA12A823E0F2B7631CC41B3BA8828B3321CA811111FA75CD3AA3BB5ACF SWAP1 SWAP2 ADD SWAP1 PUSH3 0xB8E SWAP1 DUP3 PUSH3 0x19EB JUMP JUMPDEST POP PUSH1 0x40 DUP3 ADD MLOAD PUSH1 0x2 DUP3 ADD SWAP1 PUSH3 0xBA5 SWAP1 DUP3 PUSH3 0x19EB JUMP JUMPDEST POP PUSH1 0x60 DUP3 ADD MLOAD PUSH1 0x3 DUP3 ADD DUP1 SLOAD PUSH1 0xFF SWAP1 SWAP3 AND PUSH1 0xFF NOT SWAP3 DUP4 AND OR SWAP1 SSTORE PUSH1 0x80 DUP4 ADD MLOAD PUSH1 0x4 DUP4 ADD SSTORE PUSH1 0xA0 DUP4 ADD MLOAD PUSH1 0x5 DUP4 ADD SSTORE PUSH1 0xC0 SWAP1 SWAP3 ADD MLOAD PUSH1 0x6 SWAP1 SWAP2 ADD DUP1 SLOAD SWAP2 ISZERO ISZERO SWAP2 SWAP1 SWAP3 AND OR SWAP1 SSTORE PUSH1 0x2 SLOAD PUSH3 0xBFB SWAP1 PUSH1 0x1 SWAP1 PUSH3 0x1AB8 JUMP JUMPDEST PUSH1 0x1 PUSH1 0x1 PUSH1 0xA0 SHL SUB DUP3 AND PUSH1 0x0 DUP2 DUP2 MSTORE PUSH1 0x3 PUSH1 0x20 MSTORE PUSH1 0x40 SWAP1 DUP2 SWAP1 KECCAK256 SWAP3 SWAP1 SWAP3 SSTORE SWAP1 MLOAD PUSH32 0x2FB34CE114A136590B874D8CF80E7652ADDA576578BACFA4F8023F720F569394 SWAP1 PUSH3 0xC4C SWAP1 DUP13 SWAP1 DUP13 SWAP1 PUSH3 0x1ACE JUMP JUMPDEST PUSH1 0x40 MLOAD DUP1 SWAP2 SUB SWAP1 LOG2 SWAP9 SWAP8 POP POP POP POP POP POP POP POP JUMP JUMPDEST PUSH1 0x2 DUP2 DUP2 SLOAD DUP2 LT PUSH3 0xC71 JUMPI PUSH1 0x0 DUP1 REVERT JUMPDEST PUSH1 0x0 SWAP2 DUP3 MSTORE PUSH1 0x20 SWAP1 SWAP2 KECCAK256 PUSH1 0x7 SWAP1 SWAP2 MUL ADD DUP1 SLOAD PUSH1 0x1 DUP3 ADD DUP1 SLOAD PUSH1 0x1 PUSH1 0x1 PUSH1 0xA0 SHL SUB SWAP1 SWAP3 AND SWAP4 POP SWAP1 PUSH3 0xCA2 SWAP1 PUSH3 0x1864 JUMP JUMPDEST DUP1 PUSH1 0x1F ADD PUSH1 0x20 DUP1 SWAP2 DIV MUL PUSH1 0x20 ADD PUSH1 0x40 MLOAD SWAP1 DUP2 ADD PUSH1 0x40 MSTORE DUP1 SWAP3 SWAP2 SWAP1 DUP2 DUP2 MSTORE PUSH1 0x20 ADD DUP3 DUP1 SLOAD PUSH3 0xCD0 SWAP1 PUSH3 0x1864 JUMP JUMPDEST DUP1 ISZERO PUSH3 0xD21 JUMPI DUP1 PUSH1 0x1F LT PUSH3 0xCF5 JUMPI PUSH2 0x100 DUP1 DUP4 SLOAD DIV MUL DUP4 MSTORE SWAP2 PUSH1 0x20 ADD SWAP2 PUSH3 0xD21 JUMP JUMPDEST DUP3 ADD SWAP2 SWAP1 PUSH1 0x0 MSTORE PUSH1 0x20 PUSH1 0x0 KECCAK256 SWAP1 JUMPDEST DUP2 SLOAD DUP2 MSTORE SWAP1 PUSH1 0x1 ADD SWAP1 PUSH1 0x20 ADD DUP1 DUP4 GT PUSH3 0xD03 JUMPI DUP3 SWAP1 SUB PUSH1 0x1F AND DUP3 ADD SWAP2 JUMPDEST POP POP POP POP POP SWAP1 DUP1 PUSH1 0x2 ADD DUP1 SLOAD PUSH3 0xD38 SWAP1 PUSH3 0x1864 JUMP JUMPDEST DUP1 PUSH1 0x1F ADD PUSH1 0x20 DUP1 SWAP2 DIV MUL PUSH1 0x20 ADD PUSH1 0x40 MLOAD SWAP1 DUP2 ADD PUSH1 0x40 MSTORE DUP1 SWAP3 SWAP2 SWAP1 DUP2 DUP2 MSTORE PUSH1 0x20 ADD DUP3 DUP1 SLOAD PUSH3 0xD66 SWAP1 PUSH3 0x1864 JUMP JUMPDEST DUP1 ISZERO PUSH3 0xDB7 JUMPI DUP1 PUSH1 0x1F LT PUSH3 0xD8B JUMPI PUSH2 0x100 DUP1 DUP4 SLOAD DIV MUL DUP4 MSTORE SWAP2 PUSH1 0x20 ADD SWAP2 PUSH3 0xDB7 JUMP JUMPDEST DUP3 ADD SWAP2 SWAP1 PUSH1 0x0 MSTORE PUSH1 0x20 PUSH1 0x0 KECCAK256 SWAP1 JUMPDEST DUP2 SLOAD DUP2 MSTORE SWAP1 PUSH1 0x1 ADD SWAP1 PUSH1 0x20 ADD DUP1 DUP4 GT PUSH3 0xD99 JUMPI DUP3 SWAP1 SUB PUSH1 0x1F AND DUP3 ADD SWAP2 JUMPDEST POP POP POP PUSH1 0x3 DUP5 ADD SLOAD PUSH1 0x4 DUP6 ADD SLOAD PUSH1 0x5 DUP7 ADD SLOAD PUSH1 0x6 SWAP1 SWAP7 ADD SLOAD SWAP5 SWAP6 PUSH1 0xFF SWAP3 DUP4 AND SWAP6 SWAP2 SWAP5 POP SWAP3 POP AND DUP8 JUMP JUMPDEST PUSH3 0xDEA PUSH3 0x1373 JUMP JUMPDEST PUSH1 0x1 PUSH1 0x1 PUSH1 0xA0 SHL SUB DUP4 AND PUSH3 0xE13 JUMPI PUSH1 0x40 MLOAD PUSH3 0x461BCD PUSH1 0xE5 SHL DUP2 MSTORE PUSH1 0x4 ADD PUSH3 0x634 SWAP1 PUSH3 0x1909 JUMP JUMPDEST PUSH1 0x0 DUP3 GT PUSH3 0xE36 JUMPI PUSH1 0x40 MLOAD PUSH3 0x461BCD PUSH1 0xE5 SHL DUP2 MSTORE PUSH1 0x4 ADD PUSH3 0x634 SWAP1 PUSH3 0x1938 JUMP JUMPDEST PUSH1 0x0 JUMPDEST PUSH1 0x2 SLOAD DUP2 LT ISZERO PUSH3 0xED9 JUMPI DUP4 PUSH1 0x1 PUSH1 0x1 PUSH1 0xA0 SHL SUB AND PUSH1 0x2 DUP3 DUP2 SLOAD DUP2 LT PUSH3 0xE64 JUMPI PUSH3 0xE64 PUSH3 0x181C JUMP JUMPDEST PUSH1 0x0 SWAP2 DUP3 MSTORE PUSH1 0x20 SWAP1 SWAP2 KECCAK256 PUSH1 0x7 SWAP1 SWAP2 MUL ADD SLOAD PUSH1 0x1 PUSH1 0x1 PUSH1 0xA0 SHL SUB AND SUB PUSH3 0xEC4 JUMPI PUSH1 0x40 MLOAD PUSH3 0x461BCD PUSH1 0xE5 SHL DUP2 MSTORE PUSH1 0x20 PUSH1 0x4 DUP3 ADD MSTORE PUSH1 0x14 PUSH1 0x24 DUP3 ADD MSTORE PUSH20 0x546F6B656E20616C726561647920657869737473 PUSH1 0x60 SHL PUSH1 0x44 DUP3 ADD MSTORE PUSH1 0x64 ADD PUSH3 0x634 JUMP JUMPDEST DUP1 PUSH3 0xED0 DUP2 PUSH3 0x197C JUMP JUMPDEST SWAP2 POP POP PUSH3 0xE39 JUMP JUMPDEST POP PUSH1 0x0 DUP4 SWAP1 POP PUSH1 0x0 DUP5 SWAP1 POP PUSH1 0x0 DUP2 PUSH1 0x1 PUSH1 0x1 PUSH1 0xA0 SHL SUB AND PUSH4 0x6FDDE03 PUSH1 0x40 MLOAD DUP2 PUSH4 0xFFFFFFFF AND PUSH1 0xE0 SHL DUP2 MSTORE PUSH1 0x4 ADD PUSH1 0x0 PUSH1 0x40 MLOAD DUP1 DUP4 SUB DUP2 DUP7 GAS STATICCALL ISZERO DUP1 ISZERO PUSH3 0xF25 JUMPI RETURNDATASIZE PUSH1 0x0 DUP1 RETURNDATACOPY RETURNDATASIZE PUSH1 0x0 REVERT JUMPDEST POP POP POP POP PUSH1 0x40 MLOAD RETURNDATASIZE PUSH1 0x0 DUP3 RETURNDATACOPY PUSH1 0x1F RETURNDATASIZE SWAP1 DUP2 ADD PUSH1 0x1F NOT AND DUP3 ADD PUSH1 0x40 MSTORE PUSH3 0xF4F SWAP2 SWAP1 DUP2 ADD SWAP1 PUSH3 0x1B00 JUMP JUMPDEST SWAP1 POP PUSH1 0x0 DUP3 PUSH1 0x1 PUSH1 0x1 PUSH1 0xA0 SHL SUB AND PUSH4 0x95D89B41 PUSH1 0x40 MLOAD DUP2 PUSH4 0xFFFFFFFF AND PUSH1 0xE0 SHL DUP2 MSTORE PUSH1 0x4 ADD PUSH1 0x0 PUSH1 0x40 MLOAD DUP1 DUP4 SUB DUP2 DUP7 GAS STATICCALL ISZERO DUP1 ISZERO PUSH3 0xF92 JUMPI RETURNDATASIZE PUSH1 0x0 DUP1 RETURNDATACOPY RETURNDATASIZE PUSH1 0x0 REVERT JUMPDEST POP POP POP POP PUSH1 0x40 MLOAD RETURNDATASIZE PUSH1 0x0 DUP3 RETURNDATACOPY PUSH1 0x1F RETURNDATASIZE SWAP1 DUP2 ADD PUSH1 0x1F NOT AND DUP3 ADD PUSH1 0x40 MSTORE PUSH3 0xFBC SWAP2 SWAP1 DUP2 ADD SWAP1 PUSH3 0x1B00 JUMP JUMPDEST SWAP1 POP PUSH1 0x0 DUP4 PUSH1 0x1 PUSH1 0x1 PUSH1 0xA0 SHL SUB AND PUSH4 0x313CE567 PUSH1 0x40 MLOAD DUP2 PUSH4 0xFFFFFFFF AND PUSH1 0xE0 SHL DUP2 MSTORE PUSH1 0x4 ADD PUSH1 0x20 PUSH1 0x40 MLOAD DUP1 DUP4 SUB DUP2 DUP7 GAS STATICCALL ISZERO DUP1 ISZERO PUSH3 0xFFF JUMPI RETURNDATASIZE PUSH1 0x0 DUP1 RETURNDATACOPY RETURNDATASIZE PUSH1 0x0 REVERT JUMPDEST POP POP POP POP PUSH1 0x40 MLOAD RETURNDATASIZE PUSH1 0x1F NOT PUSH1 0x1F DUP3 ADD AND DUP3 ADD DUP1 PUSH1 0x40 MSTORE POP DUP2 ADD SWAP1 PUSH3 0x1025 SWAP2 SWAP1 PUSH3 0x1B77 JUMP JUMPDEST PUSH1 0x40 DUP1 MLOAD PUSH1 0xE0 DUP2 ADD DUP3 MSTORE PUSH1 0x1 PUSH1 0x1 PUSH1 0xA0 SHL SUB DUP12 DUP2 AND DUP3 MSTORE PUSH1 0x20 DUP3 ADD DUP8 DUP2 MSTORE SWAP3 DUP3 ADD DUP7 SWAP1 MSTORE PUSH1 0xFF DUP5 AND PUSH1 0x60 DUP4 ADD MSTORE PUSH1 0x80 DUP3 ADD DUP12 SWAP1 MSTORE PUSH1 0xA0 DUP3 ADD DUP11 SWAP1 MSTORE PUSH1 0x1 PUSH1 0xC0 DUP4 ADD DUP2 SWAP1 MSTORE PUSH1 0x2 DUP1 SLOAD SWAP2 DUP3 ADD DUP2 SSTORE PUSH1 0x0 MSTORE DUP3 MLOAD PUSH32 0x405787FA12A823E0F2B7631CC41B3BA8828B3321CA811111FA75CD3AA3BB5ACE PUSH1 0x7 SWAP1 SWAP3 MUL SWAP2 DUP3 ADD DUP1 SLOAD PUSH1 0x1 PUSH1 0x1 PUSH1 0xA0 SHL SUB NOT AND SWAP2 SWAP1 SWAP4 AND OR DUP3 SSTORE SWAP3 MLOAD SWAP4 SWAP5 POP SWAP1 SWAP3 SWAP1 SWAP2 PUSH32 0x405787FA12A823E0F2B7631CC41B3BA8828B3321CA811111FA75CD3AA3BB5ACF ADD SWAP1 PUSH3 0x10EB SWAP1 DUP3 PUSH3 0x19EB JUMP JUMPDEST POP PUSH1 0x40 DUP3 ADD MLOAD PUSH1 0x2 DUP3 ADD SWAP1 PUSH3 0x1102 SWAP1 DUP3 PUSH3 0x19EB JUMP JUMPDEST POP PUSH1 0x60 DUP3 ADD MLOAD PUSH1 0x3 DUP3 ADD DUP1 SLOAD PUSH1 0xFF SWAP1 SWAP3 AND PUSH1 0xFF NOT SWAP3 DUP4 AND OR SWAP1 SSTORE PUSH1 0x80 DUP4 ADD MLOAD PUSH1 0x4 DUP4 ADD SSTORE PUSH1 0xA0 DUP4 ADD MLOAD PUSH1 0x5 DUP4 ADD SSTORE PUSH1 0xC0 SWAP1 SWAP3 ADD MLOAD PUSH1 0x6 SWAP1 SWAP2 ADD DUP1 SLOAD SWAP2 ISZERO ISZERO SWAP2 SWAP1 SWAP3 AND OR SWAP1 SSTORE PUSH1 0x2 SLOAD PUSH3 0x1158 SWAP1 PUSH1 0x1 SWAP1 PUSH3 0x1AB8 JUMP JUMPDEST PUSH1 0x1 PUSH1 0x1 PUSH1 0xA0 SHL SUB DUP10 AND PUSH1 0x0 DUP2 DUP2 MSTORE PUSH1 0x3 PUSH1 0x20 MSTORE PUSH1 0x40 SWAP1 DUP2 SWAP1 KECCAK256 SWAP3 SWAP1 SWAP3 SSTORE SWAP1 MLOAD PUSH32 0x2FB34CE114A136590B874D8CF80E7652ADDA576578BACFA4F8023F720F569394 SWAP1 PUSH3 0x11A9 SWAP1 DUP7 SWAP1 DUP7 SWAP1 PUSH3 0x1ACE JUMP JUMPDEST PUSH1 0x40 MLOAD DUP1 SWAP2 SUB SWAP1 LOG2 POP POP POP POP POP POP POP POP JUMP JUMPDEST PUSH3 0x11C5 PUSH3 0x1373 JUMP JUMPDEST PUSH1 0x1 PUSH1 0x1 PUSH1 0xA0 SHL SUB DUP5 AND PUSH3 0x11EE JUMPI PUSH1 0x40 MLOAD PUSH3 0x461BCD PUSH1 0xE5 SHL DUP2 MSTORE PUSH1 0x4 ADD PUSH3 0x634 SWAP1 PUSH3 0x1909 JUMP JUMPDEST PUSH1 0x1 PUSH1 0x1 PUSH1 0xA0 SHL SUB DUP5 AND PUSH1 0x0 SWAP1 DUP2 MSTORE PUSH1 0x3 PUSH1 0x20 MSTORE PUSH1 0x40 SWAP1 KECCAK256 SLOAD PUSH1 0x2 SLOAD DUP2 LT DUP1 ISZERO PUSH3 0x1250 JUMPI POP DUP5 PUSH1 0x1 PUSH1 0x1 PUSH1 0xA0 SHL SUB AND PUSH1 0x2 DUP3 DUP2 SLOAD DUP2 LT PUSH3 0x1234 JUMPI PUSH3 0x1234 PUSH3 0x181C JUMP JUMPDEST PUSH1 0x0 SWAP2 DUP3 MSTORE PUSH1 0x20 SWAP1 SWAP2 KECCAK256 PUSH1 0x7 SWAP1 SWAP2 MUL ADD SLOAD PUSH1 0x1 PUSH1 0x1 PUSH1 0xA0 SHL SUB AND EQ JUMPDEST PUSH3 0x126F JUMPI PUSH1 0x40 MLOAD PUSH3 0x461BCD PUSH1 0xE5 SHL DUP2 MSTORE PUSH1 0x4 ADD PUSH3 0x634 SWAP1 PUSH3 0x18A0 JUMP JUMPDEST PUSH1 0x0 PUSH1 0x2 DUP3 DUP2 SLOAD DUP2 LT PUSH3 0x1287 JUMPI PUSH3 0x1287 PUSH3 0x181C JUMP JUMPDEST PUSH1 0x0 SWAP2 DUP3 MSTORE PUSH1 0x20 SWAP2 DUP3 SWAP1 KECCAK256 PUSH1 0x7 SWAP1 SWAP2 MUL ADD PUSH1 0x6 DUP2 ADD DUP1 SLOAD PUSH1 0xFF NOT AND DUP9 ISZERO ISZERO SWAP1 DUP2 OR SWAP1 SWAP2 SSTORE PUSH1 0x4 DUP3 ADD DUP8 SWAP1 SSTORE PUSH1 0x5 DUP3 ADD DUP7 SWAP1 SSTORE PUSH1 0x40 DUP1 MLOAD SWAP2 DUP3 MSTORE SWAP3 DUP2 ADD DUP8 SWAP1 MSTORE SWAP1 SWAP3 POP PUSH1 0x1 PUSH1 0x1 PUSH1 0xA0 SHL SUB DUP9 AND SWAP2 PUSH32 0xCAC50BD348EED3636AC2F6D57DB9F054B1305B47FE8D18C9B961EF650C2E03C6 SWAP2 ADD PUSH1 0x40 MLOAD DUP1 SWAP2 SUB SWAP1 LOG2 POP POP POP POP POP POP JUMP JUMPDEST PUSH3 0x1311 PUSH3 0x1373 JUMP JUMPDEST PUSH1 0x1 PUSH1 0x1 PUSH1 0xA0 SHL SUB DUP2 AND PUSH3 0x133D JUMPI PUSH1 0x40 MLOAD PUSH4 0x1E4FBDF7 PUSH1 0xE0 SHL DUP2 MSTORE PUSH1 0x0 PUSH1 0x4 DUP3 ADD MSTORE PUSH1 0x24 ADD PUSH3 0x634 JUMP JUMPDEST PUSH3 0x828 DUP2 PUSH3 0x13A2 JUMP JUMPDEST PUSH1 0x2 PUSH1 0x1 SLOAD SUB PUSH3 0x136C JUMPI PUSH1 0x40 MLOAD PUSH4 0x3EE5AEB5 PUSH1 0xE0 SHL DUP2 MSTORE PUSH1 0x4 ADD PUSH1 0x40 MLOAD DUP1 SWAP2 SUB SWAP1 REVERT JUMPDEST PUSH1 0x2 PUSH1 0x1 SSTORE JUMP JUMPDEST PUSH1 0x0 SLOAD PUSH1 0x1 PUSH1 0x1 PUSH1 0xA0 SHL SUB AND CALLER EQ PUSH3 0x987 JUMPI PUSH1 0x40 MLOAD PUSH4 0x118CDAA7 PUSH1 0xE0 SHL DUP2 MSTORE CALLER PUSH1 0x4 DUP3 ADD MSTORE PUSH1 0x24 ADD PUSH3 0x634 JUMP JUMPDEST PUSH1 0x0 DUP1 SLOAD PUSH1 0x1 PUSH1 0x1 PUSH1 0xA0 SHL SUB DUP4 DUP2 AND PUSH1 0x1 PUSH1 0x1 PUSH1 0xA0 SHL SUB NOT DUP4 AND DUP2 OR DUP5 SSTORE PUSH1 0x40 MLOAD SWAP2 SWAP1 SWAP3 AND SWAP3 DUP4 SWAP2 PUSH32 0x8BE0079C531659141344CD1FD0A4F28419497F9722A3DAAFE3B4186F6B6457E0 SWAP2 SWAP1 LOG3 POP POP JUMP JUMPDEST PUSH2 0x1024 DUP1 PUSH3 0x1B98 DUP4 CODECOPY ADD SWAP1 JUMP JUMPDEST DUP1 CALLDATALOAD PUSH1 0x1 PUSH1 0x1 PUSH1 0xA0 SHL SUB DUP2 AND DUP2 EQ PUSH3 0x1418 JUMPI PUSH1 0x0 DUP1 REVERT JUMPDEST SWAP2 SWAP1 POP JUMP JUMPDEST PUSH1 0x0 PUSH1 0x20 DUP3 DUP5 SUB SLT ISZERO PUSH3 0x1430 JUMPI PUSH1 0x0 DUP1 REVERT JUMPDEST PUSH3 0x143B DUP3 PUSH3 0x1400 JUMP JUMPDEST SWAP4 SWAP3 POP POP POP JUMP JUMPDEST PUSH1 0x0 DUP1 PUSH1 0x40 DUP4 DUP6 SUB SLT ISZERO PUSH3 0x1456 JUMPI PUSH1 0x0 DUP1 REVERT JUMPDEST PUSH3 0x1461 DUP4 PUSH3 0x1400 JUMP JUMPDEST SWAP2 POP PUSH3 0x1471 PUSH1 0x20 DUP5 ADD PUSH3 0x1400 JUMP JUMPDEST SWAP1 POP SWAP3 POP SWAP3 SWAP1 POP JUMP JUMPDEST PUSH1 0x0 JUMPDEST DUP4 DUP2 LT ISZERO PUSH3 0x1497 JUMPI DUP2 DUP2 ADD MLOAD DUP4 DUP3 ADD MSTORE PUSH1 0x20 ADD PUSH3 0x147D JUMP JUMPDEST POP POP PUSH1 0x0 SWAP2 ADD MSTORE JUMP JUMPDEST PUSH1 0x0 DUP2 MLOAD DUP1 DUP5 MSTORE PUSH3 0x14BA DUP2 PUSH1 0x20 DUP7 ADD PUSH1 0x20 DUP7 ADD PUSH3 0x147A JUMP JUMPDEST PUSH1 0x1F ADD PUSH1 0x1F NOT AND SWAP3 SWAP1 SWAP3 ADD PUSH1 0x20 ADD SWAP3 SWAP2 POP POP JUMP JUMPDEST PUSH1 0x0 PUSH1 0x20 DUP1 DUP4 ADD DUP2 DUP5 MSTORE DUP1 DUP6 MLOAD DUP1 DUP4 MSTORE PUSH1 0x40 SWAP3 POP DUP3 DUP7 ADD SWAP2 POP DUP3 DUP2 PUSH1 0x5 SHL DUP8 ADD ADD DUP5 DUP9 ADD PUSH1 0x0 JUMPDEST DUP4 DUP2 LT ISZERO PUSH3 0x158F JUMPI DUP9 DUP4 SUB PUSH1 0x3F NOT ADD DUP6 MSTORE DUP2 MLOAD DUP1 MLOAD PUSH1 0x1 PUSH1 0x1 PUSH1 0xA0 SHL SUB AND DUP5 MSTORE DUP8 DUP2 ADD MLOAD PUSH1 0xE0 DUP10 DUP7 ADD DUP2 SWAP1 MSTORE SWAP1 PUSH3 0x1531 DUP3 DUP8 ADD DUP3 PUSH3 0x14A0 JUMP JUMPDEST SWAP2 POP POP DUP8 DUP3 ADD MLOAD DUP6 DUP3 SUB DUP10 DUP8 ADD MSTORE PUSH3 0x154B DUP3 DUP3 PUSH3 0x14A0 JUMP JUMPDEST PUSH1 0x60 DUP5 DUP2 ADD MLOAD PUSH1 0xFF AND SWAP1 DUP9 ADD MSTORE PUSH1 0x80 DUP1 DUP6 ADD MLOAD SWAP1 DUP9 ADD MSTORE PUSH1 0xA0 DUP1 DUP6 ADD MLOAD SWAP1 DUP9 ADD MSTORE PUSH1 0xC0 SWAP4 DUP5 ADD MLOAD ISZERO ISZERO SWAP4 SWAP1 SWAP7 ADD SWAP3 SWAP1 SWAP3 MSTORE POP POP SWAP4 DUP7 ADD SWAP4 SWAP1 DUP7 ADD SWAP1 PUSH1 0x1 ADD PUSH3 0x14F5 JUMP JUMPDEST POP SWAP1 SWAP9 SWAP8 POP POP POP POP POP POP POP POP JUMP JUMPDEST PUSH4 0x4E487B71 PUSH1 0xE0 SHL PUSH1 0x0 MSTORE PUSH1 0x41 PUSH1 0x4 MSTORE PUSH1 0x24 PUSH1 0x0 REVERT JUMPDEST PUSH1 0x40 MLOAD PUSH1 0x1F DUP3 ADD PUSH1 0x1F NOT AND DUP2 ADD PUSH8 0xFFFFFFFFFFFFFFFF DUP2 GT DUP3 DUP3 LT OR ISZERO PUSH3 0x15DF JUMPI PUSH3 0x15DF PUSH3 0x159D JUMP JUMPDEST PUSH1 0x40 MSTORE SWAP2 SWAP1 POP JUMP JUMPDEST PUSH1 0x0 PUSH8 0xFFFFFFFFFFFFFFFF DUP3 GT ISZERO PUSH3 0x1604 JUMPI PUSH3 0x1604 PUSH3 0x159D JUMP JUMPDEST POP PUSH1 0x1F ADD PUSH1 0x1F NOT AND PUSH1 0x20 ADD SWAP1 JUMP JUMPDEST PUSH1 0x0 DUP3 PUSH1 0x1F DUP4 ADD SLT PUSH3 0x1624 JUMPI PUSH1 0x0 DUP1 REVERT JUMPDEST DUP2 CALLDATALOAD PUSH3 0x163B PUSH3 0x1635 DUP3 PUSH3 0x15E7 JUMP JUMPDEST PUSH3 0x15B3 JUMP JUMPDEST DUP2 DUP2 MSTORE DUP5 PUSH1 0x20 DUP4 DUP7 ADD ADD GT ISZERO PUSH3 0x1651 JUMPI PUSH1 0x0 DUP1 REVERT JUMPDEST DUP2 PUSH1 0x20 DUP6 ADD PUSH1 0x20 DUP4 ADD CALLDATACOPY PUSH1 0x0 SWAP2 DUP2 ADD PUSH1 0x20 ADD SWAP2 SWAP1 SWAP2 MSTORE SWAP4 SWAP3 POP POP POP JUMP JUMPDEST PUSH1 0xFF DUP2 AND DUP2 EQ PUSH3 0x828 JUMPI PUSH1 0x0 DUP1 REVERT JUMPDEST PUSH1 0x0 DUP1 PUSH1 0x0 DUP1 PUSH1 0x0 DUP1 PUSH1 0xC0 DUP8 DUP10 SUB SLT ISZERO PUSH3 0x1698 JUMPI PUSH1 0x0 DUP1 REVERT JUMPDEST DUP7 CALLDATALOAD PUSH8 0xFFFFFFFFFFFFFFFF DUP1 DUP3 GT ISZERO PUSH3 0x16B1 JUMPI PUSH1 0x0 DUP1 REVERT JUMPDEST PUSH3 0x16BF DUP11 DUP4 DUP12 ADD PUSH3 0x1612 JUMP JUMPDEST SWAP8 POP PUSH1 0x20 DUP10 ADD CALLDATALOAD SWAP2 POP DUP1 DUP3 GT ISZERO PUSH3 0x16D6 JUMPI PUSH1 0x0 DUP1 REVERT JUMPDEST POP PUSH3 0x16E5 DUP10 DUP3 DUP11 ADD PUSH3 0x1612 JUMP JUMPDEST SWAP6 POP POP PUSH1 0x40 DUP8 ADD CALLDATALOAD PUSH3 0x16F8 DUP2 PUSH3 0x166E JUMP JUMPDEST SWAP6 SWAP9 SWAP5 SWAP8 POP SWAP5 SWAP6 PUSH1 0x60 DUP2 ADD CALLDATALOAD SWAP6 POP PUSH1 0x80 DUP2 ADD CALLDATALOAD SWAP5 PUSH1 0xA0 SWAP1 SWAP2 ADD CALLDATALOAD SWAP4 POP SWAP2 POP POP JUMP JUMPDEST PUSH1 0x0 PUSH1 0x20 DUP3 DUP5 SUB SLT ISZERO PUSH3 0x172C JUMPI PUSH1 0x0 DUP1 REVERT JUMPDEST POP CALLDATALOAD SWAP2 SWAP1 POP JUMP JUMPDEST PUSH1 0x1 PUSH1 0x1 PUSH1 0xA0 SHL SUB DUP9 AND DUP2 MSTORE PUSH1 0xE0 PUSH1 0x20 DUP3 ADD DUP2 SWAP1 MSTORE PUSH1 0x0 SWAP1 PUSH3 0x1759 SWAP1 DUP4 ADD DUP10 PUSH3 0x14A0 JUMP JUMPDEST DUP3 DUP2 SUB PUSH1 0x40 DUP5 ADD MSTORE PUSH3 0x176D DUP2 DUP10 PUSH3 0x14A0 JUMP JUMPDEST SWAP2 POP POP PUSH1 0xFF DUP7 AND PUSH1 0x60 DUP4 ADD MSTORE DUP5 PUSH1 0x80 DUP4 ADD MSTORE DUP4 PUSH1 0xA0 DUP4 ADD MSTORE DUP3 ISZERO ISZERO PUSH1 0xC0 DUP4 ADD MSTORE SWAP9 SWAP8 POP POP POP POP POP POP POP POP JUMP JUMPDEST PUSH1 0x0 DUP1 PUSH1 0x0 PUSH1 0x60 DUP5 DUP7 SUB SLT ISZERO PUSH3 0x17AF JUMPI PUSH1 0x0 DUP1 REVERT JUMPDEST PUSH3 0x17BA DUP5 PUSH3 0x1400 JUMP JUMPDEST SWAP6 PUSH1 0x20 DUP6 ADD CALLDATALOAD SWAP6 POP PUSH1 0x40 SWAP1 SWAP5 ADD CALLDATALOAD SWAP4 SWAP3 POP POP POP JUMP JUMPDEST PUSH1 0x0 DUP1 PUSH1 0x0 DUP1 PUSH1 0x80 DUP6 DUP8 SUB SLT ISZERO PUSH3 0x17E6 JUMPI PUSH1 0x0 DUP1 REVERT JUMPDEST PUSH3 0x17F1 DUP6 PUSH3 0x1400 JUMP JUMPDEST SWAP4 POP PUSH1 0x20 DUP6 ADD CALLDATALOAD DUP1 ISZERO ISZERO DUP2 EQ PUSH3 0x1807 JUMPI PUSH1 0x0 DUP1 REVERT JUMPDEST SWAP4 SWAP7 SWAP4 SWAP6 POP POP POP POP PUSH1 0x40 DUP3 ADD CALLDATALOAD SWAP2 PUSH1 0x60 ADD CALLDATALOAD SWAP1 JUMP JUMPDEST PUSH4 0x4E487B71 PUSH1 0xE0 SHL PUSH1 0x0 MSTORE PUSH1 0x32 PUSH1 0x4 MSTORE PUSH1 0x24 PUSH1 0x0 REVERT JUMPDEST PUSH4 0x4E487B71 PUSH1 0xE0 SHL PUSH1 0x0 MSTORE PUSH1 0x11 PUSH1 0x4 MSTORE PUSH1 0x24 PUSH1 0x0 REVERT JUMPDEST DUP1 DUP3 ADD DUP1 DUP3 GT ISZERO PUSH3 0x185E JUMPI PUSH3 0x185E PUSH3 0x1832 JUMP JUMPDEST SWAP3 SWAP2 POP POP JUMP JUMPDEST PUSH1 0x1 DUP2 DUP2 SHR SWAP1 DUP3 AND DUP1 PUSH3 0x1879 JUMPI PUSH1 0x7F DUP3 AND SWAP2 POP JUMPDEST PUSH1 0x20 DUP3 LT DUP2 SUB PUSH3 0x189A JUMPI PUSH4 0x4E487B71 PUSH1 0xE0 SHL PUSH1 0x0 MSTORE PUSH1 0x22 PUSH1 0x4 MSTORE PUSH1 0x24 PUSH1 0x0 REVERT JUMPDEST POP SWAP2 SWAP1 POP JUMP JUMPDEST PUSH1 0x20 DUP1 DUP3 MSTORE PUSH1 0xF SWAP1 DUP3 ADD MSTORE PUSH15 0x151BDAD95B881B9BDD08199BDD5B99 PUSH1 0x8A SHL PUSH1 0x40 DUP3 ADD MSTORE PUSH1 0x60 ADD SWAP1 JUMP JUMPDEST PUSH1 0x80 DUP2 MSTORE PUSH1 0x0 PUSH3 0x18DE PUSH1 0x80 DUP4 ADD DUP8 PUSH3 0x14A0 JUMP JUMPDEST DUP3 DUP2 SUB PUSH1 0x20 DUP5 ADD MSTORE PUSH3 0x18F2 DUP2 DUP8 PUSH3 0x14A0 JUMP JUMPDEST PUSH1 0xFF SWAP6 SWAP1 SWAP6 AND PUSH1 0x40 DUP5 ADD MSTORE POP POP PUSH1 0x60 ADD MSTORE SWAP3 SWAP2 POP POP JUMP JUMPDEST PUSH1 0x20 DUP1 DUP3 MSTORE PUSH1 0x15 SWAP1 DUP3 ADD MSTORE PUSH21 0x496E76616C696420746F6B656E2061646472657373 PUSH1 0x58 SHL PUSH1 0x40 DUP3 ADD MSTORE PUSH1 0x60 ADD SWAP1 JUMP JUMPDEST PUSH1 0x20 DUP1 DUP3 MSTORE PUSH1 0x24 SWAP1 DUP3 ADD MSTORE PUSH32 0x46617563657420616D6F756E74206D7573742062652067726561746572207468 PUSH1 0x40 DUP3 ADD MSTORE PUSH4 0x616E203 PUSH1 0xE4 SHL PUSH1 0x60 DUP3 ADD MSTORE PUSH1 0x80 ADD SWAP1 JUMP JUMPDEST PUSH1 0x0 PUSH1 0x1 DUP3 ADD PUSH3 0x1991 JUMPI PUSH3 0x1991 PUSH3 0x1832 JUMP JUMPDEST POP PUSH1 0x1 ADD SWAP1 JUMP JUMPDEST PUSH1 0x1F DUP3 GT ISZERO PUSH3 0x19E6 JUMPI PUSH1 0x0 DUP2 DUP2 MSTORE PUSH1 0x20 DUP2 KECCAK256 PUSH1 0x1F DUP6 ADD PUSH1 0x5 SHR DUP2 ADD PUSH1 0x20 DUP7 LT ISZERO PUSH3 0x19C1 JUMPI POP DUP1 JUMPDEST PUSH1 0x1F DUP6 ADD PUSH1 0x5 SHR DUP3 ADD SWAP2 POP JUMPDEST DUP2 DUP2 LT ISZERO PUSH3 0x19E2 JUMPI DUP3 DUP2 SSTORE PUSH1 0x1 ADD PUSH3 0x19CD JUMP JUMPDEST POP POP POP JUMPDEST POP POP POP JUMP JUMPDEST DUP2 MLOAD PUSH8 0xFFFFFFFFFFFFFFFF DUP2 GT ISZERO PUSH3 0x1A08 JUMPI PUSH3 0x1A08 PUSH3 0x159D JUMP JUMPDEST PUSH3 0x1A20 DUP2 PUSH3 0x1A19 DUP5 SLOAD PUSH3 0x1864 JUMP JUMPDEST DUP5 PUSH3 0x1998 JUMP JUMPDEST PUSH1 0x20 DUP1 PUSH1 0x1F DUP4 GT PUSH1 0x1 DUP2 EQ PUSH3 0x1A58 JUMPI PUSH1 0x0 DUP5 ISZERO PUSH3 0x1A3F JUMPI POP DUP6 DUP4 ADD MLOAD JUMPDEST PUSH1 0x0 NOT PUSH1 0x3 DUP7 SWAP1 SHL SHR NOT AND PUSH1 0x1 DUP6 SWAP1 SHL OR DUP6 SSTORE PUSH3 0x19E2 JUMP JUMPDEST PUSH1 0x0 DUP6 DUP2 MSTORE PUSH1 0x20 DUP2 KECCAK256 PUSH1 0x1F NOT DUP7 AND SWAP2 JUMPDEST DUP3 DUP2 LT ISZERO PUSH3 0x1A89 JUMPI DUP9 DUP7 ADD MLOAD DUP3 SSTORE SWAP5 DUP5 ADD SWAP5 PUSH1 0x1 SWAP1 SWAP2 ADD SWAP1 DUP5 ADD PUSH3 0x1A68 JUMP JUMPDEST POP DUP6 DUP3 LT ISZERO PUSH3 0x1AA8 JUMPI DUP8 DUP6 ADD MLOAD PUSH1 0x0 NOT PUSH1 0x3 DUP9 SWAP1 SHL PUSH1 0xF8 AND SHR NOT AND DUP2 SSTORE JUMPDEST POP POP POP POP POP PUSH1 0x1 SWAP1 DUP2 SHL ADD SWAP1 SSTORE POP JUMP JUMPDEST DUP2 DUP2 SUB DUP2 DUP2 GT ISZERO PUSH3 0x185E JUMPI PUSH3 0x185E PUSH3 0x1832 JUMP JUMPDEST PUSH1 0x40 DUP2 MSTORE PUSH1 0x0 PUSH3 0x1AE3 PUSH1 0x40 DUP4 ADD DUP6 PUSH3 0x14A0 JUMP JUMPDEST DUP3 DUP2 SUB PUSH1 0x20 DUP5 ADD MSTORE PUSH3 0x1AF7 DUP2 DUP6 PUSH3 0x14A0 JUMP JUMPDEST SWAP6 SWAP5 POP POP POP POP POP JUMP JUMPDEST PUSH1 0x0 PUSH1 0x20 DUP3 DUP5 SUB SLT ISZERO PUSH3 0x1B13 JUMPI PUSH1 0x0 DUP1 REVERT JUMPDEST DUP2 MLOAD PUSH8 0xFFFFFFFFFFFFFFFF DUP2 GT ISZERO PUSH3 0x1B2B JUMPI PUSH1 0x0 DUP1 REVERT JUMPDEST DUP3 ADD PUSH1 0x1F DUP2 ADD DUP5 SGT PUSH3 0x1B3D JUMPI PUSH1 0x0 DUP1 REVERT JUMPDEST DUP1 MLOAD PUSH3 0x1B4E PUSH3 0x1635 DUP3 PUSH3 0x15E7 JUMP JUMPDEST DUP2 DUP2 MSTORE DUP6 PUSH1 0x20 DUP4 DUP6 ADD ADD GT ISZERO PUSH3 0x1B64 JUMPI PUSH1 0x0 DUP1 REVERT JUMPDEST PUSH3 0x1AF7 DUP3 PUSH1 0x20 DUP4 ADD PUSH1 0x20 DUP7 ADD PUSH3 0x147A JUMP JUMPDEST PUSH1 0x0 PUSH1 0x20 DUP3 DUP5 SUB SLT ISZERO PUSH3 0x1B8A JUMPI PUSH1 0x0 DUP1 REVERT JUMPDEST DUP2 MLOAD PUSH3 0x143B DUP2 PUSH3 0x166E JUMP INVALID PUSH1 0x80 PUSH1 0x40 MSTORE CALLVALUE DUP1 ISZERO PUSH3 0x11 JUMPI PUSH1 0x0 DUP1 REVERT JUMPDEST POP PUSH1 0x40 MLOAD PUSH3 0x1024 CODESIZE SUB DUP1 PUSH3 0x1024 DUP4 CODECOPY DUP2 ADD PUSH1 0x40 DUP2 SWAP1 MSTORE PUSH3 0x34 SWAP2 PUSH3 0x375 JUMP JUMPDEST CALLER DUP5 DUP5 PUSH1 0x3 PUSH3 0x45 DUP4 DUP3 PUSH3 0x48F JUMP JUMPDEST POP PUSH1 0x4 PUSH3 0x54 DUP3 DUP3 PUSH3 0x48F JUMP JUMPDEST POP POP POP PUSH1 0x1 PUSH1 0x1 PUSH1 0xA0 SHL SUB DUP2 AND PUSH3 0x87 JUMPI PUSH1 0x40 MLOAD PUSH4 0x1E4FBDF7 PUSH1 0xE0 SHL DUP2 MSTORE PUSH1 0x0 PUSH1 0x4 DUP3 ADD MSTORE PUSH1 0x24 ADD JUMPDEST PUSH1 0x40 MLOAD DUP1 SWAP2 SUB SWAP1 REVERT JUMPDEST PUSH3 0x92 DUP2 PUSH3 0xED JUMP JUMPDEST POP PUSH1 0x5 DUP1 SLOAD PUSH1 0xFF PUSH1 0xA0 SHL NOT AND PUSH1 0x1 PUSH1 0xA0 SHL PUSH1 0xFF DUP6 AND MUL OR SWAP1 SSTORE PUSH3 0xE3 CALLER PUSH3 0xC4 PUSH1 0x5 SLOAD PUSH1 0x1 PUSH1 0xA0 SHL SWAP1 DIV PUSH1 0xFF AND SWAP1 JUMP JUMPDEST PUSH3 0xD1 SWAP1 PUSH1 0xA PUSH3 0x670 JUMP JUMPDEST PUSH3 0xDD SWAP1 DUP5 PUSH3 0x688 JUMP JUMPDEST PUSH3 0x13F JUMP JUMPDEST POP POP POP POP PUSH3 0x6B8 JUMP JUMPDEST PUSH1 0x5 DUP1 SLOAD PUSH1 0x1 PUSH1 0x1 PUSH1 0xA0 SHL SUB DUP4 DUP2 AND PUSH1 0x1 PUSH1 0x1 PUSH1 0xA0 SHL SUB NOT DUP4 AND DUP2 OR SWAP1 SWAP4 SSTORE PUSH1 0x40 MLOAD SWAP2 AND SWAP2 SWAP1 DUP3 SWAP1 PUSH32 0x8BE0079C531659141344CD1FD0A4F28419497F9722A3DAAFE3B4186F6B6457E0 SWAP1 PUSH1 0x0 SWAP1 LOG3 POP POP JUMP JUMPDEST PUSH1 0x1 PUSH1 0x1 PUSH1 0xA0 SHL SUB DUP3 AND PUSH3 0x16B JUMPI PUSH1 0x40 MLOAD PUSH4 0xEC442F05 PUSH1 0xE0 SHL DUP2 MSTORE PUSH1 0x0 PUSH1 0x4 DUP3 ADD MSTORE PUSH1 0x24 ADD PUSH3 0x7E JUMP JUMPDEST PUSH3 0x179 PUSH1 0x0 DUP4 DUP4 PUSH3 0x17D JUMP JUMPDEST POP POP JUMP JUMPDEST PUSH1 0x1 PUSH1 0x1 PUSH1 0xA0 SHL SUB DUP4 AND PUSH3 0x1AC JUMPI DUP1 PUSH1 0x2 PUSH1 0x0 DUP3 DUP3 SLOAD PUSH3 0x1A0 SWAP2 SWAP1 PUSH3 0x6A2 JUMP JUMPDEST SWAP1 SWAP2 SSTORE POP PUSH3 0x220 SWAP1 POP JUMP JUMPDEST PUSH1 0x1 PUSH1 0x1 PUSH1 0xA0 SHL SUB DUP4 AND PUSH1 0x0 SWAP1 DUP2 MSTORE PUSH1 0x20 DUP2 SWAP1 MSTORE PUSH1 0x40 SWAP1 KECCAK256 SLOAD DUP2 DUP2 LT ISZERO PUSH3 0x201 JUMPI PUSH1 0x40 MLOAD PUSH4 0x391434E3 PUSH1 0xE2 SHL DUP2 MSTORE PUSH1 0x1 PUSH1 0x1 PUSH1 0xA0 SHL SUB DUP6 AND PUSH1 0x4 DUP3 ADD MSTORE PUSH1 0x24 DUP2 ADD DUP3 SWAP1 MSTORE PUSH1 0x44 DUP2 ADD DUP4 SWAP1 MSTORE PUSH1 0x64 ADD PUSH3 0x7E JUMP JUMPDEST PUSH1 0x1 PUSH1 0x1 PUSH1 0xA0 SHL SUB DUP5 AND PUSH1 0x0 SWAP1 DUP2 MSTORE PUSH1 0x20 DUP2 SWAP1 MSTORE PUSH1 0x40 SWAP1 KECCAK256 SWAP1 DUP3 SWAP1 SUB SWAP1 SSTORE JUMPDEST PUSH1 0x1 PUSH1 0x1 PUSH1 0xA0 SHL SUB DUP3 AND PUSH3 0x23E JUMPI PUSH1 0x2 DUP1 SLOAD DUP3 SWAP1 SUB SWAP1 SSTORE PUSH3 0x25D JUMP JUMPDEST PUSH1 0x1 PUSH1 0x1 PUSH1 0xA0 SHL SUB DUP3 AND PUSH1 0x0 SWAP1 DUP2 MSTORE PUSH1 0x20 DUP2 SWAP1 MSTORE PUSH1 0x40 SWAP1 KECCAK256 DUP1 SLOAD DUP3 ADD SWAP1 SSTORE JUMPDEST DUP2 PUSH1 0x1 PUSH1 0x1 PUSH1 0xA0 SHL SUB AND DUP4 PUSH1 0x1 PUSH1 0x1 PUSH1 0xA0 SHL SUB AND PUSH32 0xDDF252AD1BE2C89B69C2B068FC378DAA952BA7F163C4A11628F55A4DF523B3EF DUP4 PUSH1 0x40 MLOAD PUSH3 0x2A3 SWAP2 DUP2 MSTORE PUSH1 0x20 ADD SWAP1 JUMP JUMPDEST PUSH1 0x40 MLOAD DUP1 SWAP2 SUB SWAP1 LOG3 POP POP POP JUMP JUMPDEST PUSH4 0x4E487B71 PUSH1 0xE0 SHL PUSH1 0x0 MSTORE PUSH1 0x41 PUSH1 0x4 MSTORE PUSH1 0x24 PUSH1 0x0 REVERT JUMPDEST PUSH1 0x0 DUP3 PUSH1 0x1F DUP4 ADD SLT PUSH3 0x2D8 JUMPI PUSH1 0x0 DUP1 REVERT JUMPDEST DUP2 MLOAD PUSH1 0x1 PUSH1 0x1 PUSH1 0x40 SHL SUB DUP1 DUP3 GT ISZERO PUSH3 0x2F5 JUMPI PUSH3 0x2F5 PUSH3 0x2B0 JUMP JUMPDEST PUSH1 0x40 MLOAD PUSH1 0x1F DUP4 ADD PUSH1 0x1F NOT SWAP1 DUP2 AND PUSH1 0x3F ADD AND DUP2 ADD SWAP1 DUP3 DUP3 GT DUP2 DUP4 LT OR ISZERO PUSH3 0x320 JUMPI PUSH3 0x320 PUSH3 0x2B0 JUMP JUMPDEST DUP2 PUSH1 0x40 MSTORE DUP4 DUP2 MSTORE PUSH1 0x20 SWAP3 POP DUP7 DUP4 DUP6 DUP9 ADD ADD GT ISZERO PUSH3 0x33D JUMPI PUSH1 0x0 DUP1 REVERT JUMPDEST PUSH1 0x0 SWAP2 POP JUMPDEST DUP4 DUP3 LT ISZERO PUSH3 0x361 JUMPI DUP6 DUP3 ADD DUP4 ADD MLOAD DUP2 DUP4 ADD DUP5 ADD MSTORE SWAP1 DUP3 ADD SWAP1 PUSH3 0x342 JUMP JUMPDEST PUSH1 0x0 SWAP4 DUP2 ADD SWAP1 SWAP3 ADD SWAP3 SWAP1 SWAP3 MSTORE SWAP5 SWAP4 POP POP POP POP JUMP JUMPDEST PUSH1 0x0 DUP1 PUSH1 0x0 DUP1 PUSH1 0x80 DUP6 DUP8 SUB SLT ISZERO PUSH3 0x38C JUMPI PUSH1 0x0 DUP1 REVERT JUMPDEST DUP5 MLOAD PUSH1 0x1 PUSH1 0x1 PUSH1 0x40 SHL SUB DUP1 DUP3 GT ISZERO PUSH3 0x3A4 JUMPI PUSH1 0x0 DUP1 REVERT JUMPDEST PUSH3 0x3B2 DUP9 DUP4 DUP10 ADD PUSH3 0x2C6 JUMP JUMPDEST SWAP6 POP PUSH1 0x20 DUP8 ADD MLOAD SWAP2 POP DUP1 DUP3 GT ISZERO PUSH3 0x3C9 JUMPI PUSH1 0x0 DUP1 REVERT JUMPDEST POP PUSH3 0x3D8 DUP8 DUP3 DUP9 ADD PUSH3 0x2C6 JUMP JUMPDEST SWAP4 POP POP PUSH1 0x40 DUP6 ADD MLOAD PUSH1 0xFF DUP2 AND DUP2 EQ PUSH3 0x3F0 JUMPI PUSH1 0x0 DUP1 REVERT JUMPDEST PUSH1 0x60 SWAP6 SWAP1 SWAP6 ADD MLOAD SWAP4 SWAP7 SWAP3 SWAP6 POP POP POP JUMP JUMPDEST PUSH1 0x1 DUP2 DUP2 SHR SWAP1 DUP3 AND DUP1 PUSH3 0x415 JUMPI PUSH1 0x7F DUP3 AND SWAP2 POP JUMPDEST PUSH1 0x20 DUP3 LT DUP2 SUB PUSH3 0x436 JUMPI PUSH4 0x4E487B71 PUSH1 0xE0 SHL PUSH1 0x0 MSTORE PUSH1 0x22 PUSH1 0x4 MSTORE PUSH1 0x24 PUSH1 0x0 REVERT JUMPDEST POP SWAP2 SWAP1 POP JUMP JUMPDEST PUSH1 0x1F DUP3 GT ISZERO PUSH3 0x48A JUMPI PUSH1 0x0 DUP2 DUP2 MSTORE PUSH1 0x20 DUP2 KECCAK256 PUSH1 0x1F DUP6 ADD PUSH1 0x5 SHR DUP2 ADD PUSH1 0x20 DUP7 LT ISZERO PUSH3 0x465 JUMPI POP DUP1 JUMPDEST PUSH1 0x1F DUP6 ADD PUSH1 0x5 SHR DUP3 ADD SWAP2 POP JUMPDEST DUP2 DUP2 LT ISZERO PUSH3 0x486 JUMPI DUP3 DUP2 SSTORE PUSH1 0x1 ADD PUSH3 0x471 JUMP JUMPDEST POP POP POP JUMPDEST POP POP POP JUMP JUMPDEST DUP2 MLOAD PUSH1 0x1 PUSH1 0x1 PUSH1 0x40 SHL SUB DUP2 GT ISZERO PUSH3 0x4AB JUMPI PUSH3 0x4AB PUSH3 0x2B0 JUMP JUMPDEST PUSH3 0x4C3 DUP2 PUSH3 0x4BC DUP5 SLOAD PUSH3 0x400 JUMP JUMPDEST DUP5 PUSH3 0x43C JUMP JUMPDEST PUSH1 0x20 DUP1 PUSH1 0x1F DUP4 GT PUSH1 0x1 DUP2 EQ PUSH3 0x4FB JUMPI PUSH1 0x0 DUP5 ISZERO PUSH3 0x4E2 JUMPI POP DUP6 DUP4 ADD MLOAD JUMPDEST PUSH1 0x0 NOT PUSH1 0x3 DUP7 SWAP1 SHL SHR NOT AND PUSH1 0x1 DUP6 SWAP1 SHL OR DUP6 SSTORE PUSH3 0x486 JUMP JUMPDEST PUSH1 0x0 DUP6 DUP2 MSTORE PUSH1 0x20 DUP2 KECCAK256 PUSH1 0x1F NOT DUP7 AND SWAP2 JUMPDEST DUP3 DUP2 LT ISZERO PUSH3 0x52C JUMPI DUP9 DUP7 ADD MLOAD DUP3 SSTORE SWAP5 DUP5 ADD SWAP5 PUSH1 0x1 SWAP1 SWAP2 ADD SWAP1 DUP5 ADD PUSH3 0x50B JUMP JUMPDEST POP DUP6 DUP3 LT ISZERO PUSH3 0x54B JUMPI DUP8 DUP6 ADD MLOAD PUSH1 0x0 NOT PUSH1 0x3 DUP9 SWAP1 SHL PUSH1 0xF8 AND SHR NOT AND DUP2 SSTORE JUMPDEST POP POP POP POP POP PUSH1 0x1 SWAP1 DUP2 SHL ADD SWAP1 SSTORE POP JUMP JUMPDEST PUSH4 0x4E487B71 PUSH1 0xE0 SHL PUSH1 0x0 MSTORE PUSH1 0x11 PUSH1 0x4 MSTORE PUSH1 0x24 PUSH1 0x0 REVERT JUMPDEST PUSH1 0x1 DUP2 DUP2 JUMPDEST DUP1 DUP6 GT ISZERO PUSH3 0x5B2 JUMPI DUP2 PUSH1 0x0 NOT DIV DUP3 GT ISZERO PUSH3 0x596 JUMPI PUSH3 0x596 PUSH3 0x55B JUMP JUMPDEST DUP1 DUP6 AND ISZERO PUSH3 0x5A4 JUMPI SWAP2 DUP2 MUL SWAP2 JUMPDEST SWAP4 DUP5 SHR SWAP4 SWAP1 DUP1 MUL SWAP1 PUSH3 0x576 JUMP JUMPDEST POP SWAP3 POP SWAP3 SWAP1 POP JUMP JUMPDEST PUSH1 0x0 DUP3 PUSH3 0x5CB JUMPI POP PUSH1 0x1 PUSH3 0x66A JUMP JUMPDEST DUP2 PUSH3 0x5DA JUMPI POP PUSH1 0x0 PUSH3 0x66A JUMP JUMPDEST DUP2 PUSH1 0x1 DUP2 EQ PUSH3 0x5F3 JUMPI PUSH1 0x2 DUP2 EQ PUSH3 0x5FE JUMPI PUSH3 0x61E JUMP JUMPDEST PUSH1 0x1 SWAP2 POP POP PUSH3 0x66A JUMP JUMPDEST PUSH1 0xFF DUP5 GT ISZERO PUSH3 0x612 JUMPI PUSH3 0x612 PUSH3 0x55B JUMP JUMPDEST POP POP PUSH1 0x1 DUP3 SHL PUSH3 0x66A JUMP JUMPDEST POP PUSH1 0x20 DUP4 LT PUSH2 0x133 DUP4 LT AND PUSH1 0x4E DUP5 LT PUSH1 0xB DUP5 LT AND OR ISZERO PUSH3 0x643 JUMPI POP DUP2 DUP2 EXP PUSH3 0x66A JUMP JUMPDEST PUSH3 0x64F DUP4 DUP4 PUSH3 0x571 JUMP JUMPDEST DUP1 PUSH1 0x0 NOT DIV DUP3 GT ISZERO PUSH3 0x666 JUMPI PUSH3 0x666 PUSH3 0x55B JUMP JUMPDEST MUL SWAP1 POP JUMPDEST SWAP3 SWAP2 POP POP JUMP JUMPDEST PUSH1 0x0 PUSH3 0x681 PUSH1 0xFF DUP5 AND DUP4 PUSH3 0x5BA JUMP JUMPDEST SWAP4 SWAP3 POP POP POP JUMP JUMPDEST DUP1 DUP3 MUL DUP2 ISZERO DUP3 DUP3 DIV DUP5 EQ OR PUSH3 0x66A JUMPI PUSH3 0x66A PUSH3 0x55B JUMP JUMPDEST DUP1 DUP3 ADD DUP1 DUP3 GT ISZERO PUSH3 0x66A JUMPI PUSH3 0x66A PUSH3 0x55B JUMP JUMPDEST PUSH2 0x95C DUP1 PUSH3 0x6C8 PUSH1 0x0 CODECOPY PUSH1 0x0 RETURN INVALID PUSH1 0x80 PUSH1 0x40 MSTORE CALLVALUE DUP1 ISZERO PUSH2 0x10 JUMPI PUSH1 0x0 DUP1 REVERT JUMPDEST POP PUSH1 0x4 CALLDATASIZE LT PUSH2 0xEA JUMPI PUSH1 0x0 CALLDATALOAD PUSH1 0xE0 SHR DUP1 PUSH4 0x70A08231 GT PUSH2 0x8C JUMPI DUP1 PUSH4 0x95D89B41 GT PUSH2 0x66 JUMPI DUP1 PUSH4 0x95D89B41 EQ PUSH2 0x1E8 JUMPI DUP1 PUSH4 0xA9059CBB EQ PUSH2 0x1F0 JUMPI DUP1 PUSH4 0xDD62ED3E EQ PUSH2 0x203 JUMPI DUP1 PUSH4 0xF2FDE38B EQ PUSH2 0x23C JUMPI PUSH1 0x0 DUP1 REVERT JUMPDEST DUP1 PUSH4 0x70A08231 EQ PUSH2 0x19C JUMPI DUP1 PUSH4 0x715018A6 EQ PUSH2 0x1C5 JUMPI DUP1 PUSH4 0x8DA5CB5B EQ PUSH2 0x1CD JUMPI PUSH1 0x0 DUP1 REVERT JUMPDEST DUP1 PUSH4 0x23B872DD GT PUSH2 0xC8 JUMPI DUP1 PUSH4 0x23B872DD EQ PUSH2 0x142 JUMPI DUP1 PUSH4 0x313CE567 EQ PUSH2 0x155 JUMPI DUP1 PUSH4 0x40C10F19 EQ PUSH2 0x174 JUMPI DUP1 PUSH4 0x42966C68 EQ PUSH2 0x189 JUMPI PUSH1 0x0 DUP1 REVERT JUMPDEST DUP1 PUSH4 0x6FDDE03 EQ PUSH2 0xEF JUMPI DUP1 PUSH4 0x95EA7B3 EQ PUSH2 0x10D JUMPI DUP1 PUSH4 0x18160DDD EQ PUSH2 0x130 JUMPI JUMPDEST PUSH1 0x0 DUP1 REVERT JUMPDEST PUSH2 0xF7 PUSH2 0x24F JUMP JUMPDEST PUSH1 0x40 MLOAD PUSH2 0x104 SWAP2 SWAP1 PUSH2 0x78D JUMP JUMPDEST PUSH1 0x40 MLOAD DUP1 SWAP2 SUB SWAP1 RETURN JUMPDEST PUSH2 0x120 PUSH2 0x11B CALLDATASIZE PUSH1 0x4 PUSH2 0x7F7 JUMP JUMPDEST PUSH2 0x2E1 JUMP JUMPDEST PUSH1 0x40 MLOAD SWAP1 ISZERO ISZERO DUP2 MSTORE PUSH1 0x20 ADD PUSH2 0x104 JUMP JUMPDEST PUSH1 0x2 SLOAD JUMPDEST PUSH1 0x40 MLOAD SWAP1 DUP2 MSTORE PUSH1 0x20 ADD PUSH2 0x104 JUMP JUMPDEST PUSH2 0x120 PUSH2 0x150 CALLDATASIZE PUSH1 0x4 PUSH2 0x821 JUMP JUMPDEST PUSH2 0x2FB JUMP JUMPDEST PUSH1 0x5 SLOAD PUSH1 0x1 PUSH1 0xA0 SHL SWAP1 DIV PUSH1 0xFF AND PUSH1 0x40 MLOAD PUSH1 0xFF SWAP1 SWAP2 AND DUP2 MSTORE PUSH1 0x20 ADD PUSH2 0x104 JUMP JUMPDEST PUSH2 0x187 PUSH2 0x182 CALLDATASIZE PUSH1 0x4 PUSH2 0x7F7 JUMP JUMPDEST PUSH2 0x31F JUMP JUMPDEST STOP JUMPDEST PUSH2 0x187 PUSH2 0x197 CALLDATASIZE PUSH1 0x4 PUSH2 0x85D JUMP JUMPDEST PUSH2 0x335 JUMP JUMPDEST PUSH2 0x134 PUSH2 0x1AA CALLDATASIZE PUSH1 0x4 PUSH2 0x876 JUMP JUMPDEST PUSH1 0x1 PUSH1 0x1 PUSH1 0xA0 SHL SUB AND PUSH1 0x0 SWAP1 DUP2 MSTORE PUSH1 0x20 DUP2 SWAP1 MSTORE PUSH1 0x40 SWAP1 KECCAK256 SLOAD SWAP1 JUMP JUMPDEST PUSH2 0x187 PUSH2 0x342 JUMP JUMPDEST PUSH1 0x5 SLOAD PUSH1 0x40 MLOAD PUSH1 0x1 PUSH1 0x1 PUSH1 0xA0 SHL SUB SWAP1 SWAP2 AND DUP2 MSTORE PUSH1 0x20 ADD PUSH2 0x104 JUMP JUMPDEST PUSH2 0xF7 PUSH2 0x356 JUMP JUMPDEST PUSH2 0x120 PUSH2 0x1FE CALLDATASIZE PUSH1 0x4 PUSH2 0x7F7 JUMP JUMPDEST PUSH2 0x365 JUMP JUMPDEST PUSH2 0x134 PUSH2 0x211 CALLDATASIZE PUSH1 0x4 PUSH2 0x898 JUMP JUMPDEST PUSH1 0x1 PUSH1 0x1 PUSH1 0xA0 SHL SUB SWAP2 DUP3 AND PUSH1 0x0 SWAP1 DUP2 MSTORE PUSH1 0x1 PUSH1 0x20 SWAP1 DUP2 MSTORE PUSH1 0x40 DUP1 DUP4 KECCAK256 SWAP4 SWAP1 SWAP5 AND DUP3 MSTORE SWAP2 SWAP1 SWAP2 MSTORE KECCAK256 SLOAD SWAP1 JUMP JUMPDEST PUSH2 0x187 PUSH2 0x24A CALLDATASIZE PUSH1 0x4 PUSH2 0x876 JUMP JUMPDEST PUSH2 0x373 JUMP JUMPDEST PUSH1 0x60 PUSH1 0x3 DUP1 SLOAD PUSH2 0x25E SWAP1 PUSH2 0x8CB JUMP JUMPDEST DUP1 PUSH1 0x1F ADD PUSH1 0x20 DUP1 SWAP2 DIV MUL PUSH1 0x20 ADD PUSH1 0x40 MLOAD SWAP1 DUP2 ADD PUSH1 0x40 MSTORE DUP1 SWAP3 SWAP2 SWAP1 DUP2 DUP2 MSTORE PUSH1 0x20 ADD DUP3 DUP1 SLOAD PUSH2 0x28A SWAP1 PUSH2 0x8CB JUMP JUMPDEST DUP1 ISZERO PUSH2 0x2D7 JUMPI DUP1 PUSH1 0x1F LT PUSH2 0x2AC JUMPI PUSH2 0x100 DUP1 DUP4 SLOAD DIV MUL DUP4 MSTORE SWAP2 PUSH1 0x20 ADD SWAP2 PUSH2 0x2D7 JUMP JUMPDEST DUP3 ADD SWAP2 SWAP1 PUSH1 0x0 MSTORE PUSH1 0x20 PUSH1 0x0 KECCAK256 SWAP1 JUMPDEST DUP2 SLOAD DUP2 MSTORE SWAP1 PUSH1 0x1 ADD SWAP1 PUSH1 0x20 ADD DUP1 DUP4 GT PUSH2 0x2BA JUMPI DUP3 SWAP1 SUB PUSH1 0x1F AND DUP3 ADD SWAP2 JUMPDEST POP POP POP POP POP SWAP1 POP SWAP1 JUMP JUMPDEST PUSH1 0x0 CALLER PUSH2 0x2EF DUP2 DUP6 DUP6 PUSH2 0x3B3 JUMP JUMPDEST PUSH1 0x1 SWAP2 POP POP JUMPDEST SWAP3 SWAP2 POP POP JUMP JUMPDEST PUSH1 0x0 CALLER PUSH2 0x309 DUP6 DUP3 DUP6 PUSH2 0x3C5 JUMP JUMPDEST PUSH2 0x314 DUP6 DUP6 DUP6 PUSH2 0x444 JUMP JUMPDEST POP PUSH1 0x1 SWAP5 SWAP4 POP POP POP POP JUMP JUMPDEST PUSH2 0x327 PUSH2 0x4A3 JUMP JUMPDEST PUSH2 0x331 DUP3 DUP3 PUSH2 0x4D0 JUMP JUMPDEST POP POP JUMP JUMPDEST PUSH2 0x33F CALLER DUP3 PUSH2 0x506 JUMP JUMPDEST POP JUMP JUMPDEST PUSH2 0x34A PUSH2 0x4A3 JUMP JUMPDEST PUSH2 0x354 PUSH1 0x0 PUSH2 0x53C JUMP JUMPDEST JUMP JUMPDEST PUSH1 0x60 PUSH1 0x4 DUP1 SLOAD PUSH2 0x25E SWAP1 PUSH2 0x8CB JUMP JUMPDEST PUSH1 0x0 CALLER PUSH2 0x2EF DUP2 DUP6 DUP6 PUSH2 0x444 JUMP JUMPDEST PUSH2 0x37B PUSH2 0x4A3 JUMP JUMPDEST PUSH1 0x1 PUSH1 0x1 PUSH1 0xA0 SHL SUB DUP2 AND PUSH2 0x3AA JUMPI PUSH1 0x40 MLOAD PUSH4 0x1E4FBDF7 PUSH1 0xE0 SHL DUP2 MSTORE PUSH1 0x0 PUSH1 0x4 DUP3 ADD MSTORE PUSH1 0x24 ADD JUMPDEST PUSH1 0x40 MLOAD DUP1 SWAP2 SUB SWAP1 REVERT JUMPDEST PUSH2 0x33F DUP2 PUSH2 0x53C JUMP JUMPDEST PUSH2 0x3C0 DUP4 DUP4 DUP4 PUSH1 0x1 PUSH2 0x58E JUMP JUMPDEST POP POP POP JUMP JUMPDEST PUSH1 0x1 PUSH1 0x1 PUSH1 0xA0 SHL SUB DUP4 DUP2 AND PUSH1 0x0 SWAP1 DUP2 MSTORE PUSH1 0x1 PUSH1 0x20 SWAP1 DUP2 MSTORE PUSH1 0x40 DUP1 DUP4 KECCAK256 SWAP4 DUP7 AND DUP4 MSTORE SWAP3 SWAP1 MSTORE KECCAK256 SLOAD PUSH1 0x0 NOT DUP2 LT ISZERO PUSH2 0x43E JUMPI DUP2 DUP2 LT ISZERO PUSH2 0x42F JUMPI PUSH1 0x40 MLOAD PUSH4 0x7DC7A0D9 PUSH1 0xE1 SHL DUP2 MSTORE PUSH1 0x1 PUSH1 0x1 PUSH1 0xA0 SHL SUB DUP5 AND PUSH1 0x4 DUP3 ADD MSTORE PUSH1 0x24 DUP2 ADD DUP3 SWAP1 MSTORE PUSH1 0x44 DUP2 ADD DUP4 SWAP1 MSTORE PUSH1 0x64 ADD PUSH2 0x3A1 JUMP JUMPDEST PUSH2 0x43E DUP5 DUP5 DUP5 DUP5 SUB PUSH1 0x0 PUSH2 0x58E JUMP JUMPDEST POP POP POP POP JUMP JUMPDEST PUSH1 0x1 PUSH1 0x1 PUSH1 0xA0 SHL SUB DUP4 AND PUSH2 0x46E JUMPI PUSH1 0x40 MLOAD PUSH4 0x4B637E8F PUSH1 0xE1 SHL DUP2 MSTORE PUSH1 0x0 PUSH1 0x4 DUP3 ADD MSTORE PUSH1 0x24 ADD PUSH2 0x3A1 JUMP JUMPDEST PUSH1 0x1 PUSH1 0x1 PUSH1 0xA0 SHL SUB DUP3 AND PUSH2 0x498 JUMPI PUSH1 0x40 MLOAD PUSH4 0xEC442F05 PUSH1 0xE0 SHL DUP2 MSTORE PUSH1 0x0 PUSH1 0x4 DUP3 ADD MSTORE PUSH1 0x24 ADD PUSH2 0x3A1 JUMP JUMPDEST PUSH2 0x3C0 DUP4 DUP4 DUP4 PUSH2 0x663 JUMP JUMPDEST PUSH1 0x5 SLOAD PUSH1 0x1 PUSH1 0x1 PUSH1 0xA0 SHL SUB AND CALLER EQ PUSH2 0x354 JUMPI PUSH1 0x40 MLOAD PUSH4 0x118CDAA7 PUSH1 0xE0 SHL DUP2 MSTORE CALLER PUSH1 0x4 DUP3 ADD MSTORE PUSH1 0x24 ADD PUSH2 0x3A1 JUMP JUMPDEST PUSH1 0x1 PUSH1 0x1 PUSH1 0xA0 SHL SUB DUP3 AND PUSH2 0x4FA JUMPI PUSH1 0x40 MLOAD PUSH4 0xEC442F05 PUSH1 0xE0 SHL DUP2 MSTORE PUSH1 0x0 PUSH1 0x4 DUP3 ADD MSTORE PUSH1 0x24 ADD PUSH2 0x3A1 JUMP JUMPDEST PUSH2 0x331 PUSH1 0x0 DUP4 DUP4 PUSH2 0x663 JUMP JUMPDEST PUSH1 0x1 PUSH1 0x1 PUSH1 0xA0 SHL SUB DUP3 AND PUSH2 0x530 JUMPI PUSH1 0x40 MLOAD PUSH4 0x4B637E8F PUSH1 0xE1 SHL DUP2 MSTORE PUSH1 0x0 PUSH1 0x4 DUP3 ADD MSTORE PUSH1 0x24 ADD PUSH2 0x3A1 JUMP JUMPDEST PUSH2 0x331 DUP3 PUSH1 0x0 DUP4 PUSH2 0x663 JUMP JUMPDEST PUSH1 0x5 DUP1 SLOAD PUSH1 0x1 PUSH1 0x1 PUSH1 0xA0 SHL SUB DUP4 DUP2 AND PUSH1 0x1 PUSH1 0x1 PUSH1 0xA0 SHL SUB NOT DUP4 AND DUP2 OR SWAP1 SWAP4 SSTORE PUSH1 0x40 MLOAD SWAP2 AND SWAP2 SWAP1 DUP3 SWAP1 PUSH32 0x8BE0079C531659141344CD1FD0A4F28419497F9722A3DAAFE3B4186F6B6457E0 SWAP1 PUSH1 0x0 SWAP1 LOG3 POP POP JUMP JUMPDEST PUSH1 0x1 PUSH1 0x1 PUSH1 0xA0 SHL SUB DUP5 AND PUSH2 0x5B8 JUMPI PUSH1 0x40 MLOAD PUSH4 0xE602DF05 PUSH1 0xE0 SHL DUP2 MSTORE PUSH1 0x0 PUSH1 0x4 DUP3 ADD MSTORE PUSH1 0x24 ADD PUSH2 0x3A1 JUMP JUMPDEST PUSH1 0x1 PUSH1 0x1 PUSH1 0xA0 SHL SUB DUP4 AND PUSH2 0x5E2 JUMPI PUSH1 0x40 MLOAD PUSH4 0x4A1406B1 PUSH1 0xE1 SHL DUP2 MSTORE PUSH1 0x0 PUSH1 0x4 DUP3 ADD MSTORE PUSH1 0x24 ADD PUSH2 0x3A1 JUMP JUMPDEST PUSH1 0x1 PUSH1 0x1 PUSH1 0xA0 SHL SUB DUP1 DUP6 AND PUSH1 0x0 SWAP1 DUP2 MSTORE PUSH1 0x1 PUSH1 0x20 SWAP1 DUP2 MSTORE PUSH1 0x40 DUP1 DUP4 KECCAK256 SWAP4 DUP8 AND DUP4 MSTORE SWAP3 SWAP1 MSTORE KECCAK256 DUP3 SWAP1 SSTORE DUP1 ISZERO PUSH2 0x43E JUMPI DUP3 PUSH1 0x1 PUSH1 0x1 PUSH1 0xA0 SHL SUB AND DUP5 PUSH1 0x1 PUSH1 0x1 PUSH1 0xA0 SHL SUB AND PUSH32 0x8C5BE1E5EBEC7D5BD14F71427D1E84F3DD0314C0F7B2291E5B200AC8C7C3B925 DUP5 PUSH1 0x40 MLOAD PUSH2 0x655 SWAP2 DUP2 MSTORE PUSH1 0x20 ADD SWAP1 JUMP JUMPDEST PUSH1 0x40 MLOAD DUP1 SWAP2 SUB SWAP1 LOG3 POP POP POP POP JUMP JUMPDEST PUSH1 0x1 PUSH1 0x1 PUSH1 0xA0 SHL SUB DUP4 AND PUSH2 0x68E JUMPI DUP1 PUSH1 0x2 PUSH1 0x0 DUP3 DUP3 SLOAD PUSH2 0x683 SWAP2 SWAP1 PUSH2 0x905 JUMP JUMPDEST SWAP1 SWAP2 SSTORE POP PUSH2 0x700 SWAP1 POP JUMP JUMPDEST PUSH1 0x1 PUSH1 0x1 PUSH1 0xA0 SHL SUB DUP4 AND PUSH1 0x0 SWAP1 DUP2 MSTORE PUSH1 0x20 DUP2 SWAP1 MSTORE PUSH1 0x40 SWAP1 KECCAK256 SLOAD DUP2 DUP2 LT ISZERO PUSH2 0x6E1 JUMPI PUSH1 0x40 MLOAD PUSH4 0x391434E3 PUSH1 0xE2 SHL DUP2 MSTORE PUSH1 0x1 PUSH1 0x1 PUSH1 0xA0 SHL SUB DUP6 AND PUSH1 0x4 DUP3 ADD MSTORE PUSH1 0x24 DUP2 ADD DUP3 SWAP1 MSTORE PUSH1 0x44 DUP2 ADD DUP4 SWAP1 MSTORE PUSH1 0x64 ADD PUSH2 0x3A1 JUMP JUMPDEST PUSH1 0x1 PUSH1 0x1 PUSH1 0xA0 SHL SUB DUP5 AND PUSH1 0x0 SWAP1 DUP2 MSTORE PUSH1 0x20 DUP2 SWAP1 MSTORE PUSH1 0x40 SWAP1 KECCAK256 SWAP1 DUP3 SWAP1 SUB SWAP1 SSTORE JUMPDEST PUSH1 0x1 PUSH1 0x1 PUSH1 0xA0 SHL SUB DUP3 AND PUSH2 0x71C JUMPI PUSH1 0x2 DUP1 SLOAD DUP3 SWAP1 SUB SWAP1 SSTORE PUSH2 0x73B JUMP JUMPDEST PUSH1 0x1 PUSH1 0x1 PUSH1 0xA0 SHL SUB DUP3 AND PUSH1 0x0 SWAP1 DUP2 MSTORE PUSH1 0x20 DUP2 SWAP1 MSTORE PUSH1 0x40 SWAP1 KECCAK256 DUP1 SLOAD DUP3 ADD SWAP1 SSTORE JUMPDEST DUP2 PUSH1 0x1 PUSH1 0x1 PUSH1 0xA0 SHL SUB AND DUP4 PUSH1 0x1 PUSH1 0x1 PUSH1 0xA0 SHL SUB AND PUSH32 0xDDF252AD1BE2C89B69C2B068FC378DAA952BA7F163C4A11628F55A4DF523B3EF DUP4 PUSH1 0x40 MLOAD PUSH2 0x780 SWAP2 DUP2 MSTORE PUSH1 0x20 ADD SWAP1 JUMP JUMPDEST PUSH1 0x40 MLOAD DUP1 SWAP2 SUB SWAP1 LOG3 POP POP POP JUMP JUMPDEST PUSH1 0x0 PUSH1 0x20 DUP1 DUP4 MSTORE DUP4 MLOAD DUP1 DUP3 DUP6 ADD MSTORE PUSH1 0x0 JUMPDEST DUP2 DUP2 LT ISZERO PUSH2 0x7BA JUMPI DUP6 DUP2 ADD DUP4 ADD MLOAD DUP6 DUP3 ADD PUSH1 0x40 ADD MSTORE DUP3 ADD PUSH2 0x79E JUMP JUMPDEST POP PUSH1 0x0 PUSH1 0x40 DUP3 DUP7 ADD ADD MSTORE PUSH1 0x40 PUSH1 0x1F NOT PUSH1 0x1F DUP4 ADD AND DUP6 ADD ADD SWAP3 POP POP POP SWAP3 SWAP2 POP POP JUMP JUMPDEST DUP1 CALLDATALOAD PUSH1 0x1 PUSH1 0x1 PUSH1 0xA0 SHL SUB DUP2 AND DUP2 EQ PUSH2 0x7F2 JUMPI PUSH1 0x0 DUP1 REVERT JUMPDEST SWAP2 SWAP1 POP JUMP JUMPDEST PUSH1 0x0 DUP1 PUSH1 0x40 DUP4 DUP6 SUB SLT ISZERO PUSH2 0x80A JUMPI PUSH1 0x0 DUP1 REVERT JUMPDEST PUSH2 0x813 DUP4 PUSH2 0x7DB JUMP JUMPDEST SWAP5 PUSH1 0x20 SWAP4 SWAP1 SWAP4 ADD CALLDATALOAD SWAP4 POP POP POP JUMP JUMPDEST PUSH1 0x0 DUP1 PUSH1 0x0 PUSH1 0x60 DUP5 DUP7 SUB SLT ISZERO PUSH2 0x836 JUMPI PUSH1 0x0 DUP1 REVERT JUMPDEST PUSH2 0x83F DUP5 PUSH2 0x7DB JUMP JUMPDEST SWAP3 POP PUSH2 0x84D PUSH1 0x20 DUP6 ADD PUSH2 0x7DB JUMP JUMPDEST SWAP2 POP PUSH1 0x40 DUP5 ADD CALLDATALOAD SWAP1 POP SWAP3 POP SWAP3 POP SWAP3 JUMP JUMPDEST PUSH1 0x0 PUSH1 0x20 DUP3 DUP5 SUB SLT ISZERO PUSH2 0x86F JUMPI PUSH1 0x0 DUP1 REVERT JUMPDEST POP CALLDATALOAD SWAP2 SWAP1 POP JUMP JUMPDEST PUSH1 0x0 PUSH1 0x20 DUP3 DUP5 SUB SLT ISZERO PUSH2 0x888 JUMPI PUSH1 0x0 DUP1 REVERT JUMPDEST PUSH2 0x891 DUP3 PUSH2 0x7DB JUMP JUMPDEST SWAP4 SWAP3 POP POP POP JUMP JUMPDEST PUSH1 0x0 DUP1 PUSH1 0x40 DUP4 DUP6 SUB SLT ISZERO PUSH2 0x8AB JUMPI PUSH1 0x0 DUP1 REVERT JUMPDEST PUSH2 0x8B4 DUP4 PUSH2 0x7DB JUMP JUMPDEST SWAP2 POP PUSH2 0x8C2 PUSH1 0x20 DUP5 ADD PUSH2 0x7DB JUMP JUMPDEST SWAP1 POP SWAP3 POP SWAP3 SWAP1 POP JUMP JUMPDEST PUSH1 0x1 DUP2 DUP2 SHR SWAP1 DUP3 AND DUP1 PUSH2 0x8DF JUMPI PUSH1 0x7F DUP3 AND SWAP2 POP JUMPDEST PUSH1 0x20 DUP3 LT DUP2 SUB PUSH2 0x8FF JUMPI PUSH4 0x4E487B71 PUSH1 0xE0 SHL PUSH1 0x0 MSTORE PUSH1 0x22 PUSH1 0x4 MSTORE PUSH1 0x24 PUSH1 0x0 REVERT JUMPDEST POP SWAP2 SWAP1 POP JUMP JUMPDEST DUP1 DUP3 ADD DUP1 DUP3 GT ISZERO PUSH2 0x2F5 JUMPI PUSH4 0x4E487B71 PUSH1 0xE0 SHL PUSH1 0x0 MSTORE PUSH1 0x11 PUSH1 0x4 MSTORE PUSH1 0x24 PUSH1 0x0 REVERT INVALID LOG2 PUSH5 0x6970667358 0x22 SLT KECCAK256 PUSH6 0x1848834A5FA5 0xBA JUMP 0xB8 0xAF 0x29 PUSH12 0x2155372B938B406EF27534A7 0x25 0x2A DUP1 0xF8 PUSH16 0x3A4764736F6C63430008140033A26469 PUSH17 0x6673582212201C316AC399D8EF090B81D2 0xBC SWAP10 0xB0 0x4E 0xBC LOG4 PUSH11 0xC99D0B02E94F0649A7E5A3 SWAP14 RETURNDATACOPY 0xE8 PUSH5 0x736F6C6343 STOP ADDMOD EQ STOP CALLER "},"methodIdentifiers":{"addToken(address,uint256,uint256)":"dee1f2af","claimToken(address)":"32f289cf","deployAndAddToken(string,string,uint8,uint256,uint256,uint256)":"75befa88","getAllTokens()":"2a5c792a","getClaimStatus(address,address)":"0e5f6788","getTokenCount()":"78a89567","owner()":"8da5cb5b","removeToken(address)":"5fa7b584","renounceOwnership()":"715018a6","tokenIndexes(address)":"04bc3b1c","tokenList(uint256)":"9ead7222","transferOwnership(address)":"f2fde38b","updateToken(address,bool,uint256,uint256)":"e0de5f14","userClaims(address,address)":"408ad08b"}}}}}