{
  "_format": "hh-sol-artifact-1",
  "contractName": "TokenFaucet",
  "sourceName": "contracts/TokenFaucet.sol",
  "abi": [
    {
      "inputs": [],
      "stateMutability": "nonpayable",
      "type": "constructor"
    },
    {
      "inputs": [
        {
          "internalType": "address",
          "name": "owner",
          "type": "address"
        }
      ],
      "name": "OwnableInvalidOwner",
      "type": "error"
    },
    {
      "inputs": [
        {
          "internalType": "address",
          "name": "account",
          "type": "address"
        }
      ],
      "name": "OwnableUnauthorizedAccount",
      "type": "error"
    },
    {
      "inputs": [],
      "name": "ReentrancyGuardReentrantCall",
      "type": "error"
    },
    {
      "anonymous": false,
      "inputs": [
        {
          "indexed": true,
          "internalType": "address",
          "name": "previousOwner",
          "type": "address"
        },
        {
          "indexed": true,
          "internalType": "address",
          "name": "newOwner",
          "type": "address"
        }
      ],
      "name": "OwnershipTransferred",
      "type": "event"
    },
    {
      "anonymous": false,
      "inputs": [
        {
          "indexed": true,
          "internalType": "address",
          "name": "tokenAddress",
          "type": "address"
        },
        {
          "indexed": false,
          "internalType": "string",
          "name": "name",
          "type": "string"
        },
        {
          "indexed": false,
          "internalType": "string",
          "name": "symbol",
          "type": "string"
        }
      ],
      "name": "TokenAdded",
      "type": "event"
    },
    {
      "anonymous": false,
      "inputs": [
        {
          "indexed": true,
          "internalType": "address",
          "name": "user",
          "type": "address"
        },
        {
          "indexed": true,
          "internalType": "address",
          "name": "token",
          "type": "address"
        },
        {
          "indexed": false,
          "internalType": "uint256",
          "name": "amount",
          "type": "uint256"
        }
      ],
      "name": "TokenClaimed",
      "type": "event"
    },
    {
      "anonymous": false,
      "inputs": [
        {
          "indexed": true,
          "internalType": "address",
          "name": "tokenAddress",
          "type": "address"
        },
        {
          "indexed": false,
          "internalType": "bool",
          "name": "active",
          "type": "bool"
        },
        {
          "indexed": false,
          "internalType": "uint256",
          "name": "faucetAmount",
          "type": "uint256"
        }
      ],
      "name": "TokenUpdated",
      "type": "event"
    },
    {
      "inputs": [
        {
          "internalType": "address",
          "name": "tokenAddress",
          "type": "address"
        },
        {
          "internalType": "uint256",
          "name": "faucetAmount",
          "type": "uint256"
        },
        {
          "internalType": "uint256",
          "name": "cooldown",
          "type": "uint256"
        }
      ],
      "name": "addToken",
      "outputs": [],
      "stateMutability": "nonpayable",
      "type": "function"
    },
    {
      "inputs": [
        {
          "internalType": "address",
          "name": "tokenAddress",
          "type": "address"
        }
      ],
      "name": "claimToken",
      "outputs": [],
      "stateMutability": "nonpayable",
      "type": "function"
    },
    {
      "inputs": [
        {
          "internalType": "string",
          "name": "name",
          "type": "string"
        },
        {
          "internalType": "string",
          "name": "symbol",
          "type": "string"
        },
        {
          "internalType": "uint8",
          "name": "decimals",
          "type": "uint8"
        },
        {
          "internalType": "uint256",
          "name": "initialSupply",
          "type": "uint256"
        },
        {
          "internalType": "uint256",
          "name": "faucetAmount",
          "type": "uint256"
        },
        {
          "internalType": "uint256",
          "name": "cooldown",
          "type": "uint256"
        }
      ],
      "name": "deployAndAddToken",
      "outputs": [
        {
          "internalType": "address",
          "name": "",
          "type": "address"
        }
      ],
      "stateMutability": "nonpayable",
      "type": "function"
    },
    {
      "inputs": [],
      "name": "getAllTokens",
      "outputs": [
        {
          "components": [
            {
              "internalType": "address",
              "name": "tokenAddress",
              "type": "address"
            },
            {
              "internalType": "string",
              "name": "name",
              "type": "string"
            },
            {
              "internalType": "string",
              "name": "symbol",
              "type": "string"
            },
            {
              "internalType": "uint8",
              "name": "decimals",
              "type": "uint8"
            },
            {
              "internalType": "uint256",
              "name": "faucetAmount",
              "type": "uint256"
            },
            {
              "internalType": "uint256",
              "name": "cooldown",
              "type": "uint256"
            },
            {
              "internalType": "bool",
              "name": "active",
              "type": "bool"
            }
          ],
          "internalType": "struct TokenFaucet.TokenInfo[]",
          "name": "",
          "type": "tuple[]"
        }
      ],
      "stateMutability": "view",
      "type": "function"
    },
    {
      "inputs": [
        {
          "internalType": "address",
          "name": "user",
          "type": "address"
        },
        {
          "internalType": "address",
          "name": "tokenAddress",
          "type": "address"
        }
      ],
      "name": "getClaimStatus",
      "outputs": [
        {
          "internalType": "bool",
          "name": "canClaim",
          "type": "bool"
        },
        {
          "internalType": "uint256",
          "name": "nextClaimTime",
          "type": "uint256"
        },
        {
          "internalType": "uint256",
          "name": "totalClaimed",
          "type": "uint256"
        }
      ],
      "stateMutability": "view",
      "type": "function"
    },
    {
      "inputs": [],
      "name": "getTokenCount",
      "outputs": [
        {
          "internalType": "uint256",
          "name": "",
          "type": "uint256"
        }
      ],
      "stateMutability": "view",
      "type": "function"
    },
    {
      "inputs": [
        {
          "internalType": "address",
          "name": "token",
          "type": "address"
        },
        {
          "internalType": "address",
          "name": "to",
          "type": "address"
        },
        {
          "internalType": "uint256",
          "name": "amount",
          "type": "uint256"
        }
      ],
      "name": "mintTo",
      "outputs": [],
      "stateMutability": "nonpayable",
      "type": "function"
    },
    {
      "inputs": [],
      "name": "owner",
      "outputs": [
        {
          "internalType": "address",
          "name": "",
          "type": "address"
        }
      ],
      "stateMutability": "view",
      "type": "function"
    },
    {
      "inputs": [
        {
          "internalType": "address",
          "name": "tokenAddress",
          "type": "address"
        }
      ],
      "name": "removeToken",
      "outputs": [],
      "stateMutability": "nonpayable",
      "type": "function"
    },
    {
      "inputs": [],
      "name": "renounceOwnership",
      "outputs": [],
      "stateMutability": "nonpayable",
      "type": "function"
    },
    {
      "inputs": [
        {
          "internalType": "address",
          "name": "",
          "type": "address"
        }
      ],
      "name": "tokenIndexes",
      "outputs": [
        {
          "internalType": "uint256",
          "name": "",
          "type": "uint256"
        }
      ],
      "stateMutability": "view",
      "type": "function"
    },
    {
      "inputs": [
        {
          "internalType": "uint256",
          "name": "",
          "type": "uint256"
        }
      ],
      "name": "tokenList",
      "outputs": [
        {
          "internalType": "address",
          "name": "tokenAddress",
          "type": "address"
        },
        {
          "internalType": "string",
          "name": "name",
          "type": "string"
        },
        {
          "internalType": "string",
          "name": "symbol",
          "type": "string"
        },
        {
          "internalType": "uint8",
          "name": "decimals",
          "type": "uint8"
        },
        {
          "internalType": "uint256",
          "name": "faucetAmount",
          "type": "uint256"
        },
        {
          "internalType": "uint256",
          "name": "cooldown",
          "type": "uint256"
        },
        {
          "internalType": "bool",
          "name": "active",
          "type": "bool"
        }
      ],
      "stateMutability": "view",
      "type": "function"
    },
    {
      "inputs": [
        {
          "internalType": "address",
          "name": "newOwner",
          "type": "address"
        }
      ],
      "name": "transferOwnership",
      "outputs": [],
      "stateMutability": "nonpayable",
      "type": "function"
    },
    {
      "inputs": [
        {
          "internalType": "address",
          "name": "tokenAddress",
          "type": "address"
        },
        {
          "internalType": "bool",
          "name": "active",
          "type": "bool"
        },
        {
          "internalType": "uint256",
          "name": "faucetAmount",
          "type": "uint256"
        },
        {
          "internalType": "uint256",
          "name": "cooldown",
          "type": "uint256"
        }
      ],
      "name": "updateToken",
      "outputs": [],
      "stateMutability": "nonpayable",
      "type": "function"
    },
    {
      "inputs": [
        {
          "internalType": "address",
          "name": "",
          "type": "address"
        },
        {
          "internalType": "address",
          "name": "",
          "type": "address"
        }
      ],
      "name": "userClaims",
      "outputs": [
        {
          "internalType": "uint256",
          "name": "lastClaimTime",
          "type": "uint256"
        },
        {
          "internalType": "uint256",
          "name": "totalClaimed",
          "type": "uint256"
        }
      ],
      "stateMutability": "view",
      "type": "function"
    }
  ],
  "bytecode": "0x608060405234801561001057600080fd5b50338061003757604051631e4fbdf760e01b81526000600482015260240160405180910390fd5b6100408161004a565b506001805561009a565b600080546001600160a01b038381166001600160a01b0319831681178455604051919092169283917f8be0079c531659141344cd1fd0a4f28419497f9722a3daafe3b4186f6b6457e09190a35050565b612cc8806100a96000396000f3fe60806040523480156200001157600080fd5b5060043610620001095760003560e01c806375befa8811620000a3578063dee1f2af116200006e578063dee1f2af146200028e578063e0de5f1414620002a5578063ef9bcb2714620002bc578063f2fde38b14620002d357600080fd5b806375befa88146200021757806378a8956714620002475780638da5cb5b14620002505780639ead7222146200026257600080fd5b806332f289cf11620000e457806332f289cf1462000192578063408ad08b14620001ab5780635fa7b58414620001f6578063715018a6146200020d57600080fd5b806304bc3b1c146200010e5780630e5f678814620001445780632a5c792a1462000179575b600080fd5b620001316200011f366004620014b3565b60036020526000908152604090205481565b6040519081526020015b60405180910390f35b6200015b62000155366004620014d8565b620002ea565b6040805193151584526020840192909252908201526060016200013b565b62000183620003eb565b6040516200013b919062001564565b620001a9620001a3366004620014b3565b620005cc565b005b620001e0620001bc366004620014d8565b60046020908152600092835260408084209091529082529020805460019091015482565b604080519283526020830191909152016200013b565b620001a962000207366004620014b3565b6200084e565b620001a962000994565b6200022e6200022836600462001714565b620009ac565b6040516001600160a01b0390911681526020016200013b565b60025462000131565b6000546001600160a01b03166200022e565b6200027962000273366004620017af565b62000c83565b6040516200013b9796959493929190620017c9565b620001a96200029f3660046200182f565b62000e03565b620001a9620002b636600462001865565b620011de565b620001a9620002cd366004620018b2565b6200132a565b620001a9620002e4366004620014b3565b6200139d565b6001600160a01b0381166000908152600360205260408120546002548291829181101580620003435750600281815481106200032a576200032a620018f3565b600091825260209091206006600790920201015460ff16155b156200035b57600080600093509350935050620003e4565b600060028281548110620003735762000373620018f3565b600091825260208083206001600160a01b038b81168552600483526040808620918c16865292529083206007929092020160058101548254919450919291620003bc916200191f565b9050428111158080620003d05782620003d3565b60005b846001015497509750975050505050505b9250925092565b60606002805480602002602001604051908101604052809291908181526020016000905b82821015620005c35760008481526020908190206040805160e081019091526007850290910180546001600160a01b0316825260018101805492939192918401916200045b906200193b565b80601f016020809104026020016040519081016040528092919081815260200182805462000489906200193b565b8015620004da5780601f10620004ae57610100808354040283529160200191620004da565b820191906000526020600020905b815481529060010190602001808311620004bc57829003601f168201915b50505050508152602001600282018054620004f5906200193b565b80601f016020809104026020016040519081016040528092919081815260200182805462000523906200193b565b8015620005745780601f10620005485761010080835404028352916020019162000574565b820191906000526020600020905b8154815290600101906020018083116200055657829003601f168201915b5050509183525050600382015460ff908116602080840191909152600484015460408401526005840154606084015260069093015416151560809091015290825260019290920191016200040f565b50505050905090565b620005d6620013de565b6001600160a01b03811660009081526003602052604090205460025481108015620006385750816001600160a01b0316600282815481106200061c576200061c620018f3565b60009182526020909120600790910201546001600160a01b0316145b620006605760405162461bcd60e51b8152600401620006579062001977565b60405180910390fd5b600060028281548110620006785762000678620018f3565b60009182526020909120600790910201600681015490915060ff16620006d75760405162461bcd60e51b8152602060048201526013602482015272546f6b656e206973206e6f742061637469766560681b604482015260640162000657565b3360009081526004602090815260408083206001600160a01b03871684529091529020600582015481546200070d91906200191f565b4210156200075e5760405162461bcd60e51b815260206004820152601a60248201527f436f6f6c646f776e20706572696f64206e6f7420706173736564000000000000604482015260640162000657565b42815560048201546001820180546000906200077c9084906200191f565b90915550506004828101546040516340c10f1960e01b81523392810192909252602482015284906001600160a01b038216906340c10f1990604401600060405180830381600087803b158015620007d257600080fd5b505af1158015620007e7573d6000803e3d6000fd5b50505050846001600160a01b0316336001600160a01b03167f4831bdd9dcf3048a28319ce81d3cab7a15366bcf449bc7803a539107440809cc85600401546040516200083591815260200190565b60405180910390a3505050506200084b60018055565b50565b6200085862001409565b6001600160a01b03811660009081526003602052604090205460025481108015620008ba5750816001600160a01b0316600282815481106200089e576200089e620018f3565b60009182526020909120600790910201546001600160a01b0316145b620008d95760405162461bcd60e51b8152600401620006579062001977565b600060028281548110620008f157620008f1620018f3565b906000526020600020906007020160060160006101000a81548160ff021916908315150217905550816001600160a01b03167fcac50bd348eed3636ac2f6d57db9f054b1305b47fe8d18c9b961ef650c2e03c66000600284815481106200095c576200095c620018f3565b906000526020600020906007020160040154604051620009889291909115158252602082015260400190565b60405180910390a25050565b6200099e62001409565b620009aa600062001438565b565b6000620009b862001409565b600087878787604051620009cc9062001488565b620009db9493929190620019a0565b604051809103906000f080158015620009f8573d6000803e3d6000fd5b509050806001600160a01b03811662000a255760405162461bcd60e51b81526004016200065790620019e0565b6000851162000a485760405162461bcd60e51b8152600401620006579062001a0f565b60005b60025481101562000aeb57816001600160a01b03166002828154811062000a765762000a76620018f3565b60009182526020909120600790910201546001600160a01b03160362000ad65760405162461bcd60e51b8152602060048201526014602482015273546f6b656e20616c72656164792065786973747360601b604482015260640162000657565b8062000ae28162001a53565b91505062000a4b565b506040805160e0810182526001600160a01b038381168252602082018c81529282018b905260ff8a1660608301526080820188905260a08201879052600160c0830181905260028054918201815560005282517f405787fa12a823e0f2b7631cc41b3ba8828b3321ca811111fa75cd3aa3bb5ace600790920291820180546001600160a01b031916919093161782559251919290917f405787fa12a823e0f2b7631cc41b3ba8828b3321ca811111fa75cd3aa3bb5acf9091019062000bb1908262001ac2565b506040820151600282019062000bc8908262001ac2565b50606082015160038201805460ff90921660ff199283161790556080830151600483015560a0830151600583015560c090920151600690910180549115159190921617905560025462000c1e9060019062001b8f565b6001600160a01b038216600081815260036020526040908190209290925590517f2fb34ce114a136590b874d8cf80e7652adda576578bacfa4f8023f720f5693949062000c6f908c908c9062001ba5565b60405180910390a298975050505050505050565b6002818154811062000c9457600080fd5b6000918252602090912060079091020180546001820180546001600160a01b0390921693509062000cc5906200193b565b80601f016020809104026020016040519081016040528092919081815260200182805462000cf3906200193b565b801562000d445780601f1062000d185761010080835404028352916020019162000d44565b820191906000526020600020905b81548152906001019060200180831162000d2657829003601f168201915b50505050509080600201805462000d5b906200193b565b80601f016020809104026020016040519081016040528092919081815260200182805462000d89906200193b565b801562000dda5780601f1062000dae5761010080835404028352916020019162000dda565b820191906000526020600020905b81548152906001019060200180831162000dbc57829003601f168201915b505050600384015460048501546005860154600690960154949560ff9283169591945092501687565b62000e0d62001409565b6001600160a01b03831662000e365760405162461bcd60e51b81526004016200065790620019e0565b6000821162000e595760405162461bcd60e51b8152600401620006579062001a0f565b60005b60025481101562000efc57836001600160a01b03166002828154811062000e875762000e87620018f3565b60009182526020909120600790910201546001600160a01b03160362000ee75760405162461bcd60e51b8152602060048201526014602482015273546f6b656e20616c72656164792065786973747360601b604482015260640162000657565b8062000ef38162001a53565b91505062000e5c565b50600083905060008490506000816001600160a01b03166306fdde036040518163ffffffff1660e01b8152600401600060405180830381865afa15801562000f48573d6000803e3d6000fd5b505050506040513d6000823e601f3d908101601f1916820160405262000f72919081019062001bd7565b90506000826001600160a01b03166395d89b416040518163ffffffff1660e01b8152600401600060405180830381865afa15801562000fb5573d6000803e3d6000fd5b505050506040513d6000823e601f3d908101601f1916820160405262000fdf919081019062001bd7565b90506000836001600160a01b031663313ce5676040518163ffffffff1660e01b8152600401602060405180830381865afa15801562001022573d6000803e3d6000fd5b505050506040513d601f19601f8201168201806040525081019062001048919062001c4e565b6040805160e0810182526001600160a01b038b811682526020820187815292820186905260ff84166060830152608082018b905260a082018a9052600160c0830181905260028054918201815560005282517f405787fa12a823e0f2b7631cc41b3ba8828b3321ca811111fa75cd3aa3bb5ace600790920291820180546001600160a01b031916919093161782559251939450909290917f405787fa12a823e0f2b7631cc41b3ba8828b3321ca811111fa75cd3aa3bb5acf01906200110e908262001ac2565b506040820151600282019062001125908262001ac2565b50606082015160038201805460ff90921660ff199283161790556080830151600483015560a0830151600583015560c09092015160069091018054911515919092161790556002546200117b9060019062001b8f565b6001600160a01b038916600081815260036020526040908190209290925590517f2fb34ce114a136590b874d8cf80e7652adda576578bacfa4f8023f720f56939490620011cc908690869062001ba5565b60405180910390a25050505050505050565b620011e862001409565b6001600160a01b038416620012115760405162461bcd60e51b81526004016200065790620019e0565b6001600160a01b03841660009081526003602052604090205460025481108015620012735750846001600160a01b031660028281548110620012575762001257620018f3565b60009182526020909120600790910201546001600160a01b0316145b620012925760405162461bcd60e51b8152600401620006579062001977565b600060028281548110620012aa57620012aa620018f3565b600091825260209182902060079091020160068101805460ff19168815159081179091556004820187905560058201869055604080519182529281018790529092506001600160a01b038816917fcac50bd348eed3636ac2f6d57db9f054b1305b47fe8d18c9b961ef650c2e03c6910160405180910390a2505050505050565b6200133462001409565b6040516340c10f1960e01b81526001600160a01b038381166004830152602482018390528416906340c10f1990604401600060405180830381600087803b1580156200137f57600080fd5b505af115801562001394573d6000803e3d6000fd5b50505050505050565b620013a762001409565b6001600160a01b038116620013d357604051631e4fbdf760e01b81526000600482015260240162000657565b6200084b8162001438565b6002600154036200140257604051633ee5aeb560e01b815260040160405180910390fd5b6002600155565b6000546001600160a01b03163314620009aa5760405163118cdaa760e01b815233600482015260240162000657565b600080546001600160a01b038381166001600160a01b0319831681178455604051919092169283917f8be0079c531659141344cd1fd0a4f28419497f9722a3daafe3b4186f6b6457e09190a35050565b6110248062001c6f83390190565b80356001600160a01b0381168114620014ae57600080fd5b919050565b600060208284031215620014c657600080fd5b620014d18262001496565b9392505050565b60008060408385031215620014ec57600080fd5b620014f78362001496565b9150620015076020840162001496565b90509250929050565b60005b838110156200152d57818101518382015260200162001513565b50506000910152565b600081518084526200155081602086016020860162001510565b601f01601f19169290920160200192915050565b60006020808301818452808551808352604092508286019150828160051b87010184880160005b838110156200162557888303603f19018552815180516001600160a01b031684528781015160e089860181905290620015c78287018262001536565b9150508782015185820389870152620015e1828262001536565b60608481015160ff16908801526080808501519088015260a0808501519088015260c09384015115159390960192909252505093860193908601906001016200158b565b509098975050505050505050565b634e487b7160e01b600052604160045260246000fd5b604051601f8201601f1916810167ffffffffffffffff8111828210171562001675576200167562001633565b604052919050565b600067ffffffffffffffff8211156200169a576200169a62001633565b50601f01601f191660200190565b600082601f830112620016ba57600080fd5b8135620016d1620016cb826200167d565b62001649565b818152846020838601011115620016e757600080fd5b816020850160208301376000918101602001919091529392505050565b60ff811681146200084b57600080fd5b60008060008060008060c087890312156200172e57600080fd5b863567ffffffffffffffff808211156200174757600080fd5b620017558a838b01620016a8565b975060208901359150808211156200176c57600080fd5b506200177b89828a01620016a8565b95505060408701356200178e8162001704565b959894975094956060810135955060808101359460a0909101359350915050565b600060208284031215620017c257600080fd5b5035919050565b6001600160a01b038816815260e060208201819052600090620017ef9083018962001536565b828103604084015262001803818962001536565b91505060ff861660608301528460808301528360a083015282151560c083015298975050505050505050565b6000806000606084860312156200184557600080fd5b620018508462001496565b95602085013595506040909401359392505050565b600080600080608085870312156200187c57600080fd5b620018878562001496565b9350602085013580151581146200189d57600080fd5b93969395505050506040820135916060013590565b600080600060608486031215620018c857600080fd5b620018d38462001496565b9250620018e36020850162001496565b9150604084013590509250925092565b634e487b7160e01b600052603260045260246000fd5b634e487b7160e01b600052601160045260246000fd5b8082018082111562001935576200193562001909565b92915050565b600181811c908216806200195057607f821691505b6020821081036200197157634e487b7160e01b600052602260045260246000fd5b50919050565b6020808252600f908201526e151bdad95b881b9bdd08199bdd5b99608a1b604082015260600190565b608081526000620019b5608083018762001536565b8281036020840152620019c9818762001536565b60ff95909516604084015250506060015292915050565b602080825260159082015274496e76616c696420746f6b656e206164647265737360581b604082015260600190565b60208082526024908201527f46617563657420616d6f756e74206d75737420626520677265617465722074686040820152630616e20360e41b606082015260800190565b60006001820162001a685762001a6862001909565b5060010190565b601f82111562001abd57600081815260208120601f850160051c8101602086101562001a985750805b601f850160051c820191505b8181101562001ab95782815560010162001aa4565b5050505b505050565b815167ffffffffffffffff81111562001adf5762001adf62001633565b62001af78162001af084546200193b565b8462001a6f565b602080601f83116001811462001b2f576000841562001b165750858301515b600019600386901b1c1916600185901b17855562001ab9565b600085815260208120601f198616915b8281101562001b605788860151825594840194600190910190840162001b3f565b508582101562001b7f5787850151600019600388901b60f8161c191681555b5050505050600190811b01905550565b8181038181111562001935576200193562001909565b60408152600062001bba604083018562001536565b828103602084015262001bce818562001536565b95945050505050565b60006020828403121562001bea57600080fd5b815167ffffffffffffffff81111562001c0257600080fd5b8201601f8101841362001c1457600080fd5b805162001c25620016cb826200167d565b81815285602083850101111562001c3b57600080fd5b62001bce82602083016020860162001510565b60006020828403121562001c6157600080fd5b8151620014d1816200170456fe60806040523480156200001157600080fd5b506040516200102438038062001024833981016040819052620000349162000375565b33848460036200004583826200048f565b5060046200005482826200048f565b5050506001600160a01b0381166200008757604051631e4fbdf760e01b8152600060048201526024015b60405180910390fd5b6200009281620000ed565b506005805460ff60a01b1916600160a01b60ff851602179055620000e333620000c4600554600160a01b900460ff1690565b620000d190600a62000670565b620000dd908462000688565b6200013f565b50505050620006b8565b600580546001600160a01b038381166001600160a01b0319831681179093556040519116919082907f8be0079c531659141344cd1fd0a4f28419497f9722a3daafe3b4186f6b6457e090600090a35050565b6001600160a01b0382166200016b5760405163ec442f0560e01b8152600060048201526024016200007e565b62000179600083836200017d565b5050565b6001600160a01b038316620001ac578060026000828254620001a09190620006a2565b90915550620002209050565b6001600160a01b03831660009081526020819052604090205481811015620002015760405163391434e360e21b81526001600160a01b038516600482015260248101829052604481018390526064016200007e565b6001600160a01b03841660009081526020819052604090209082900390555b6001600160a01b0382166200023e576002805482900390556200025d565b6001600160a01b03821660009081526020819052604090208054820190555b816001600160a01b0316836001600160a01b03167fddf252ad1be2c89b69c2b068fc378daa952ba7f163c4a11628f55a4df523b3ef83604051620002a391815260200190565b60405180910390a3505050565b634e487b7160e01b600052604160045260246000fd5b600082601f830112620002d857600080fd5b81516001600160401b0380821115620002f557620002f5620002b0565b604051601f8301601f19908116603f01168101908282118183101715620003205762000320620002b0565b816040528381526020925086838588010111156200033d57600080fd5b600091505b8382101562000361578582018301518183018401529082019062000342565b600093810190920192909252949350505050565b600080600080608085870312156200038c57600080fd5b84516001600160401b0380821115620003a457600080fd5b620003b288838901620002c6565b95506020870151915080821115620003c957600080fd5b50620003d887828801620002c6565b935050604085015160ff81168114620003f057600080fd5b6060959095015193969295505050565b600181811c908216806200041557607f821691505b6020821081036200043657634e487b7160e01b600052602260045260246000fd5b50919050565b601f8211156200048a57600081815260208120601f850160051c81016020861015620004655750805b601f850160051c820191505b81811015620004865782815560010162000471565b5050505b505050565b81516001600160401b03811115620004ab57620004ab620002b0565b620004c381620004bc845462000400565b846200043c565b602080601f831160018114620004fb5760008415620004e25750858301515b600019600386901b1c1916600185901b17855562000486565b600085815260208120601f198616915b828110156200052c578886015182559484019460019091019084016200050b565b50858210156200054b5787850151600019600388901b60f8161c191681555b5050505050600190811b01905550565b634e487b7160e01b600052601160045260246000fd5b600181815b80851115620005b25781600019048211156200059657620005966200055b565b80851615620005a457918102915b93841c939080029062000576565b509250929050565b600082620005cb575060016200066a565b81620005da575060006200066a565b8160018114620005f35760028114620005fe576200061e565b60019150506200066a565b60ff8411156200061257620006126200055b565b50506001821b6200066a565b5060208310610133831016604e8410600b841016171562000643575081810a6200066a565b6200064f838362000571565b80600019048211156200066657620006666200055b565b0290505b92915050565b60006200068160ff841683620005ba565b9392505050565b80820281158282048414176200066a576200066a6200055b565b808201808211156200066a576200066a6200055b565b61095c80620006c86000396000f3fe608060405234801561001057600080fd5b50600436106100ea5760003560e01c806370a082311161008c57806395d89b411161006657806395d89b41146101e8578063a9059cbb146101f0578063dd62ed3e14610203578063f2fde38b1461023c57600080fd5b806370a082311461019c578063715018a6146101c55780638da5cb5b146101cd57600080fd5b806323b872dd116100c857806323b872dd14610142578063313ce5671461015557806340c10f191461017457806342966c681461018957600080fd5b806306fdde03146100ef578063095ea7b31461010d57806318160ddd14610130575b600080fd5b6100f761024f565b604051610104919061078d565b60405180910390f35b61012061011b3660046107f7565b6102e1565b6040519015158152602001610104565b6002545b604051908152602001610104565b610120610150366004610821565b6102fb565b600554600160a01b900460ff1660405160ff9091168152602001610104565b6101876101823660046107f7565b61031f565b005b61018761019736600461085d565b610335565b6101346101aa366004610876565b6001600160a01b031660009081526020819052604090205490565b610187610342565b6005546040516001600160a01b039091168152602001610104565b6100f7610356565b6101206101fe3660046107f7565b610365565b610134610211366004610898565b6001600160a01b03918216600090815260016020908152604080832093909416825291909152205490565b61018761024a366004610876565b610373565b60606003805461025e906108cb565b80601f016020809104026020016040519081016040528092919081815260200182805461028a906108cb565b80156102d75780601f106102ac576101008083540402835291602001916102d7565b820191906000526020600020905b8154815290600101906020018083116102ba57829003601f168201915b5050505050905090565b6000336102ef8185856103b3565b60019150505b92915050565b6000336103098582856103c5565b610314858585610444565b506001949350505050565b6103276104a3565b61033182826104d0565b5050565b61033f3382610506565b50565b61034a6104a3565b610354600061053c565b565b60606004805461025e906108cb565b6000336102ef818585610444565b61037b6104a3565b6001600160a01b0381166103aa57604051631e4fbdf760e01b8152600060048201526024015b60405180910390fd5b61033f8161053c565b6103c0838383600161058e565b505050565b6001600160a01b0383811660009081526001602090815260408083209386168352929052205460001981101561043e578181101561042f57604051637dc7a0d960e11b81526001600160a01b038416600482015260248101829052604481018390526064016103a1565b61043e8484848403600061058e565b50505050565b6001600160a01b03831661046e57604051634b637e8f60e11b8152600060048201526024016103a1565b6001600160a01b0382166104985760405163ec442f0560e01b8152600060048201526024016103a1565b6103c0838383610663565b6005546001600160a01b031633146103545760405163118cdaa760e01b81523360048201526024016103a1565b6001600160a01b0382166104fa5760405163ec442f0560e01b8152600060048201526024016103a1565b61033160008383610663565b6001600160a01b03821661053057604051634b637e8f60e11b8152600060048201526024016103a1565b61033182600083610663565b600580546001600160a01b038381166001600160a01b0319831681179093556040519116919082907f8be0079c531659141344cd1fd0a4f28419497f9722a3daafe3b4186f6b6457e090600090a35050565b6001600160a01b0384166105b85760405163e602df0560e01b8152600060048201526024016103a1565b6001600160a01b0383166105e257604051634a1406b160e11b8152600060048201526024016103a1565b6001600160a01b038085166000908152600160209081526040808320938716835292905220829055801561043e57826001600160a01b0316846001600160a01b03167f8c5be1e5ebec7d5bd14f71427d1e84f3dd0314c0f7b2291e5b200ac8c7c3b9258460405161065591815260200190565b60405180910390a350505050565b6001600160a01b03831661068e5780600260008282546106839190610905565b909155506107009050565b6001600160a01b038316600090815260208190526040902054818110156106e15760405163391434e360e21b81526001600160a01b038516600482015260248101829052604481018390526064016103a1565b6001600160a01b03841660009081526020819052604090209082900390555b6001600160a01b03821661071c5760028054829003905561073b565b6001600160a01b03821660009081526020819052604090208054820190555b816001600160a01b0316836001600160a01b03167fddf252ad1be2c89b69c2b068fc378daa952ba7f163c4a11628f55a4df523b3ef8360405161078091815260200190565b60405180910390a3505050565b600060208083528351808285015260005b818110156107ba5785810183015185820160400152820161079e565b506000604082860101526040601f19601f8301168501019250505092915050565b80356001600160a01b03811681146107f257600080fd5b919050565b6000806040838503121561080a57600080fd5b610813836107db565b946020939093013593505050565b60008060006060848603121561083657600080fd5b61083f846107db565b925061084d602085016107db565b9150604084013590509250925092565b60006020828403121561086f57600080fd5b5035919050565b60006020828403121561088857600080fd5b610891826107db565b9392505050565b600080604083850312156108ab57600080fd5b6108b4836107db565b91506108c2602084016107db565b90509250929050565b600181811c908216806108df57607f821691505b6020821081036108ff57634e487b7160e01b600052602260045260246000fd5b50919050565b808201808211156102f557634e487b7160e01b600052601160045260246000fdfea2646970667358221220651848834a5fa5ba56b8af296b2155372b938b406ef27534a7252a80f86f3a4764736f6c63430008140033a264697066735822122008fa79dc9c7b17c074de010d20f9560afdebcbf36e8620de17bd947d0e13f4c864736f6c63430008140033",
  "linkReferences": {},
  "deployedLinkReferences": {}
}