{
  "_format": "hh-sol-artifact-1",
  "contractName": "OTCEscrow",
  "sourceName": "contracts/OTCEscrow.sol",
  "abi": [
    {
      "inputs": [
        {
          "internalType": "address",
          "name": "_otcMarket",
          "type": "address"
        }
      ],
      "stateMutability": "nonpayable",
      "type": "constructor"
    },
    {
      "inputs": [
        {
          "internalType": "address",
          "name": "owner",
          "type": "address"
        }
      ],
      "name": "OwnableInvalidOwner",
      "type": "error"
    },
    {
      "inputs": [
        {
          "internalType": "address",
          "name": "account",
          "type": "address"
        }
      ],
      "name": "OwnableUnauthorizedAccount",
      "type": "error"
    },
    {
      "inputs": [],
      "name": "ReentrancyGuardReentrantCall",
      "type": "error"
    },
    {
      "inputs": [
        {
          "internalType": "address",
          "name": "token",
          "type": "address"
        }
      ],
      "name": "SafeERC20FailedOperation",
      "type": "error"
    },
    {
      "anonymous": false,
      "inputs": [
        {
          "indexed": true,
          "internalType": "uint256",
          "name": "orderId",
          "type": "uint256"
        }
      ],
      "name": "EscrowCompleted",
      "type": "event"
    },
    {
      "anonymous": false,
      "inputs": [
        {
          "indexed": true,
          "internalType": "uint256",
          "name": "orderId",
          "type": "uint256"
        },
        {
          "indexed": true,
          "internalType": "address",
          "name": "maker",
          "type": "address"
        },
        {
          "indexed": true,
          "internalType": "address",
          "name": "taker",
          "type": "address"
        }
      ],
      "name": "EscrowCreated",
      "type": "event"
    },
    {
      "anonymous": false,
      "inputs": [
        {
          "indexed": true,
          "internalType": "uint256",
          "name": "orderId",
          "type": "uint256"
        }
      ],
      "name": "EscrowDisputed",
      "type": "event"
    },
    {
      "anonymous": false,
      "inputs": [
        {
          "indexed": true,
          "internalType": "uint256",
          "name": "orderId",
          "type": "uint256"
        }
      ],
      "name": "EscrowLocked",
      "type": "event"
    },
    {
      "anonymous": false,
      "inputs": [
        {
          "indexed": true,
          "internalType": "uint256",
          "name": "orderId",
          "type": "uint256"
        }
      ],
      "name": "EscrowRefunded",
      "type": "event"
    },
    {
      "anonymous": false,
      "inputs": [
        {
          "indexed": true,
          "internalType": "address",
          "name": "previousOwner",
          "type": "address"
        },
        {
          "indexed": true,
          "internalType": "address",
          "name": "newOwner",
          "type": "address"
        }
      ],
      "name": "OwnershipTransferred",
      "type": "event"
    },
    {
      "inputs": [],
      "name": "DISPUTE_TIMEOUT",
      "outputs": [
        {
          "internalType": "uint256",
          "name": "",
          "type": "uint256"
        }
      ],
      "stateMutability": "view",
      "type": "function"
    },
    {
      "inputs": [
        {
          "internalType": "uint256",
          "name": "_orderId",
          "type": "uint256"
        }
      ],
      "name": "completeEscrow",
      "outputs": [],
      "stateMutability": "payable",
      "type": "function"
    },
    {
      "inputs": [
        {
          "internalType": "uint256",
          "name": "_orderId",
          "type": "uint256"
        }
      ],
      "name": "createEscrow",
      "outputs": [],
      "stateMutability": "nonpayable",
      "type": "function"
    },
    {
      "inputs": [
        {
          "internalType": "uint256",
          "name": "_orderId",
          "type": "uint256"
        }
      ],
      "name": "disputeEscrow",
      "outputs": [],
      "stateMutability": "nonpayable",
      "type": "function"
    },
    {
      "inputs": [
        {
          "internalType": "uint256",
          "name": "",
          "type": "uint256"
        }
      ],
      "name": "escrows",
      "outputs": [
        {
          "internalType": "uint256",
          "name": "orderId",
          "type": "uint256"
        },
        {
          "internalType": "address",
          "name": "maker",
          "type": "address"
        },
        {
          "internalType": "address",
          "name": "taker",
          "type": "address"
        },
        {
          "internalType": "address",
          "name": "tokenToSell",
          "type": "address"
        },
        {
          "internalType": "address",
          "name": "tokenToBuy",
          "type": "address"
        },
        {
          "internalType": "uint256",
          "name": "amountToSell",
          "type": "uint256"
        },
        {
          "internalType": "uint256",
          "name": "amountToBuy",
          "type": "uint256"
        },
        {
          "internalType": "enum OTCEscrow.EscrowStatus",
          "name": "status",
          "type": "uint8"
        },
        {
          "internalType": "uint256",
          "name": "createdAt",
          "type": "uint256"
        },
        {
          "internalType": "uint256",
          "name": "completedAt",
          "type": "uint256"
        }
      ],
      "stateMutability": "view",
      "type": "function"
    },
    {
      "inputs": [
        {
          "internalType": "uint256",
          "name": "_orderId",
          "type": "uint256"
        }
      ],
      "name": "getEscrow",
      "outputs": [
        {
          "components": [
            {
              "internalType": "uint256",
              "name": "orderId",
              "type": "uint256"
            },
            {
              "internalType": "address",
              "name": "maker",
              "type": "address"
            },
            {
              "internalType": "address",
              "name": "taker",
              "type": "address"
            },
            {
              "internalType": "address",
              "name": "tokenToSell",
              "type": "address"
            },
            {
              "internalType": "address",
              "name": "tokenToBuy",
              "type": "address"
            },
            {
              "internalType": "uint256",
              "name": "amountToSell",
              "type": "uint256"
            },
            {
              "internalType": "uint256",
              "name": "amountToBuy",
              "type": "uint256"
            },
            {
              "internalType": "enum OTCEscrow.EscrowStatus",
              "name": "status",
              "type": "uint8"
            },
            {
              "internalType": "uint256",
              "name": "createdAt",
              "type": "uint256"
            },
            {
              "internalType": "uint256",
              "name": "completedAt",
              "type": "uint256"
            }
          ],
          "internalType": "struct OTCEscrow.Escrow",
          "name": "",
          "type": "tuple"
        }
      ],
      "stateMutability": "view",
      "type": "function"
    },
    {
      "inputs": [
        {
          "internalType": "address",
          "name": "_maker",
          "type": "address"
        }
      ],
      "name": "getMakerEscrows",
      "outputs": [
        {
          "components": [
            {
              "internalType": "uint256",
              "name": "orderId",
              "type": "uint256"
            },
            {
              "internalType": "address",
              "name": "maker",
              "type": "address"
            },
            {
              "internalType": "address",
              "name": "taker",
              "type": "address"
            },
            {
              "internalType": "address",
              "name": "tokenToSell",
              "type": "address"
            },
            {
              "internalType": "address",
              "name": "tokenToBuy",
              "type": "address"
            },
            {
              "internalType": "uint256",
              "name": "amountToSell",
              "type": "uint256"
            },
            {
              "internalType": "uint256",
              "name": "amountToBuy",
              "type": "uint256"
            },
            {
              "internalType": "enum OTCEscrow.EscrowStatus",
              "name": "status",
              "type": "uint8"
            },
            {
              "internalType": "uint256",
              "name": "createdAt",
              "type": "uint256"
            },
            {
              "internalType": "uint256",
              "name": "completedAt",
              "type": "uint256"
            }
          ],
          "internalType": "struct OTCEscrow.Escrow[]",
          "name": "",
          "type": "tuple[]"
        }
      ],
      "stateMutability": "view",
      "type": "function"
    },
    {
      "inputs": [
        {
          "internalType": "address",
          "name": "_taker",
          "type": "address"
        }
      ],
      "name": "getTakerEscrows",
      "outputs": [
        {
          "components": [
            {
              "internalType": "uint256",
              "name": "orderId",
              "type": "uint256"
            },
            {
              "internalType": "address",
              "name": "maker",
              "type": "address"
            },
            {
              "internalType": "address",
              "name": "taker",
              "type": "address"
            },
            {
              "internalType": "address",
              "name": "tokenToSell",
              "type": "address"
            },
            {
              "internalType": "address",
              "name": "tokenToBuy",
              "type": "address"
            },
            {
              "internalType": "uint256",
              "name": "amountToSell",
              "type": "uint256"
            },
            {
              "internalType": "uint256",
              "name": "amountToBuy",
              "type": "uint256"
            },
            {
              "internalType": "enum OTCEscrow.EscrowStatus",
              "name": "status",
              "type": "uint8"
            },
            {
              "internalType": "uint256",
              "name": "createdAt",
              "type": "uint256"
            },
            {
              "internalType": "uint256",
              "name": "completedAt",
              "type": "uint256"
            }
          ],
          "internalType": "struct OTCEscrow.Escrow[]",
          "name": "",
          "type": "tuple[]"
        }
      ],
      "stateMutability": "view",
      "type": "function"
    },
    {
      "inputs": [
        {
          "internalType": "uint256",
          "name": "_orderId",
          "type": "uint256"
        }
      ],
      "name": "lockEscrow",
      "outputs": [],
      "stateMutability": "payable",
      "type": "function"
    },
    {
      "inputs": [
        {
          "internalType": "address",
          "name": "",
          "type": "address"
        },
        {
          "internalType": "uint256",
          "name": "",
          "type": "uint256"
        }
      ],
      "name": "makerEscrows",
      "outputs": [
        {
          "internalType": "uint256",
          "name": "orderId",
          "type": "uint256"
        },
        {
          "internalType": "address",
          "name": "maker",
          "type": "address"
        },
        {
          "internalType": "address",
          "name": "taker",
          "type": "address"
        },
        {
          "internalType": "address",
          "name": "tokenToSell",
          "type": "address"
        },
        {
          "internalType": "address",
          "name": "tokenToBuy",
          "type": "address"
        },
        {
          "internalType": "uint256",
          "name": "amountToSell",
          "type": "uint256"
        },
        {
          "internalType": "uint256",
          "name": "amountToBuy",
          "type": "uint256"
        },
        {
          "internalType": "enum OTCEscrow.EscrowStatus",
          "name": "status",
          "type": "uint8"
        },
        {
          "internalType": "uint256",
          "name": "createdAt",
          "type": "uint256"
        },
        {
          "internalType": "uint256",
          "name": "completedAt",
          "type": "uint256"
        }
      ],
      "stateMutability": "view",
      "type": "function"
    },
    {
      "inputs": [
        {
          "internalType": "address",
          "name": "",
          "type": "address"
        },
        {
          "internalType": "uint256",
          "name": "",
          "type": "uint256"
        }
      ],
      "name": "makerOrderIds",
      "outputs": [
        {
          "internalType": "uint256",
          "name": "",
          "type": "uint256"
        }
      ],
      "stateMutability": "view",
      "type": "function"
    },
    {
      "inputs": [],
      "name": "otcMarket",
      "outputs": [
        {
          "internalType": "contract OTCMarket",
          "name": "",
          "type": "address"
        }
      ],
      "stateMutability": "view",
      "type": "function"
    },
    {
      "inputs": [],
      "name": "owner",
      "outputs": [
        {
          "internalType": "address",
          "name": "",
          "type": "address"
        }
      ],
      "stateMutability": "view",
      "type": "function"
    },
    {
      "inputs": [
        {
          "internalType": "uint256",
          "name": "_orderId",
          "type": "uint256"
        }
      ],
      "name": "refundEscrow",
      "outputs": [],
      "stateMutability": "nonpayable",
      "type": "function"
    },
    {
      "inputs": [],
      "name": "renounceOwnership",
      "outputs": [],
      "stateMutability": "nonpayable",
      "type": "function"
    },
    {
      "inputs": [
        {
          "internalType": "address",
          "name": "",
          "type": "address"
        },
        {
          "internalType": "uint256",
          "name": "",
          "type": "uint256"
        }
      ],
      "name": "takerEscrows",
      "outputs": [
        {
          "internalType": "uint256",
          "name": "orderId",
          "type": "uint256"
        },
        {
          "internalType": "address",
          "name": "maker",
          "type": "address"
        },
        {
          "internalType": "address",
          "name": "taker",
          "type": "address"
        },
        {
          "internalType": "address",
          "name": "tokenToSell",
          "type": "address"
        },
        {
          "internalType": "address",
          "name": "tokenToBuy",
          "type": "address"
        },
        {
          "internalType": "uint256",
          "name": "amountToSell",
          "type": "uint256"
        },
        {
          "internalType": "uint256",
          "name": "amountToBuy",
          "type": "uint256"
        },
        {
          "internalType": "enum OTCEscrow.EscrowStatus",
          "name": "status",
          "type": "uint8"
        },
        {
          "internalType": "uint256",
          "name": "createdAt",
          "type": "uint256"
        },
        {
          "internalType": "uint256",
          "name": "completedAt",
          "type": "uint256"
        }
      ],
      "stateMutability": "view",
      "type": "function"
    },
    {
      "inputs": [
        {
          "internalType": "address",
          "name": "",
          "type": "address"
        },
        {
          "internalType": "uint256",
          "name": "",
          "type": "uint256"
        }
      ],
      "name": "takerOrderIds",
      "outputs": [
        {
          "internalType": "uint256",
          "name": "",
          "type": "uint256"
        }
      ],
      "stateMutability": "view",
      "type": "function"
    },
    {
      "inputs": [
        {
          "internalType": "address",
          "name": "newOwner",
          "type": "address"
        }
      ],
      "name": "transferOwnership",
      "outputs": [],
      "stateMutability": "nonpayable",
      "type": "function"
    }
  ],
  "bytecode": "0x60806040523480156200001157600080fd5b506040516200204b3803806200204b83398101604081905262000034916200013d565b600160005533806200006157604051631e4fbdf760e01b8152600060048201526024015b60405180910390fd5b6200006c81620000eb565b506001600160a01b038116620000c55760405162461bcd60e51b815260206004820152601a60248201527f496e76616c6964204f5443206d61726b65742061646472657373000000000000604482015260640162000058565b600280546001600160a01b0319166001600160a01b03929092169190911790556200016f565b600180546001600160a01b038381166001600160a01b0319831681179093556040519116919082907f8be0079c531659141344cd1fd0a4f28419497f9722a3daafe3b4186f6b6457e090600090a35050565b6000602082840312156200015057600080fd5b81516001600160a01b03811681146200016857600080fd5b9392505050565b611ecc806200017f6000396000f3fe6080604052600436106101095760003560e01c80638e4928af11610095578063df3e0a1d11610064578063df3e0a1d146103b3578063f1473cb7146103c6578063f2fde38b146103e6578063fc30321514610406578063fd2734d71461049057600080fd5b80638e4928af146102d8578063b563153c146102eb578063bb182eb51461030b578063d4447ad61461039357600080fd5b8063486265c6116100dc578063486265c61461022d578063715018a6146102445780637d19e596146102595780638da2c873146102865780638da5cb5b146102a657600080fd5b8063012f52ee1461010e57806328d4dd6d146101b0578063324a1955146101de578063356f9dfd1461020b575b600080fd5b34801561011a57600080fd5b50610191610129366004611ac7565b6003602081905260009182526040909120805460018201546002830154938301546004840154600585015460068601546007870154600888015460099098015496986001600160a01b03968716989087169795871696909416949293919260ff90911691908a565b6040516101a79a99989796959493929190611b18565b60405180910390f35b3480156101bc57600080fd5b506101d06101cb366004611b91565b6104b0565b6040519081526020016101a7565b3480156101ea57600080fd5b506101fe6101f9366004611bbd565b6104e1565b6040516101a79190611c8f565b34801561021757600080fd5b5061022b610226366004611ac7565b6106db565b005b34801561023957600080fd5b506101d06201518081565b34801561025057600080fd5b5061022b610941565b34801561026557600080fd5b50610279610274366004611ac7565b610955565b6040516101a79190611cde565b34801561029257600080fd5b5061022b6102a1366004611ac7565b610a1c565b3480156102b257600080fd5b506001546001600160a01b03165b6040516001600160a01b0390911681526020016101a7565b61022b6102e6366004611ac7565b610fe6565b3480156102f757600080fd5b5061022b610306366004611ac7565b61119d565b34801561031757600080fd5b50610191610326366004611b91565b60056020818152600093845260408085209091529183529120805460018201546002830154600384015460048501549585015460068601546007870154600888015460099098015496986001600160a01b0396871698958716979487169616949293919260ff909116918a565b34801561039f57600080fd5b506101d06103ae366004611b91565b6112e3565b61022b6103c1366004611ac7565b6112ff565b3480156103d257600080fd5b506002546102c0906001600160a01b031681565b3480156103f257600080fd5b5061022b610401366004611bbd565b61168a565b34801561041257600080fd5b50610191610421366004611b91565b60046020818152600093845260408085209091529183529120805460018201546002830154600384015494840154600585015460068601546007870154600888015460099098015496986001600160a01b03968716989587169790871696909416949293919260ff909116918a565b34801561049c57600080fd5b506101fe6104ab366004611bbd565b6116c5565b600760205281600052604060002081815481106104cc57600080fd5b90600052602060002001600091509150505481565b6001600160a01b038116600090815260076020908152604080832080548251818502810185019093528083526060949383018282801561054057602002820191906000526020600020905b81548152602001906001019080831161052c575b505050505090506000815167ffffffffffffffff81111561056357610563611cf3565b60405190808252806020026020018201604052801561059c57816020015b610589611a74565b8152602001906001900390816105815790505b50905060005b82518110156106d3576001600160a01b038516600090815260056020526040812084519091908590849081106105da576105da611d09565b60209081029190910181015182528181019290925260409081016000208151610140810183528154815260018201546001600160a01b039081169482019490945260028201548416928101929092526003810154831660608301526004808201549093166080830152600581015460a0830152600681015460c083015260078101549192909160e084019160ff9091169081111561067a5761067a611ae0565b600481111561068b5761068b611ae0565b8152602001600882015481526020016009820154815250508282815181106106b5576106b5611d09565b602002602001018190525080806106cb90611d35565b9150506105a2565b509392505050565b6106e36118b7565b60008181526003602052604090206001600782015460ff16600481111561070c5761070c611ae0565b148061073057506004600782015460ff16600481111561072e5761072e611ae0565b145b6107555760405162461bcd60e51b815260040161074c90611d4e565b60405180910390fd5b6004600782015460ff16600481111561077057610770611ae0565b14801561078f575062015180816008015461078b9190611d7d565b4210155b806107a457506001546001600160a01b031633145b6107e85760405162461bcd60e51b8152602060048201526015602482015274139bdd08185b1b1bddd959081d1bc81c99599d5b99605a1b604482015260640161074c565b60038101546001600160a01b031661087957600181015460058201546040516000926001600160a01b031691908381818185875af1925050503d806000811461084d576040519150601f19603f3d011682016040523d82523d6000602084013e610852565b606091505b50509050806108735760405162461bcd60e51b815260040161074c90611d90565b506108a0565b6001810154600582015460038301546108a0926001600160a01b03918216929116906118e1565b60078181018054600360ff19918216811790925560018401546001600160a01b03908116600090815260046020908152604080832089845282528083208701805486168717905560028801549093168252600581528282208883529052818120909401805490921690921790555183917f2babb5cd458b6d41108d6d793a75e29ca524e7caa20e2da6c994462010920a7291a25061093e6001600055565b50565b610949611945565b6109536000611972565b565b61095d611a74565b6000828152600360208181526040928390208351610140810185528154815260018201546001600160a01b0390811693820193909352600282015483169481019490945291820154811660608401526004808301549091166080840152600582015460a0840152600682015460c0840152600782015460e084019160ff909116908111156109ed576109ed611ae0565b60048111156109fe576109fe611ae0565b81526008820154602082015260099091015460409091015292915050565b610a246118b7565b60025460405163d09ef24160e01b8152600481018390526000916001600160a01b03169063d09ef2419060240161010060405180830381865afa158015610a6f573d6000803e3d6000fd5b505050506040513d601f19601f82011682018060405250810190610a939190611ddc565b905060008160c001516002811115610aad57610aad611ae0565b14610aed5760405162461bcd60e51b815260206004820152601060248201526f4f72646572206e6f742061637469766560801b604482015260640161074c565b60208101516001600160a01b03163303610b415760405162461bcd60e51b815260206004820152601560248201527426b0b5b2b91031b0b73737ba103132903a30b5b2b960591b604482015260640161074c565b600060405180610140016040528084815260200183602001516001600160a01b03168152602001336001600160a01b0316815260200183604001516001600160a01b0316815260200183606001516001600160a01b03168152602001836080015181526020018360a00151815260200160006004811115610bc457610bc4611ae0565b815242602080830191909152600060409283018190528681526003808352908390208451815591840151600180840180546001600160a01b03199081166001600160a01b039485161790915594860151600285018054871691841691909117905560608601519284018054861693831693909317909255608085015160048085018054909616919092161790935560a0840151600583015560c0840151600683015560e0840151600783018054959650869593949193909260ff19909116918490811115610c9457610c94611ae0565b02179055506101008201516008820155610120909101516009909101556020808301516001600160a01b039081166000908152600480845260408083208884528552918290208551815593850151600180860180549286166001600160a01b0319938416179055928601516002860180549186169183169190911790556060860151600386018054918616918316919091179055608086015185830180549190951691161790925560a0840151600584015560c0840151600684015560e08401516007840180548695949293919260ff1990911691908490811115610d7b57610d7b611ae0565b02179055506101008201516008820155610120909101516009909101553360009081526005602081815260408084208785528252928390208451815590840151600180830180546001600160a01b03199081166001600160a01b039485161790915594860151600284018054871691841691909117905560608601516003840180548716918416919091179055608086015160048085018054909716919093161790945560a08501519282019290925560c0840151600682015560e0840151600782018054869593949293919260ff1990911691908490811115610e6157610e61611ae0565b0217905550610100820151600882015561012090910151600990910155336000908152600760205260408120815b8154811015610ed65785828281548110610eab57610eab611d09565b906000526020600020015403610ec45760019250610ed6565b80610ece81611d35565b915050610e8f565b5081610eff57336000908152600760209081526040822080546001810182559083529120018590555b6020808501516001600160a01b03166000908152600690915260408120815b8154811015610f655787828281548110610f3a57610f3a611d09565b906000526020600020015403610f535760019250610f65565b80610f5d81611d35565b915050610f1e565b5081610f9a576020808701516001600160a01b0316600090815260068252604081208054600181018255908252919020018790555b602086015160405133916001600160a01b03169089907fcc50a4e95294d36f3e612eabd37417678a3c52eb30d18039a0b2ed5cff4cfc0f90600090a450505050505061093e6001600055565b610fee6118b7565b600081815260036020526040902060018101546001600160a01b031633146110445760405162461bcd60e51b81526020600482015260096024820152682737ba1036b0b5b2b960b91b604482015260640161074c565b6000600782015460ff16600481111561105f5761105f611ae0565b1461107c5760405162461bcd60e51b815260040161074c90611d4e565b60038101546001600160a01b03166110dd57806005015434146110d85760405162461bcd60e51b8152602060048201526014602482015273125b98dbdc9c9958dd0811551208185b5bdd5b9d60621b604482015260640161074c565b611100565b60058101546003820154611100916001600160a01b0390911690339030906119c4565b60078181018054600160ff199182168117909255818401546001600160a01b03908116600090815260046020908152604080832089845282528083208701805486168717905560028801549093168252600581528282208883529052818120909401805490921690921790555183917f3f1af70a9eb954272c173cdd855f3eeca90469e9cfb7b48f44e46ae8d174e27291a25061093e6001600055565b600081815260036020526040902060018101546001600160a01b03163314806111d2575060028101546001600160a01b031633145b6112165760405162461bcd60e51b8152602060048201526015602482015274139bdd081d1c985919481c185c9d1a58da5c185b9d605a1b604482015260640161074c565b6001600782015460ff16600481111561123157611231611ae0565b1461124e5760405162461bcd60e51b815260040161074c90611d4e565b60078181018054600460ff19918216811790925560018401546001600160a01b0390811660009081526020848152604080832089845282528083208701805486168717905560028801549093168252600581528282208883529052818120909401805490921690921790555183917f7ce7831fed9a800b1aa5e7ca21034bf7b95efc31a196459012cf8b8eb42b7dac91a25050565b600660205281600052604060002081815481106104cc57600080fd5b6113076118b7565b600081815260036020526040902060028101546001600160a01b0316331461135d5760405162461bcd60e51b81526020600482015260096024820152682737ba103a30b5b2b960b91b604482015260640161074c565b6001600782015460ff16600481111561137857611378611ae0565b146113955760405162461bcd60e51b815260040161074c90611d4e565b60048101546001600160a01b031661147057806006015434146113f15760405162461bcd60e51b8152602060048201526014602482015273125b98dbdc9c9958dd0811551208185b5bdd5b9d60621b604482015260640161074c565b600181015460068201546040516000926001600160a01b031691908381818185875af1925050503d8060008114611444576040519150601f19603f3d011682016040523d82523d6000602084013e611449565b606091505b505090508061146a5760405162461bcd60e51b815260040161074c90611d90565b5061149a565b60018101546006820154600483015461149a926001600160a01b03918216923392909116906119c4565b60038101546001600160a01b031661152b57600281015460058201546040516000926001600160a01b031691908381818185875af1925050503d80600081146114ff576040519150601f19603f3d011682016040523d82523d6000602084013e611504565b606091505b50509050806115255760405162461bcd60e51b815260040161074c90611d90565b50611552565b600281015460058201546003830154611552926001600160a01b03918216929116906118e1565b6007818101805460ff1990811660029081179092554260098086018290556001860180546001600160a01b0390811660009081526004602081815260408084208d855282528084208b0180548a168b1790559454841683528181528483208c845281528483208601879055888b0180548516845260058083528685208e86528352868520909b0180549099168a179098559654831682529786528281208a8252909552938190209091019190915591548454925163b6adaaff60e01b815293840192909252169063b6adaaff90602401600060405180830381600087803b15801561163c57600080fd5b505af1158015611650573d6000803e3d6000fd5b50506040518492507f9285bd636dda01bef18996aa38303bb742f6c67a6941646dddb17630cb492c2e9150600090a25061093e6001600055565b611692611945565b6001600160a01b0381166116bc57604051631e4fbdf760e01b81526000600482015260240161074c565b61093e81611972565b6001600160a01b038116600090815260066020908152604080832080548251818502810185019093528083526060949383018282801561172457602002820191906000526020600020905b815481526020019060010190808311611710575b505050505090506000815167ffffffffffffffff81111561174757611747611cf3565b60405190808252806020026020018201604052801561178057816020015b61176d611a74565b8152602001906001900390816117655790505b50905060005b82518110156106d3576001600160a01b038516600090815260046020526040812084519091908590849081106117be576117be611d09565b60209081029190910181015182528181019290925260409081016000208151610140810183528154815260018201546001600160a01b039081169482019490945260028201548416928101929092526003810154831660608301526004808201549093166080830152600581015460a0830152600681015460c083015260078101549192909160e084019160ff9091169081111561185e5761185e611ae0565b600481111561186f5761186f611ae0565b81526020016008820154815260200160098201548152505082828151811061189957611899611d09565b602002602001018190525080806118af90611d35565b915050611786565b6002600054036118da57604051633ee5aeb560e01b815260040160405180910390fd5b6002600055565b6040516001600160a01b0383811660248301526044820183905261194091859182169063a9059cbb906064015b604051602081830303815290604052915060e01b6020820180516001600160e01b038381831617835250505050611a03565b505050565b6001546001600160a01b031633146109535760405163118cdaa760e01b815233600482015260240161074c565b600180546001600160a01b038381166001600160a01b0319831681179093556040519116919082907f8be0079c531659141344cd1fd0a4f28419497f9722a3daafe3b4186f6b6457e090600090a35050565b6040516001600160a01b0384811660248301528381166044830152606482018390526119fd9186918216906323b872dd9060840161190e565b50505050565b600080602060008451602086016000885af180611a26576040513d6000823e3d81fd5b50506000513d91508115611a3e578060011415611a4b565b6001600160a01b0384163b155b156119fd57604051635274afe760e01b81526001600160a01b038516600482015260240161074c565b6040805161014081018252600080825260208201819052918101829052606081018290526080810182905260a0810182905260c081018290529060e0820190815260200160008152602001600081525090565b600060208284031215611ad957600080fd5b5035919050565b634e487b7160e01b600052602160045260246000fd5b60058110611b1457634e487b7160e01b600052602160045260246000fd5b9052565b8a81526001600160a01b038a81166020830152898116604083015288811660608301528716608082015260a0810186905260c081018590526101408101611b6260e0830186611af6565b610100820193909352610120015298975050505050505050565b6001600160a01b038116811461093e57600080fd5b60008060408385031215611ba457600080fd5b8235611baf81611b7c565b946020939093013593505050565b600060208284031215611bcf57600080fd5b8135611bda81611b7c565b9392505050565b805182526020810151611bff60208401826001600160a01b03169052565b506040810151611c1a60408401826001600160a01b03169052565b506060810151611c3560608401826001600160a01b03169052565b506080810151611c5060808401826001600160a01b03169052565b5060a081015160a083015260c081015160c083015260e0810151611c7760e0840182611af6565b50610100818101519083015261012090810151910152565b6020808252825182820181905260009190848201906040850190845b81811015611cd257611cbe838551611be1565b928401926101409290920191600101611cab565b50909695505050505050565b6101408101611ced8284611be1565b92915050565b634e487b7160e01b600052604160045260246000fd5b634e487b7160e01b600052603260045260246000fd5b634e487b7160e01b600052601160045260246000fd5b600060018201611d4757611d47611d1f565b5060010190565b602080825260159082015274496e76616c696420657363726f772073746174757360581b604082015260600190565b80820180821115611ced57611ced611d1f565b602080825260139082015272115512081d1c985b9cd9995c8819985a5b1959606a1b604082015260600190565b8051611dc881611b7c565b919050565b805160038110611dc857600080fd5b6000610100808385031215611df057600080fd5b6040519081019067ffffffffffffffff82118183101715611e2157634e487b7160e01b600052604160045260246000fd5b8160405283518152611e3560208501611dbd565b6020820152611e4660408501611dbd565b6040820152611e5760608501611dbd565b60608201526080840151608082015260a084015160a0820152611e7c60c08501611dcd565b60c082015260e084015160e082015280925050509291505056fea2646970667358221220c6630e1d2cd232333f826aeae3044cf62545b3a37e7cb017eeb012df406696a864736f6c63430008140033",
  "linkReferences": {},
  "deployedLinkReferences": {}
}