{
  "_format": "hh-sol-artifact-1",
  "contractName": "OTCEscrow",
  "sourceName": "contracts/OTCEscrow.sol",
  "abi": [
    {
      "inputs": [
        {
          "internalType": "address",
          "name": "_otcMarket",
          "type": "address"
        }
      ],
      "stateMutability": "nonpayable",
      "type": "constructor"
    },
    {
      "inputs": [
        {
          "internalType": "address",
          "name": "owner",
          "type": "address"
        }
      ],
      "name": "OwnableInvalidOwner",
      "type": "error"
    },
    {
      "inputs": [
        {
          "internalType": "address",
          "name": "account",
          "type": "address"
        }
      ],
      "name": "OwnableUnauthorizedAccount",
      "type": "error"
    },
    {
      "inputs": [],
      "name": "ReentrancyGuardReentrantCall",
      "type": "error"
    },
    {
      "inputs": [
        {
          "internalType": "address",
          "name": "token",
          "type": "address"
        }
      ],
      "name": "SafeERC20FailedOperation",
      "type": "error"
    },
    {
      "anonymous": false,
      "inputs": [
        {
          "indexed": true,
          "internalType": "uint256",
          "name": "orderId",
          "type": "uint256"
        }
      ],
      "name": "EscrowCompleted",
      "type": "event"
    },
    {
      "anonymous": false,
      "inputs": [
        {
          "indexed": true,
          "internalType": "uint256",
          "name": "orderId",
          "type": "uint256"
        },
        {
          "indexed": true,
          "internalType": "address",
          "name": "maker",
          "type": "address"
        },
        {
          "indexed": true,
          "internalType": "address",
          "name": "taker",
          "type": "address"
        }
      ],
      "name": "EscrowCreated",
      "type": "event"
    },
    {
      "anonymous": false,
      "inputs": [
        {
          "indexed": true,
          "internalType": "uint256",
          "name": "orderId",
          "type": "uint256"
        }
      ],
      "name": "EscrowDisputed",
      "type": "event"
    },
    {
      "anonymous": false,
      "inputs": [
        {
          "indexed": true,
          "internalType": "uint256",
          "name": "orderId",
          "type": "uint256"
        }
      ],
      "name": "EscrowLocked",
      "type": "event"
    },
    {
      "anonymous": false,
      "inputs": [
        {
          "indexed": true,
          "internalType": "uint256",
          "name": "orderId",
          "type": "uint256"
        }
      ],
      "name": "EscrowRefunded",
      "type": "event"
    },
    {
      "anonymous": false,
      "inputs": [
        {
          "indexed": true,
          "internalType": "address",
          "name": "previousOwner",
          "type": "address"
        },
        {
          "indexed": true,
          "internalType": "address",
          "name": "newOwner",
          "type": "address"
        }
      ],
      "name": "OwnershipTransferred",
      "type": "event"
    },
    {
      "inputs": [],
      "name": "DISPUTE_TIMEOUT",
      "outputs": [
        {
          "internalType": "uint256",
          "name": "",
          "type": "uint256"
        }
      ],
      "stateMutability": "view",
      "type": "function"
    },
    {
      "inputs": [
        {
          "internalType": "uint256",
          "name": "",
          "type": "uint256"
        }
      ],
      "name": "allEscrowOrderIds",
      "outputs": [
        {
          "internalType": "uint256",
          "name": "",
          "type": "uint256"
        }
      ],
      "stateMutability": "view",
      "type": "function"
    },
    {
      "inputs": [
        {
          "internalType": "uint256",
          "name": "_orderId",
          "type": "uint256"
        }
      ],
      "name": "completeEscrow",
      "outputs": [],
      "stateMutability": "payable",
      "type": "function"
    },
    {
      "inputs": [
        {
          "internalType": "uint256",
          "name": "_orderId",
          "type": "uint256"
        }
      ],
      "name": "createEscrow",
      "outputs": [],
      "stateMutability": "nonpayable",
      "type": "function"
    },
    {
      "inputs": [
        {
          "internalType": "uint256",
          "name": "_orderId",
          "type": "uint256"
        }
      ],
      "name": "disputeEscrow",
      "outputs": [],
      "stateMutability": "nonpayable",
      "type": "function"
    },
    {
      "inputs": [
        {
          "internalType": "uint256",
          "name": "",
          "type": "uint256"
        }
      ],
      "name": "escrows",
      "outputs": [
        {
          "internalType": "uint256",
          "name": "orderId",
          "type": "uint256"
        },
        {
          "internalType": "address",
          "name": "maker",
          "type": "address"
        },
        {
          "internalType": "address",
          "name": "taker",
          "type": "address"
        },
        {
          "internalType": "address",
          "name": "tokenToSell",
          "type": "address"
        },
        {
          "internalType": "address",
          "name": "tokenToBuy",
          "type": "address"
        },
        {
          "internalType": "uint256",
          "name": "amountToSell",
          "type": "uint256"
        },
        {
          "internalType": "uint256",
          "name": "amountToBuy",
          "type": "uint256"
        },
        {
          "internalType": "enum OTCEscrow.EscrowStatus",
          "name": "status",
          "type": "uint8"
        },
        {
          "internalType": "uint256",
          "name": "createdAt",
          "type": "uint256"
        },
        {
          "internalType": "uint256",
          "name": "completedAt",
          "type": "uint256"
        }
      ],
      "stateMutability": "view",
      "type": "function"
    },
    {
      "inputs": [],
      "name": "getAllEscrows",
      "outputs": [
        {
          "components": [
            {
              "internalType": "uint256",
              "name": "orderId",
              "type": "uint256"
            },
            {
              "internalType": "address",
              "name": "maker",
              "type": "address"
            },
            {
              "internalType": "address",
              "name": "taker",
              "type": "address"
            },
            {
              "internalType": "address",
              "name": "tokenToSell",
              "type": "address"
            },
            {
              "internalType": "address",
              "name": "tokenToBuy",
              "type": "address"
            },
            {
              "internalType": "uint256",
              "name": "amountToSell",
              "type": "uint256"
            },
            {
              "internalType": "uint256",
              "name": "amountToBuy",
              "type": "uint256"
            },
            {
              "internalType": "enum OTCEscrow.EscrowStatus",
              "name": "status",
              "type": "uint8"
            },
            {
              "internalType": "uint256",
              "name": "createdAt",
              "type": "uint256"
            },
            {
              "internalType": "uint256",
              "name": "completedAt",
              "type": "uint256"
            }
          ],
          "internalType": "struct OTCEscrow.Escrow[]",
          "name": "",
          "type": "tuple[]"
        }
      ],
      "stateMutability": "view",
      "type": "function"
    },
    {
      "inputs": [
        {
          "internalType": "uint256",
          "name": "_orderId",
          "type": "uint256"
        }
      ],
      "name": "getEscrow",
      "outputs": [
        {
          "components": [
            {
              "internalType": "uint256",
              "name": "orderId",
              "type": "uint256"
            },
            {
              "internalType": "address",
              "name": "maker",
              "type": "address"
            },
            {
              "internalType": "address",
              "name": "taker",
              "type": "address"
            },
            {
              "internalType": "address",
              "name": "tokenToSell",
              "type": "address"
            },
            {
              "internalType": "address",
              "name": "tokenToBuy",
              "type": "address"
            },
            {
              "internalType": "uint256",
              "name": "amountToSell",
              "type": "uint256"
            },
            {
              "internalType": "uint256",
              "name": "amountToBuy",
              "type": "uint256"
            },
            {
              "internalType": "enum OTCEscrow.EscrowStatus",
              "name": "status",
              "type": "uint8"
            },
            {
              "internalType": "uint256",
              "name": "createdAt",
              "type": "uint256"
            },
            {
              "internalType": "uint256",
              "name": "completedAt",
              "type": "uint256"
            }
          ],
          "internalType": "struct OTCEscrow.Escrow",
          "name": "",
          "type": "tuple"
        }
      ],
      "stateMutability": "view",
      "type": "function"
    },
    {
      "inputs": [
        {
          "internalType": "address",
          "name": "_maker",
          "type": "address"
        }
      ],
      "name": "getMakerEscrows",
      "outputs": [
        {
          "components": [
            {
              "internalType": "uint256",
              "name": "orderId",
              "type": "uint256"
            },
            {
              "internalType": "address",
              "name": "maker",
              "type": "address"
            },
            {
              "internalType": "address",
              "name": "taker",
              "type": "address"
            },
            {
              "internalType": "address",
              "name": "tokenToSell",
              "type": "address"
            },
            {
              "internalType": "address",
              "name": "tokenToBuy",
              "type": "address"
            },
            {
              "internalType": "uint256",
              "name": "amountToSell",
              "type": "uint256"
            },
            {
              "internalType": "uint256",
              "name": "amountToBuy",
              "type": "uint256"
            },
            {
              "internalType": "enum OTCEscrow.EscrowStatus",
              "name": "status",
              "type": "uint8"
            },
            {
              "internalType": "uint256",
              "name": "createdAt",
              "type": "uint256"
            },
            {
              "internalType": "uint256",
              "name": "completedAt",
              "type": "uint256"
            }
          ],
          "internalType": "struct OTCEscrow.Escrow[]",
          "name": "",
          "type": "tuple[]"
        }
      ],
      "stateMutability": "view",
      "type": "function"
    },
    {
      "inputs": [
        {
          "internalType": "address",
          "name": "_taker",
          "type": "address"
        }
      ],
      "name": "getTakerEscrows",
      "outputs": [
        {
          "components": [
            {
              "internalType": "uint256",
              "name": "orderId",
              "type": "uint256"
            },
            {
              "internalType": "address",
              "name": "maker",
              "type": "address"
            },
            {
              "internalType": "address",
              "name": "taker",
              "type": "address"
            },
            {
              "internalType": "address",
              "name": "tokenToSell",
              "type": "address"
            },
            {
              "internalType": "address",
              "name": "tokenToBuy",
              "type": "address"
            },
            {
              "internalType": "uint256",
              "name": "amountToSell",
              "type": "uint256"
            },
            {
              "internalType": "uint256",
              "name": "amountToBuy",
              "type": "uint256"
            },
            {
              "internalType": "enum OTCEscrow.EscrowStatus",
              "name": "status",
              "type": "uint8"
            },
            {
              "internalType": "uint256",
              "name": "createdAt",
              "type": "uint256"
            },
            {
              "internalType": "uint256",
              "name": "completedAt",
              "type": "uint256"
            }
          ],
          "internalType": "struct OTCEscrow.Escrow[]",
          "name": "",
          "type": "tuple[]"
        }
      ],
      "stateMutability": "view",
      "type": "function"
    },
    {
      "inputs": [
        {
          "internalType": "uint256",
          "name": "_orderId",
          "type": "uint256"
        }
      ],
      "name": "lockEscrow",
      "outputs": [],
      "stateMutability": "payable",
      "type": "function"
    },
    {
      "inputs": [
        {
          "internalType": "address",
          "name": "",
          "type": "address"
        },
        {
          "internalType": "uint256",
          "name": "",
          "type": "uint256"
        }
      ],
      "name": "makerEscrows",
      "outputs": [
        {
          "internalType": "uint256",
          "name": "orderId",
          "type": "uint256"
        },
        {
          "internalType": "address",
          "name": "maker",
          "type": "address"
        },
        {
          "internalType": "address",
          "name": "taker",
          "type": "address"
        },
        {
          "internalType": "address",
          "name": "tokenToSell",
          "type": "address"
        },
        {
          "internalType": "address",
          "name": "tokenToBuy",
          "type": "address"
        },
        {
          "internalType": "uint256",
          "name": "amountToSell",
          "type": "uint256"
        },
        {
          "internalType": "uint256",
          "name": "amountToBuy",
          "type": "uint256"
        },
        {
          "internalType": "enum OTCEscrow.EscrowStatus",
          "name": "status",
          "type": "uint8"
        },
        {
          "internalType": "uint256",
          "name": "createdAt",
          "type": "uint256"
        },
        {
          "internalType": "uint256",
          "name": "completedAt",
          "type": "uint256"
        }
      ],
      "stateMutability": "view",
      "type": "function"
    },
    {
      "inputs": [
        {
          "internalType": "address",
          "name": "",
          "type": "address"
        },
        {
          "internalType": "uint256",
          "name": "",
          "type": "uint256"
        }
      ],
      "name": "makerOrderIds",
      "outputs": [
        {
          "internalType": "uint256",
          "name": "",
          "type": "uint256"
        }
      ],
      "stateMutability": "view",
      "type": "function"
    },
    {
      "inputs": [],
      "name": "otcMarket",
      "outputs": [
        {
          "internalType": "contract OTCMarket",
          "name": "",
          "type": "address"
        }
      ],
      "stateMutability": "view",
      "type": "function"
    },
    {
      "inputs": [],
      "name": "owner",
      "outputs": [
        {
          "internalType": "address",
          "name": "",
          "type": "address"
        }
      ],
      "stateMutability": "view",
      "type": "function"
    },
    {
      "inputs": [
        {
          "internalType": "uint256",
          "name": "_orderId",
          "type": "uint256"
        }
      ],
      "name": "refundEscrow",
      "outputs": [],
      "stateMutability": "nonpayable",
      "type": "function"
    },
    {
      "inputs": [],
      "name": "renounceOwnership",
      "outputs": [],
      "stateMutability": "nonpayable",
      "type": "function"
    },
    {
      "inputs": [
        {
          "internalType": "address",
          "name": "",
          "type": "address"
        },
        {
          "internalType": "uint256",
          "name": "",
          "type": "uint256"
        }
      ],
      "name": "takerEscrows",
      "outputs": [
        {
          "internalType": "uint256",
          "name": "orderId",
          "type": "uint256"
        },
        {
          "internalType": "address",
          "name": "maker",
          "type": "address"
        },
        {
          "internalType": "address",
          "name": "taker",
          "type": "address"
        },
        {
          "internalType": "address",
          "name": "tokenToSell",
          "type": "address"
        },
        {
          "internalType": "address",
          "name": "tokenToBuy",
          "type": "address"
        },
        {
          "internalType": "uint256",
          "name": "amountToSell",
          "type": "uint256"
        },
        {
          "internalType": "uint256",
          "name": "amountToBuy",
          "type": "uint256"
        },
        {
          "internalType": "enum OTCEscrow.EscrowStatus",
          "name": "status",
          "type": "uint8"
        },
        {
          "internalType": "uint256",
          "name": "createdAt",
          "type": "uint256"
        },
        {
          "internalType": "uint256",
          "name": "completedAt",
          "type": "uint256"
        }
      ],
      "stateMutability": "view",
      "type": "function"
    },
    {
      "inputs": [
        {
          "internalType": "address",
          "name": "",
          "type": "address"
        },
        {
          "internalType": "uint256",
          "name": "",
          "type": "uint256"
        }
      ],
      "name": "takerOrderIds",
      "outputs": [
        {
          "internalType": "uint256",
          "name": "",
          "type": "uint256"
        }
      ],
      "stateMutability": "view",
      "type": "function"
    },
    {
      "inputs": [
        {
          "internalType": "address",
          "name": "newOwner",
          "type": "address"
        }
      ],
      "name": "transferOwnership",
      "outputs": [],
      "stateMutability": "nonpayable",
      "type": "function"
    }
  ],
  "bytecode": "0x60806040523480156200001157600080fd5b50604051620022733803806200227383398101604081905262000034916200013d565b600160005533806200006157604051631e4fbdf760e01b8152600060048201526024015b60405180910390fd5b6200006c81620000eb565b506001600160a01b038116620000c55760405162461bcd60e51b815260206004820152601a60248201527f496e76616c6964204f5443206d61726b65742061646472657373000000000000604482015260640162000058565b600280546001600160a01b0319166001600160a01b03929092169190911790556200016f565b600180546001600160a01b038381166001600160a01b0319831681179093556040519116919082907f8be0079c531659141344cd1fd0a4f28419497f9722a3daafe3b4186f6b6457e090600090a35050565b6000602082840312156200015057600080fd5b81516001600160a01b03811681146200016857600080fd5b9392505050565b6120f4806200017f6000396000f3fe60806040526004361061011f5760003560e01c80639a6ac36f116100a0578063df3e0a1d11610064578063df3e0a1d146103fe578063f1473cb714610411578063f2fde38b14610431578063fc30321514610451578063fd2734d7146104db57600080fd5b80639a6ac36f146103015780639efd183d14610316578063b563153c14610336578063bb182eb514610356578063d4447ad6146103de57600080fd5b8063715018a6116100e7578063715018a61461025a5780637d19e5961461026f5780638da2c8731461029c5780638da5cb5b146102bc5780638e4928af146102ee57600080fd5b8063012f52ee1461012457806328d4dd6d146101c6578063324a1955146101f4578063356f9dfd14610221578063486265c614610243575b600080fd5b34801561013057600080fd5b506101a761013f366004611cef565b6003602081905260009182526040909120805460018201546002830154938301546004840154600585015460068601546007870154600888015460099098015496986001600160a01b03968716989087169795871696909416949293919260ff90911691908a565b6040516101bd9a99989796959493929190611d40565b60405180910390f35b3480156101d257600080fd5b506101e66101e1366004611db9565b6104fb565b6040519081526020016101bd565b34801561020057600080fd5b5061021461020f366004611de5565b61052c565b6040516101bd9190611eb7565b34801561022d57600080fd5b5061024161023c366004611cef565b610726565b005b34801561024f57600080fd5b506101e66201518081565b34801561026657600080fd5b5061024161098c565b34801561027b57600080fd5b5061028f61028a366004611cef565b6109a0565b6040516101bd9190611f06565b3480156102a857600080fd5b506102416102b7366004611cef565b610a67565b3480156102c857600080fd5b506001546001600160a01b03165b6040516001600160a01b0390911681526020016101bd565b6102416102fc366004611cef565b611065565b34801561030d57600080fd5b5061021461121c565b34801561032257600080fd5b506101e6610331366004611cef565b6113a4565b34801561034257600080fd5b50610241610351366004611cef565b6113c5565b34801561036257600080fd5b506101a7610371366004611db9565b60056020818152600093845260408085209091529183529120805460018201546002830154600384015460048501549585015460068601546007870154600888015460099098015496986001600160a01b0396871698958716979487169616949293919260ff909116918a565b3480156103ea57600080fd5b506101e66103f9366004611db9565b61150b565b61024161040c366004611cef565b611527565b34801561041d57600080fd5b506002546102d6906001600160a01b031681565b34801561043d57600080fd5b5061024161044c366004611de5565b6118b2565b34801561045d57600080fd5b506101a761046c366004611db9565b60046020818152600093845260408085209091529183529120805460018201546002830154600384015494840154600585015460068601546007870154600888015460099098015496986001600160a01b03968716989587169790871696909416949293919260ff909116918a565b3480156104e757600080fd5b506102146104f6366004611de5565b6118ed565b6007602052816000526040600020818154811061051757600080fd5b90600052602060002001600091509150505481565b6001600160a01b038116600090815260076020908152604080832080548251818502810185019093528083526060949383018282801561058b57602002820191906000526020600020905b815481526020019060010190808311610577575b505050505090506000815167ffffffffffffffff8111156105ae576105ae611f1b565b6040519080825280602002602001820160405280156105e757816020015b6105d4611c9c565b8152602001906001900390816105cc5790505b50905060005b825181101561071e576001600160a01b0385166000908152600560205260408120845190919085908490811061062557610625611f31565b60209081029190910181015182528181019290925260409081016000208151610140810183528154815260018201546001600160a01b039081169482019490945260028201548416928101929092526003810154831660608301526004808201549093166080830152600581015460a0830152600681015460c083015260078101549192909160e084019160ff909116908111156106c5576106c5611d08565b60048111156106d6576106d6611d08565b81526020016008820154815260200160098201548152505082828151811061070057610700611f31565b6020026020010181905250808061071690611f5d565b9150506105ed565b509392505050565b61072e611adf565b60008181526003602052604090206001600782015460ff16600481111561075757610757611d08565b148061077b57506004600782015460ff16600481111561077957610779611d08565b145b6107a05760405162461bcd60e51b815260040161079790611f76565b60405180910390fd5b6004600782015460ff1660048111156107bb576107bb611d08565b1480156107da57506201518081600801546107d69190611fa5565b4210155b806107ef57506001546001600160a01b031633145b6108335760405162461bcd60e51b8152602060048201526015602482015274139bdd08185b1b1bddd959081d1bc81c99599d5b99605a1b6044820152606401610797565b60038101546001600160a01b03166108c457600181015460058201546040516000926001600160a01b031691908381818185875af1925050503d8060008114610898576040519150601f19603f3d011682016040523d82523d6000602084013e61089d565b606091505b50509050806108be5760405162461bcd60e51b815260040161079790611fb8565b506108eb565b6001810154600582015460038301546108eb926001600160a01b0391821692911690611b09565b60078181018054600360ff19918216811790925560018401546001600160a01b03908116600090815260046020908152604080832089845282528083208701805486168717905560028801549093168252600581528282208883529052818120909401805490921690921790555183917f2babb5cd458b6d41108d6d793a75e29ca524e7caa20e2da6c994462010920a7291a2506109896001600055565b50565b610994611b6d565b61099e6000611b9a565b565b6109a8611c9c565b6000828152600360208181526040928390208351610140810185528154815260018201546001600160a01b0390811693820193909352600282015483169481019490945291820154811660608401526004808301549091166080840152600582015460a0840152600682015460c0840152600782015460e084019160ff90911690811115610a3857610a38611d08565b6004811115610a4957610a49611d08565b81526008820154602082015260099091015460409091015292915050565b610a6f611adf565b60025460405163d09ef24160e01b8152600481018390526000916001600160a01b03169063d09ef2419060240161010060405180830381865afa158015610aba573d6000803e3d6000fd5b505050506040513d601f19601f82011682018060405250810190610ade9190612004565b905060008160c001516002811115610af857610af8611d08565b14610b385760405162461bcd60e51b815260206004820152601060248201526f4f72646572206e6f742061637469766560801b6044820152606401610797565b60208101516001600160a01b03163303610b8c5760405162461bcd60e51b815260206004820152601560248201527426b0b5b2b91031b0b73737ba103132903a30b5b2b960591b6044820152606401610797565b600060405180610140016040528084815260200183602001516001600160a01b03168152602001336001600160a01b0316815260200183604001516001600160a01b0316815260200183606001516001600160a01b03168152602001836080015181526020018360a00151815260200160006004811115610c0f57610c0f611d08565b815242602080830191909152600060409283018190528681526003808352908390208451815591840151600180840180546001600160a01b03199081166001600160a01b039485161790915594860151600285018054871691841691909117905560608601519284018054861693831693909317909255608085015160048085018054909616919092161790935560a0840151600583015560c0840151600683015560e0840151600783018054959650869593949193909260ff19909116918490811115610cdf57610cdf611d08565b02179055506101008201516008820155610120909101516009909101556020808301516001600160a01b039081166000908152600480845260408083208884528552918290208551815593850151600180860180549286166001600160a01b0319938416179055928601516002860180549186169183169190911790556060860151600386018054918616918316919091179055608086015185830180549190951691161790925560a0840151600584015560c0840151600684015560e08401516007840180548695949293919260ff1990911691908490811115610dc657610dc6611d08565b02179055506101008201516008820155610120909101516009909101553360009081526005602081815260408084208785528252928390208451815590840151600180830180546001600160a01b03199081166001600160a01b039485161790915594860151600284018054871691841691909117905560608601516003840180548716918416919091179055608086015160048085018054909716919093161790945560a08501519282019290925560c0840151600682015560e0840151600782018054869593949293919260ff1990911691908490811115610eac57610eac611d08565b0217905550610100820151600882015561012090910151600990910155336000908152600760205260408120815b8154811015610f215785828281548110610ef657610ef6611f31565b906000526020600020015403610f0f5760019250610f21565b80610f1981611f5d565b915050610eda565b5081610f4a57336000908152600760209081526040822080546001810182559083529120018590555b6020808501516001600160a01b03166000908152600690915260408120815b8154811015610fb05787828281548110610f8557610f85611f31565b906000526020600020015403610f9e5760019250610fb0565b80610fa881611f5d565b915050610f69565b5081610fe5576020808701516001600160a01b0316600090815260068252604081208054600181018255908252919020018790555b6008805460018101825560009182527ff3f7a9fe364faab93b216da50a3214154f22a0a2b415b23a84c8169e8b636ee301889055602087015160405133926001600160a01b03909216918a917fcc50a4e95294d36f3e612eabd37417678a3c52eb30d18039a0b2ed5cff4cfc0f9190a45050505050506109896001600055565b61106d611adf565b600081815260036020526040902060018101546001600160a01b031633146110c35760405162461bcd60e51b81526020600482015260096024820152682737ba1036b0b5b2b960b91b6044820152606401610797565b6000600782015460ff1660048111156110de576110de611d08565b146110fb5760405162461bcd60e51b815260040161079790611f76565b60038101546001600160a01b031661115c57806005015434146111575760405162461bcd60e51b8152602060048201526014602482015273125b98dbdc9c9958dd0811551208185b5bdd5b9d60621b6044820152606401610797565b61117f565b6005810154600382015461117f916001600160a01b039091169033903090611bec565b60078181018054600160ff199182168117909255818401546001600160a01b03908116600090815260046020908152604080832089845282528083208701805486168717905560028801549093168252600581528282208883529052818120909401805490921690921790555183917f3f1af70a9eb954272c173cdd855f3eeca90469e9cfb7b48f44e46ae8d174e27291a2506109896001600055565b6060611226611b6d565b60085460009067ffffffffffffffff81111561124457611244611f1b565b60405190808252806020026020018201604052801561127d57816020015b61126a611c9c565b8152602001906001900390816112625790505b50905060005b60085481101561139e5760036000600883815481106112a4576112a4611f31565b6000918252602080832090910154835282810193909352604091820190208151610140810183528154815260018201546001600160a01b039081169482019490945260028201548416928101929092526003810154831660608301526004808201549093166080830152600581015460a0830152600681015460c083015260078101549192909160e084019160ff9091169081111561134557611345611d08565b600481111561135657611356611d08565b81526020016008820154815260200160098201548152505082828151811061138057611380611f31565b6020026020010181905250808061139690611f5d565b915050611283565b50905090565b600881815481106113b457600080fd5b600091825260209091200154905081565b600081815260036020526040902060018101546001600160a01b03163314806113fa575060028101546001600160a01b031633145b61143e5760405162461bcd60e51b8152602060048201526015602482015274139bdd081d1c985919481c185c9d1a58da5c185b9d605a1b6044820152606401610797565b6001600782015460ff16600481111561145957611459611d08565b146114765760405162461bcd60e51b815260040161079790611f76565b60078181018054600460ff19918216811790925560018401546001600160a01b0390811660009081526020848152604080832089845282528083208701805486168717905560028801549093168252600581528282208883529052818120909401805490921690921790555183917f7ce7831fed9a800b1aa5e7ca21034bf7b95efc31a196459012cf8b8eb42b7dac91a25050565b6006602052816000526040600020818154811061051757600080fd5b61152f611adf565b600081815260036020526040902060028101546001600160a01b031633146115855760405162461bcd60e51b81526020600482015260096024820152682737ba103a30b5b2b960b91b6044820152606401610797565b6001600782015460ff1660048111156115a0576115a0611d08565b146115bd5760405162461bcd60e51b815260040161079790611f76565b60048101546001600160a01b031661169857806006015434146116195760405162461bcd60e51b8152602060048201526014602482015273125b98dbdc9c9958dd0811551208185b5bdd5b9d60621b6044820152606401610797565b600181015460068201546040516000926001600160a01b031691908381818185875af1925050503d806000811461166c576040519150601f19603f3d011682016040523d82523d6000602084013e611671565b606091505b50509050806116925760405162461bcd60e51b815260040161079790611fb8565b506116c2565b6001810154600682015460048301546116c2926001600160a01b0391821692339290911690611bec565b60038101546001600160a01b031661175357600281015460058201546040516000926001600160a01b031691908381818185875af1925050503d8060008114611727576040519150601f19603f3d011682016040523d82523d6000602084013e61172c565b606091505b505090508061174d5760405162461bcd60e51b815260040161079790611fb8565b5061177a565b60028101546005820154600383015461177a926001600160a01b0391821692911690611b09565b6007818101805460ff1990811660029081179092554260098086018290556001860180546001600160a01b0390811660009081526004602081815260408084208d855282528084208b0180548a168b1790559454841683528181528483208c845281528483208601879055888b0180548516845260058083528685208e86528352868520909b0180549099168a179098559654831682529786528281208a8252909552938190209091019190915591548454925163b6adaaff60e01b815293840192909252169063b6adaaff90602401600060405180830381600087803b15801561186457600080fd5b505af1158015611878573d6000803e3d6000fd5b50506040518492507f9285bd636dda01bef18996aa38303bb742f6c67a6941646dddb17630cb492c2e9150600090a2506109896001600055565b6118ba611b6d565b6001600160a01b0381166118e457604051631e4fbdf760e01b815260006004820152602401610797565b61098981611b9a565b6001600160a01b038116600090815260066020908152604080832080548251818502810185019093528083526060949383018282801561194c57602002820191906000526020600020905b815481526020019060010190808311611938575b505050505090506000815167ffffffffffffffff81111561196f5761196f611f1b565b6040519080825280602002602001820160405280156119a857816020015b611995611c9c565b81526020019060019003908161198d5790505b50905060005b825181101561071e576001600160a01b038516600090815260046020526040812084519091908590849081106119e6576119e6611f31565b60209081029190910181015182528181019290925260409081016000208151610140810183528154815260018201546001600160a01b039081169482019490945260028201548416928101929092526003810154831660608301526004808201549093166080830152600581015460a0830152600681015460c083015260078101549192909160e084019160ff90911690811115611a8657611a86611d08565b6004811115611a9757611a97611d08565b815260200160088201548152602001600982015481525050828281518110611ac157611ac1611f31565b60200260200101819052508080611ad790611f5d565b9150506119ae565b600260005403611b0257604051633ee5aeb560e01b815260040160405180910390fd5b6002600055565b6040516001600160a01b03838116602483015260448201839052611b6891859182169063a9059cbb906064015b604051602081830303815290604052915060e01b6020820180516001600160e01b038381831617835250505050611c2b565b505050565b6001546001600160a01b0316331461099e5760405163118cdaa760e01b8152336004820152602401610797565b600180546001600160a01b038381166001600160a01b0319831681179093556040519116919082907f8be0079c531659141344cd1fd0a4f28419497f9722a3daafe3b4186f6b6457e090600090a35050565b6040516001600160a01b038481166024830152838116604483015260648201839052611c259186918216906323b872dd90608401611b36565b50505050565b600080602060008451602086016000885af180611c4e576040513d6000823e3d81fd5b50506000513d91508115611c66578060011415611c73565b6001600160a01b0384163b155b15611c2557604051635274afe760e01b81526001600160a01b0385166004820152602401610797565b6040805161014081018252600080825260208201819052918101829052606081018290526080810182905260a0810182905260c081018290529060e0820190815260200160008152602001600081525090565b600060208284031215611d0157600080fd5b5035919050565b634e487b7160e01b600052602160045260246000fd5b60058110611d3c57634e487b7160e01b600052602160045260246000fd5b9052565b8a81526001600160a01b038a81166020830152898116604083015288811660608301528716608082015260a0810186905260c081018590526101408101611d8a60e0830186611d1e565b610100820193909352610120015298975050505050505050565b6001600160a01b038116811461098957600080fd5b60008060408385031215611dcc57600080fd5b8235611dd781611da4565b946020939093013593505050565b600060208284031215611df757600080fd5b8135611e0281611da4565b9392505050565b805182526020810151611e2760208401826001600160a01b03169052565b506040810151611e4260408401826001600160a01b03169052565b506060810151611e5d60608401826001600160a01b03169052565b506080810151611e7860808401826001600160a01b03169052565b5060a081015160a083015260c081015160c083015260e0810151611e9f60e0840182611d1e565b50610100818101519083015261012090810151910152565b6020808252825182820181905260009190848201906040850190845b81811015611efa57611ee6838551611e09565b928401926101409290920191600101611ed3565b50909695505050505050565b6101408101611f158284611e09565b92915050565b634e487b7160e01b600052604160045260246000fd5b634e487b7160e01b600052603260045260246000fd5b634e487b7160e01b600052601160045260246000fd5b600060018201611f6f57611f6f611f47565b5060010190565b602080825260159082015274496e76616c696420657363726f772073746174757360581b604082015260600190565b80820180821115611f1557611f15611f47565b602080825260139082015272115512081d1c985b9cd9995c8819985a5b1959606a1b604082015260600190565b8051611ff081611da4565b919050565b805160038110611ff057600080fd5b600061010080838503121561201857600080fd5b6040519081019067ffffffffffffffff8211818310171561204957634e487b7160e01b600052604160045260246000fd5b816040528351815261205d60208501611fe5565b602082015261206e60408501611fe5565b604082015261207f60608501611fe5565b60608201526080840151608082015260a084015160a08201526120a460c08501611ff5565b60c082015260e084015160e082015280925050509291505056fea2646970667358221220ca62844788dc98919d242d92db746ecfe2fc79a138c95a78fa2c9f32f49e251264736f6c63430008140033",
  "linkReferences": {},
  "deployedLinkReferences": {}
}