{
  "_format": "hh-sol-artifact-1",
  "contractName": "OTCEscrow",
  "sourceName": "contracts/OTCEscrow.sol",
  "abi": [
    {
      "inputs": [
        {
          "internalType": "address",
          "name": "_otcMarket",
          "type": "address"
        }
      ],
      "stateMutability": "nonpayable",
      "type": "constructor"
    },
    {
      "inputs": [
        {
          "internalType": "address",
          "name": "owner",
          "type": "address"
        }
      ],
      "name": "OwnableInvalidOwner",
      "type": "error"
    },
    {
      "inputs": [
        {
          "internalType": "address",
          "name": "account",
          "type": "address"
        }
      ],
      "name": "OwnableUnauthorizedAccount",
      "type": "error"
    },
    {
      "inputs": [],
      "name": "ReentrancyGuardReentrantCall",
      "type": "error"
    },
    {
      "inputs": [
        {
          "internalType": "address",
          "name": "token",
          "type": "address"
        }
      ],
      "name": "SafeERC20FailedOperation",
      "type": "error"
    },
    {
      "anonymous": false,
      "inputs": [
        {
          "indexed": true,
          "internalType": "uint256",
          "name": "orderId",
          "type": "uint256"
        }
      ],
      "name": "EscrowCompleted",
      "type": "event"
    },
    {
      "anonymous": false,
      "inputs": [
        {
          "indexed": true,
          "internalType": "uint256",
          "name": "orderId",
          "type": "uint256"
        },
        {
          "indexed": true,
          "internalType": "address",
          "name": "maker",
          "type": "address"
        },
        {
          "indexed": true,
          "internalType": "address",
          "name": "taker",
          "type": "address"
        }
      ],
      "name": "EscrowCreated",
      "type": "event"
    },
    {
      "anonymous": false,
      "inputs": [
        {
          "indexed": true,
          "internalType": "uint256",
          "name": "orderId",
          "type": "uint256"
        }
      ],
      "name": "EscrowDisputed",
      "type": "event"
    },
    {
      "anonymous": false,
      "inputs": [
        {
          "indexed": true,
          "internalType": "uint256",
          "name": "orderId",
          "type": "uint256"
        }
      ],
      "name": "EscrowLocked",
      "type": "event"
    },
    {
      "anonymous": false,
      "inputs": [
        {
          "indexed": true,
          "internalType": "uint256",
          "name": "orderId",
          "type": "uint256"
        }
      ],
      "name": "EscrowRefunded",
      "type": "event"
    },
    {
      "anonymous": false,
      "inputs": [
        {
          "indexed": true,
          "internalType": "address",
          "name": "previousOwner",
          "type": "address"
        },
        {
          "indexed": true,
          "internalType": "address",
          "name": "newOwner",
          "type": "address"
        }
      ],
      "name": "OwnershipTransferred",
      "type": "event"
    },
    {
      "inputs": [],
      "name": "DISPUTE_TIMEOUT",
      "outputs": [
        {
          "internalType": "uint256",
          "name": "",
          "type": "uint256"
        }
      ],
      "stateMutability": "view",
      "type": "function"
    },
    {
      "inputs": [
        {
          "internalType": "uint256",
          "name": "_orderId",
          "type": "uint256"
        }
      ],
      "name": "completeEscrow",
      "outputs": [],
      "stateMutability": "payable",
      "type": "function"
    },
    {
      "inputs": [
        {
          "internalType": "uint256",
          "name": "_orderId",
          "type": "uint256"
        }
      ],
      "name": "createEscrow",
      "outputs": [],
      "stateMutability": "nonpayable",
      "type": "function"
    },
    {
      "inputs": [
        {
          "internalType": "uint256",
          "name": "_orderId",
          "type": "uint256"
        }
      ],
      "name": "disputeEscrow",
      "outputs": [],
      "stateMutability": "nonpayable",
      "type": "function"
    },
    {
      "inputs": [
        {
          "internalType": "uint256",
          "name": "",
          "type": "uint256"
        }
      ],
      "name": "escrows",
      "outputs": [
        {
          "internalType": "uint256",
          "name": "orderId",
          "type": "uint256"
        },
        {
          "internalType": "address",
          "name": "maker",
          "type": "address"
        },
        {
          "internalType": "address",
          "name": "taker",
          "type": "address"
        },
        {
          "internalType": "address",
          "name": "tokenToSell",
          "type": "address"
        },
        {
          "internalType": "address",
          "name": "tokenToBuy",
          "type": "address"
        },
        {
          "internalType": "uint256",
          "name": "amountToSell",
          "type": "uint256"
        },
        {
          "internalType": "uint256",
          "name": "amountToBuy",
          "type": "uint256"
        },
        {
          "internalType": "enum OTCEscrow.EscrowStatus",
          "name": "status",
          "type": "uint8"
        },
        {
          "internalType": "uint256",
          "name": "createdAt",
          "type": "uint256"
        },
        {
          "internalType": "uint256",
          "name": "completedAt",
          "type": "uint256"
        }
      ],
      "stateMutability": "view",
      "type": "function"
    },
    {
      "inputs": [
        {
          "internalType": "uint256",
          "name": "_orderId",
          "type": "uint256"
        }
      ],
      "name": "getEscrow",
      "outputs": [
        {
          "components": [
            {
              "internalType": "uint256",
              "name": "orderId",
              "type": "uint256"
            },
            {
              "internalType": "address",
              "name": "maker",
              "type": "address"
            },
            {
              "internalType": "address",
              "name": "taker",
              "type": "address"
            },
            {
              "internalType": "address",
              "name": "tokenToSell",
              "type": "address"
            },
            {
              "internalType": "address",
              "name": "tokenToBuy",
              "type": "address"
            },
            {
              "internalType": "uint256",
              "name": "amountToSell",
              "type": "uint256"
            },
            {
              "internalType": "uint256",
              "name": "amountToBuy",
              "type": "uint256"
            },
            {
              "internalType": "enum OTCEscrow.EscrowStatus",
              "name": "status",
              "type": "uint8"
            },
            {
              "internalType": "uint256",
              "name": "createdAt",
              "type": "uint256"
            },
            {
              "internalType": "uint256",
              "name": "completedAt",
              "type": "uint256"
            }
          ],
          "internalType": "struct OTCEscrow.Escrow",
          "name": "",
          "type": "tuple"
        }
      ],
      "stateMutability": "view",
      "type": "function"
    },
    {
      "inputs": [
        {
          "internalType": "address",
          "name": "_maker",
          "type": "address"
        }
      ],
      "name": "getMakerEscrows",
      "outputs": [
        {
          "components": [
            {
              "internalType": "uint256",
              "name": "orderId",
              "type": "uint256"
            },
            {
              "internalType": "address",
              "name": "maker",
              "type": "address"
            },
            {
              "internalType": "address",
              "name": "taker",
              "type": "address"
            },
            {
              "internalType": "address",
              "name": "tokenToSell",
              "type": "address"
            },
            {
              "internalType": "address",
              "name": "tokenToBuy",
              "type": "address"
            },
            {
              "internalType": "uint256",
              "name": "amountToSell",
              "type": "uint256"
            },
            {
              "internalType": "uint256",
              "name": "amountToBuy",
              "type": "uint256"
            },
            {
              "internalType": "enum OTCEscrow.EscrowStatus",
              "name": "status",
              "type": "uint8"
            },
            {
              "internalType": "uint256",
              "name": "createdAt",
              "type": "uint256"
            },
            {
              "internalType": "uint256",
              "name": "completedAt",
              "type": "uint256"
            }
          ],
          "internalType": "struct OTCEscrow.Escrow[]",
          "name": "",
          "type": "tuple[]"
        }
      ],
      "stateMutability": "view",
      "type": "function"
    },
    {
      "inputs": [
        {
          "internalType": "address",
          "name": "_taker",
          "type": "address"
        }
      ],
      "name": "getTakerEscrows",
      "outputs": [
        {
          "components": [
            {
              "internalType": "uint256",
              "name": "orderId",
              "type": "uint256"
            },
            {
              "internalType": "address",
              "name": "maker",
              "type": "address"
            },
            {
              "internalType": "address",
              "name": "taker",
              "type": "address"
            },
            {
              "internalType": "address",
              "name": "tokenToSell",
              "type": "address"
            },
            {
              "internalType": "address",
              "name": "tokenToBuy",
              "type": "address"
            },
            {
              "internalType": "uint256",
              "name": "amountToSell",
              "type": "uint256"
            },
            {
              "internalType": "uint256",
              "name": "amountToBuy",
              "type": "uint256"
            },
            {
              "internalType": "enum OTCEscrow.EscrowStatus",
              "name": "status",
              "type": "uint8"
            },
            {
              "internalType": "uint256",
              "name": "createdAt",
              "type": "uint256"
            },
            {
              "internalType": "uint256",
              "name": "completedAt",
              "type": "uint256"
            }
          ],
          "internalType": "struct OTCEscrow.Escrow[]",
          "name": "",
          "type": "tuple[]"
        }
      ],
      "stateMutability": "view",
      "type": "function"
    },
    {
      "inputs": [
        {
          "internalType": "uint256",
          "name": "_orderId",
          "type": "uint256"
        }
      ],
      "name": "lockEscrow",
      "outputs": [],
      "stateMutability": "payable",
      "type": "function"
    },
    {
      "inputs": [
        {
          "internalType": "address",
          "name": "",
          "type": "address"
        },
        {
          "internalType": "uint256",
          "name": "",
          "type": "uint256"
        }
      ],
      "name": "makerEscrows",
      "outputs": [
        {
          "internalType": "uint256",
          "name": "orderId",
          "type": "uint256"
        },
        {
          "internalType": "address",
          "name": "maker",
          "type": "address"
        },
        {
          "internalType": "address",
          "name": "taker",
          "type": "address"
        },
        {
          "internalType": "address",
          "name": "tokenToSell",
          "type": "address"
        },
        {
          "internalType": "address",
          "name": "tokenToBuy",
          "type": "address"
        },
        {
          "internalType": "uint256",
          "name": "amountToSell",
          "type": "uint256"
        },
        {
          "internalType": "uint256",
          "name": "amountToBuy",
          "type": "uint256"
        },
        {
          "internalType": "enum OTCEscrow.EscrowStatus",
          "name": "status",
          "type": "uint8"
        },
        {
          "internalType": "uint256",
          "name": "createdAt",
          "type": "uint256"
        },
        {
          "internalType": "uint256",
          "name": "completedAt",
          "type": "uint256"
        }
      ],
      "stateMutability": "view",
      "type": "function"
    },
    {
      "inputs": [],
      "name": "otcMarket",
      "outputs": [
        {
          "internalType": "contract OTCMarket",
          "name": "",
          "type": "address"
        }
      ],
      "stateMutability": "view",
      "type": "function"
    },
    {
      "inputs": [],
      "name": "owner",
      "outputs": [
        {
          "internalType": "address",
          "name": "",
          "type": "address"
        }
      ],
      "stateMutability": "view",
      "type": "function"
    },
    {
      "inputs": [
        {
          "internalType": "uint256",
          "name": "_orderId",
          "type": "uint256"
        }
      ],
      "name": "refundEscrow",
      "outputs": [],
      "stateMutability": "nonpayable",
      "type": "function"
    },
    {
      "inputs": [],
      "name": "renounceOwnership",
      "outputs": [],
      "stateMutability": "nonpayable",
      "type": "function"
    },
    {
      "inputs": [
        {
          "internalType": "address",
          "name": "",
          "type": "address"
        },
        {
          "internalType": "uint256",
          "name": "",
          "type": "uint256"
        }
      ],
      "name": "takerEscrows",
      "outputs": [
        {
          "internalType": "uint256",
          "name": "orderId",
          "type": "uint256"
        },
        {
          "internalType": "address",
          "name": "maker",
          "type": "address"
        },
        {
          "internalType": "address",
          "name": "taker",
          "type": "address"
        },
        {
          "internalType": "address",
          "name": "tokenToSell",
          "type": "address"
        },
        {
          "internalType": "address",
          "name": "tokenToBuy",
          "type": "address"
        },
        {
          "internalType": "uint256",
          "name": "amountToSell",
          "type": "uint256"
        },
        {
          "internalType": "uint256",
          "name": "amountToBuy",
          "type": "uint256"
        },
        {
          "internalType": "enum OTCEscrow.EscrowStatus",
          "name": "status",
          "type": "uint8"
        },
        {
          "internalType": "uint256",
          "name": "createdAt",
          "type": "uint256"
        },
        {
          "internalType": "uint256",
          "name": "completedAt",
          "type": "uint256"
        }
      ],
      "stateMutability": "view",
      "type": "function"
    },
    {
      "inputs": [
        {
          "internalType": "address",
          "name": "newOwner",
          "type": "address"
        }
      ],
      "name": "transferOwnership",
      "outputs": [],
      "stateMutability": "nonpayable",
      "type": "function"
    }
  ],
  "bytecode": "0x60806040523480156200001157600080fd5b5060405162001ac838038062001ac883398101604081905262000034916200013d565b600160005533806200006157604051631e4fbdf760e01b8152600060048201526024015b60405180910390fd5b6200006c81620000eb565b506001600160a01b038116620000c55760405162461bcd60e51b815260206004820152601a60248201527f496e76616c6964204f5443206d61726b65742061646472657373000000000000604482015260640162000058565b600280546001600160a01b0319166001600160a01b03929092169190911790556200016f565b600180546001600160a01b038381166001600160a01b0319831681179093556040519116919082907f8be0079c531659141344cd1fd0a4f28419497f9722a3daafe3b4186f6b6457e090600090a35050565b6000602082840312156200015057600080fd5b81516001600160a01b03811681146200016857600080fd5b9392505050565b611949806200017f6000396000f3fe6080604052600436106100f35760003560e01c80638e4928af1161008a578063f1473cb711610059578063f1473cb714610308578063f2fde38b14610328578063fc30321514610348578063fd2734d71461036857600080fd5b80638e4928af146102a2578063b563153c146102b5578063bb182eb5146102d5578063df3e0a1d146102f557600080fd5b8063715018a6116100c6578063715018a61461020e5780637d19e596146102235780638da2c873146102505780638da5cb5b1461027057600080fd5b8063012f52ee146100f8578063324a19551461019a578063356f9dfd146101c7578063486265c6146101e9575b600080fd5b34801561010457600080fd5b5061017b610113366004611591565b6003602081905260009182526040909120805460018201546002830154938301546004840154600585015460068601546007870154600888015460099098015496986001600160a01b03968716989087169795871696909416949293919260ff90911691908a565b6040516101919a999897969594939291906115e2565b60405180910390f35b3480156101a657600080fd5b506101ba6101b536600461165b565b610388565b604051610191919061172d565b3480156101d357600080fd5b506101e76101e2366004611591565b6104a2565b005b3480156101f557600080fd5b506102006201518081565b604051908152602001610191565b34801561021a57600080fd5b506101e76106af565b34801561022f57600080fd5b5061024361023e366004611591565b6106c3565b604051610191919061177c565b34801561025c57600080fd5b506101e761026b366004611591565b6107d8565b34801561027c57600080fd5b506001546001600160a01b03165b6040516001600160a01b039091168152602001610191565b6101e76102b0366004611591565b610c9a565b3480156102c157600080fd5b506101e76102d0366004611591565b610df9565b3480156102e157600080fd5b5061017b6102f0366004611791565b610ee8565b6101e7610303366004611591565b610f6e565b34801561031457600080fd5b5060025461028a906001600160a01b031681565b34801561033457600080fd5b506101e761034336600461165b565b61126e565b34801561035457600080fd5b5061017b610363366004611791565b6112a9565b34801561037457600080fd5b506101ba61038336600461165b565b6112c5565b6001600160a01b0381166000908152600560209081526040808320805482518185028101850190935280835260609492939192909184015b828210156104975760008481526020908190206040805161014081018252600a86029092018054835260018101546001600160a01b039081169484019490945260028101548416918301919091526003810154831660608301526004808201549093166080830152600581015460a0830152600681015460c083015260078101549192909160e084019160ff9091169081111561045f5761045f6115aa565b6004811115610470576104706115aa565b815260200160088201548152602001600982015481525050815260200190600101906103c0565b505050509050919050565b6104aa6113d4565b60008181526003602052604090206001600782015460ff1660048111156104d3576104d36115aa565b14806104f757506004600782015460ff1660048111156104f5576104f56115aa565b145b61051c5760405162461bcd60e51b8152600401610513906117bd565b60405180910390fd5b6004600782015460ff166004811115610537576105376115aa565b148015610556575062015180816008015461055291906117ec565b4210155b8061056b57506001546001600160a01b031633145b6105af5760405162461bcd60e51b8152602060048201526015602482015274139bdd08185b1b1bddd959081d1bc81c99599d5b99605a1b6044820152606401610513565b60038101546001600160a01b031661064057600181015460058201546040516000926001600160a01b031691908381818185875af1925050503d8060008114610614576040519150601f19603f3d011682016040523d82523d6000602084013e610619565b606091505b505090508061063a5760405162461bcd60e51b81526004016105139061180d565b50610667565b600181015460058201546003830154610667926001600160a01b03918216929116906113fe565b60078101805460ff1916600317905560405182907f2babb5cd458b6d41108d6d793a75e29ca524e7caa20e2da6c994462010920a7290600090a2506106ac6001600055565b50565b6106b7611462565b6106c1600061148f565b565b6107196040805161014081018252600080825260208201819052918101829052606081018290526080810182905260a0810182905260c081018290529060e0820190815260200160008152602001600081525090565b6000828152600360208181526040928390208351610140810185528154815260018201546001600160a01b0390811693820193909352600282015483169481019490945291820154811660608401526004808301549091166080840152600582015460a0840152600682015460c0840152600782015460e084019160ff909116908111156107a9576107a96115aa565b60048111156107ba576107ba6115aa565b81526008820154602082015260099091015460409091015292915050565b6107e06113d4565b60025460405163d09ef24160e01b8152600481018390526000916001600160a01b03169063d09ef2419060240161010060405180830381865afa15801561082b573d6000803e3d6000fd5b505050506040513d601f19601f8201168201806040525081019061084f9190611859565b905060008160c001516002811115610869576108696115aa565b146108a95760405162461bcd60e51b815260206004820152601060248201526f4f72646572206e6f742061637469766560801b6044820152606401610513565b60208101516001600160a01b031633036108fd5760405162461bcd60e51b815260206004820152601560248201527426b0b5b2b91031b0b73737ba103132903a30b5b2b960591b6044820152606401610513565b600060405180610140016040528084815260200183602001516001600160a01b03168152602001336001600160a01b0316815260200183604001516001600160a01b0316815260200183606001516001600160a01b03168152602001836080015181526020018360a00151815260200160006004811115610980576109806115aa565b815242602080830191909152600060409283018190528681526003808352908390208451815591840151600180840180546001600160a01b03199081166001600160a01b039485161790915594860151600285018054871691841691909117905560608601519284018054861693831693909317909255608085015160048085018054909616919092161790935560a0840151600583015560c0840151600683015560e0840151600783018054959650869593949193909260ff19909116918490811115610a5057610a506115aa565b02179055506101008201516008820155610120909101516009909101556020808301516001600160a01b03908116600090815260048084526040808320805460018181018355918552938690208751600a909502019384559486015183860180549186166001600160a01b0319928316179055908601516002840180549186169183169190911790556060860151600384018054918616918316919091179055608086015183830180549190951691161790925560a0840151600582015560c0840151600682015560e0840151600782018054869593949293919260ff1990911691908490811115610b4457610b446115aa565b0217905550610100820151600882015561012090910151600990910155336000908152600560208181526040808420805460018082018355918652948390208651600a909602019485559185015184830180546001600160a01b03199081166001600160a01b039384161790915591860151600286018054841691831691909117905560608601516003860180548416918316919091179055608086015160048087018054909416919092161790915560a08501519284019290925560c0840151600684015560e08401516007840180548695949293919260ff1990911691908490811115610c3557610c356115aa565b0217905550610100820151600882015561012090910151600990910155602082015160405133916001600160a01b03169085907fcc50a4e95294d36f3e612eabd37417678a3c52eb30d18039a0b2ed5cff4cfc0f90600090a450506106ac6001600055565b610ca26113d4565b600081815260036020526040902060018101546001600160a01b03163314610cf85760405162461bcd60e51b81526020600482015260096024820152682737ba1036b0b5b2b960b91b6044820152606401610513565b6000600782015460ff166004811115610d1357610d136115aa565b14610d305760405162461bcd60e51b8152600401610513906117bd565b60038101546001600160a01b0316610d915780600501543414610d8c5760405162461bcd60e51b8152602060048201526014602482015273125b98dbdc9c9958dd0811551208185b5bdd5b9d60621b6044820152606401610513565b610db4565b60058101546003820154610db4916001600160a01b0390911690339030906114e1565b60078101805460ff1916600117905560405182907f3f1af70a9eb954272c173cdd855f3eeca90469e9cfb7b48f44e46ae8d174e27290600090a2506106ac6001600055565b600081815260036020526040902060018101546001600160a01b0316331480610e2e575060028101546001600160a01b031633145b610e725760405162461bcd60e51b8152602060048201526015602482015274139bdd081d1c985919481c185c9d1a58da5c185b9d605a1b6044820152606401610513565b6001600782015460ff166004811115610e8d57610e8d6115aa565b14610eaa5760405162461bcd60e51b8152600401610513906117bd565b60078101805460ff1916600417905560405182907f7ce7831fed9a800b1aa5e7ca21034bf7b95efc31a196459012cf8b8eb42b7dac90600090a25050565b60056020528160005260406000208181548110610f0457600080fd5b60009182526020909120600a90910201805460018201546002830154600384015460048501546005860154600687015460078801546008890154600990990154979a506001600160a01b039687169950948616979386169692909516949093909260ff909116918a565b610f766113d4565b600081815260036020526040902060028101546001600160a01b03163314610fcc5760405162461bcd60e51b81526020600482015260096024820152682737ba103a30b5b2b960b91b6044820152606401610513565b6001600782015460ff166004811115610fe757610fe76115aa565b146110045760405162461bcd60e51b8152600401610513906117bd565b60048101546001600160a01b03166110df57806006015434146110605760405162461bcd60e51b8152602060048201526014602482015273125b98dbdc9c9958dd0811551208185b5bdd5b9d60621b6044820152606401610513565b600181015460068201546040516000926001600160a01b031691908381818185875af1925050503d80600081146110b3576040519150601f19603f3d011682016040523d82523d6000602084013e6110b8565b606091505b50509050806110d95760405162461bcd60e51b81526004016105139061180d565b50611109565b600181015460068201546004830154611109926001600160a01b03918216923392909116906114e1565b60038101546001600160a01b031661119a57600281015460058201546040516000926001600160a01b031691908381818185875af1925050503d806000811461116e576040519150601f19603f3d011682016040523d82523d6000602084013e611173565b606091505b50509050806111945760405162461bcd60e51b81526004016105139061180d565b506111c1565b6002810154600582015460038301546111c1926001600160a01b03918216929116906113fe565b60078101805460ff1916600290811790915542600983015554815460405163b6adaaff60e01b815260048101919091526001600160a01b039091169063b6adaaff90602401600060405180830381600087803b15801561122057600080fd5b505af1158015611234573d6000803e3d6000fd5b50506040518492507f9285bd636dda01bef18996aa38303bb742f6c67a6941646dddb17630cb492c2e9150600090a2506106ac6001600055565b611276611462565b6001600160a01b0381166112a057604051631e4fbdf760e01b815260006004820152602401610513565b6106ac8161148f565b60046020528160005260406000208181548110610f0457600080fd5b6001600160a01b0381166000908152600460209081526040808320805482518185028101850190935280835260609492939192909184015b828210156104975760008481526020908190206040805161014081018252600a86029092018054835260018101546001600160a01b039081169484019490945260028101548416918301919091526003810154831660608301526004808201549093166080830152600581015460a0830152600681015460c083015260078101549192909160e084019160ff9091169081111561139c5761139c6115aa565b60048111156113ad576113ad6115aa565b815260200160088201548152602001600982015481525050815260200190600101906112fd565b6002600054036113f757604051633ee5aeb560e01b815260040160405180910390fd5b6002600055565b6040516001600160a01b0383811660248301526044820183905261145d91859182169063a9059cbb906064015b604051602081830303815290604052915060e01b6020820180516001600160e01b038381831617835250505050611520565b505050565b6001546001600160a01b031633146106c15760405163118cdaa760e01b8152336004820152602401610513565b600180546001600160a01b038381166001600160a01b0319831681179093556040519116919082907f8be0079c531659141344cd1fd0a4f28419497f9722a3daafe3b4186f6b6457e090600090a35050565b6040516001600160a01b03848116602483015283811660448301526064820183905261151a9186918216906323b872dd9060840161142b565b50505050565b600080602060008451602086016000885af180611543576040513d6000823e3d81fd5b50506000513d9150811561155b578060011415611568565b6001600160a01b0384163b155b1561151a57604051635274afe760e01b81526001600160a01b0385166004820152602401610513565b6000602082840312156115a357600080fd5b5035919050565b634e487b7160e01b600052602160045260246000fd5b600581106115de57634e487b7160e01b600052602160045260246000fd5b9052565b8a81526001600160a01b038a81166020830152898116604083015288811660608301528716608082015260a0810186905260c08101859052610140810161162c60e08301866115c0565b610100820193909352610120015298975050505050505050565b6001600160a01b03811681146106ac57600080fd5b60006020828403121561166d57600080fd5b813561167881611646565b9392505050565b80518252602081015161169d60208401826001600160a01b03169052565b5060408101516116b860408401826001600160a01b03169052565b5060608101516116d360608401826001600160a01b03169052565b5060808101516116ee60808401826001600160a01b03169052565b5060a081015160a083015260c081015160c083015260e081015161171560e08401826115c0565b50610100818101519083015261012090810151910152565b6020808252825182820181905260009190848201906040850190845b818110156117705761175c83855161167f565b928401926101409290920191600101611749565b50909695505050505050565b610140810161178b828461167f565b92915050565b600080604083850312156117a457600080fd5b82356117af81611646565b946020939093013593505050565b602080825260159082015274496e76616c696420657363726f772073746174757360581b604082015260600190565b8082018082111561178b57634e487b7160e01b600052601160045260246000fd5b602080825260139082015272115512081d1c985b9cd9995c8819985a5b1959606a1b604082015260600190565b805161184581611646565b919050565b80516003811061184557600080fd5b600061010080838503121561186d57600080fd5b6040519081019067ffffffffffffffff8211818310171561189e57634e487b7160e01b600052604160045260246000fd5b81604052835181526118b26020850161183a565b60208201526118c36040850161183a565b60408201526118d46060850161183a565b60608201526080840151608082015260a084015160a08201526118f960c0850161184a565b60c082015260e084015160e082015280925050509291505056fea2646970667358221220f9c5563129a48eee60325c86294c35d18bd83b1683474ae5decdebcef1d2516364736f6c63430008140033",
  "linkReferences": {},
  "deployedLinkReferences": {}
}