{
  "_format": "hh-sol-artifact-1",
  "contractName": "OTCMarket",
  "sourceName": "contracts/OTCMarket.sol",
  "abi": [
    {
      "inputs": [],
      "stateMutability": "nonpayable",
      "type": "constructor"
    },
    {
      "inputs": [
        {
          "internalType": "address",
          "name": "owner",
          "type": "address"
        }
      ],
      "name": "OwnableInvalidOwner",
      "type": "error"
    },
    {
      "inputs": [
        {
          "internalType": "address",
          "name": "account",
          "type": "address"
        }
      ],
      "name": "OwnableUnauthorizedAccount",
      "type": "error"
    },
    {
      "inputs": [],
      "name": "ReentrancyGuardReentrantCall",
      "type": "error"
    },
    {
      "anonymous": false,
      "inputs": [
        {
          "indexed": true,
          "internalType": "uint256",
          "name": "orderId",
          "type": "uint256"
        }
      ],
      "name": "OrderCancelled",
      "type": "event"
    },
    {
      "anonymous": false,
      "inputs": [
        {
          "indexed": true,
          "internalType": "uint256",
          "name": "orderId",
          "type": "uint256"
        }
      ],
      "name": "OrderCompleted",
      "type": "event"
    },
    {
      "anonymous": false,
      "inputs": [
        {
          "indexed": true,
          "internalType": "uint256",
          "name": "orderId",
          "type": "uint256"
        },
        {
          "indexed": true,
          "internalType": "address",
          "name": "maker",
          "type": "address"
        },
        {
          "indexed": false,
          "internalType": "address",
          "name": "tokenToSell",
          "type": "address"
        },
        {
          "indexed": false,
          "internalType": "address",
          "name": "tokenToBuy",
          "type": "address"
        },
        {
          "indexed": false,
          "internalType": "uint256",
          "name": "amountToSell",
          "type": "uint256"
        },
        {
          "indexed": false,
          "internalType": "uint256",
          "name": "amountToBuy",
          "type": "uint256"
        }
      ],
      "name": "OrderCreated",
      "type": "event"
    },
    {
      "anonymous": false,
      "inputs": [
        {
          "indexed": true,
          "internalType": "address",
          "name": "previousOwner",
          "type": "address"
        },
        {
          "indexed": true,
          "internalType": "address",
          "name": "newOwner",
          "type": "address"
        }
      ],
      "name": "OwnershipTransferred",
      "type": "event"
    },
    {
      "inputs": [
        {
          "internalType": "uint256",
          "name": "",
          "type": "uint256"
        }
      ],
      "name": "allOrders",
      "outputs": [
        {
          "internalType": "uint256",
          "name": "orderId",
          "type": "uint256"
        },
        {
          "internalType": "address",
          "name": "maker",
          "type": "address"
        },
        {
          "internalType": "address",
          "name": "tokenToSell",
          "type": "address"
        },
        {
          "internalType": "address",
          "name": "tokenToBuy",
          "type": "address"
        },
        {
          "internalType": "uint256",
          "name": "amountToSell",
          "type": "uint256"
        },
        {
          "internalType": "uint256",
          "name": "amountToBuy",
          "type": "uint256"
        },
        {
          "internalType": "enum OTCMarket.OrderStatus",
          "name": "status",
          "type": "uint8"
        },
        {
          "internalType": "uint256",
          "name": "createdAt",
          "type": "uint256"
        }
      ],
      "stateMutability": "view",
      "type": "function"
    },
    {
      "inputs": [
        {
          "internalType": "uint256",
          "name": "_orderId",
          "type": "uint256"
        }
      ],
      "name": "cancelOrder",
      "outputs": [],
      "stateMutability": "nonpayable",
      "type": "function"
    },
    {
      "inputs": [
        {
          "internalType": "uint256",
          "name": "_orderId",
          "type": "uint256"
        }
      ],
      "name": "completeOrder",
      "outputs": [],
      "stateMutability": "nonpayable",
      "type": "function"
    },
    {
      "inputs": [
        {
          "internalType": "address",
          "name": "_tokenToSell",
          "type": "address"
        },
        {
          "internalType": "address",
          "name": "_tokenToBuy",
          "type": "address"
        },
        {
          "internalType": "uint256",
          "name": "_amountToSell",
          "type": "uint256"
        },
        {
          "internalType": "uint256",
          "name": "_amountToBuy",
          "type": "uint256"
        }
      ],
      "name": "createOrder",
      "outputs": [
        {
          "internalType": "uint256",
          "name": "",
          "type": "uint256"
        }
      ],
      "stateMutability": "nonpayable",
      "type": "function"
    },
    {
      "inputs": [],
      "name": "getActiveOrderCount",
      "outputs": [
        {
          "internalType": "uint256",
          "name": "",
          "type": "uint256"
        }
      ],
      "stateMutability": "view",
      "type": "function"
    },
    {
      "inputs": [],
      "name": "getAllOrders",
      "outputs": [
        {
          "components": [
            {
              "internalType": "uint256",
              "name": "orderId",
              "type": "uint256"
            },
            {
              "internalType": "address",
              "name": "maker",
              "type": "address"
            },
            {
              "internalType": "address",
              "name": "tokenToSell",
              "type": "address"
            },
            {
              "internalType": "address",
              "name": "tokenToBuy",
              "type": "address"
            },
            {
              "internalType": "uint256",
              "name": "amountToSell",
              "type": "uint256"
            },
            {
              "internalType": "uint256",
              "name": "amountToBuy",
              "type": "uint256"
            },
            {
              "internalType": "enum OTCMarket.OrderStatus",
              "name": "status",
              "type": "uint8"
            },
            {
              "internalType": "uint256",
              "name": "createdAt",
              "type": "uint256"
            }
          ],
          "internalType": "struct OTCMarket.Order[]",
          "name": "",
          "type": "tuple[]"
        }
      ],
      "stateMutability": "view",
      "type": "function"
    },
    {
      "inputs": [
        {
          "internalType": "uint256",
          "name": "_orderId",
          "type": "uint256"
        }
      ],
      "name": "getOrder",
      "outputs": [
        {
          "components": [
            {
              "internalType": "uint256",
              "name": "orderId",
              "type": "uint256"
            },
            {
              "internalType": "address",
              "name": "maker",
              "type": "address"
            },
            {
              "internalType": "address",
              "name": "tokenToSell",
              "type": "address"
            },
            {
              "internalType": "address",
              "name": "tokenToBuy",
              "type": "address"
            },
            {
              "internalType": "uint256",
              "name": "amountToSell",
              "type": "uint256"
            },
            {
              "internalType": "uint256",
              "name": "amountToBuy",
              "type": "uint256"
            },
            {
              "internalType": "enum OTCMarket.OrderStatus",
              "name": "status",
              "type": "uint8"
            },
            {
              "internalType": "uint256",
              "name": "createdAt",
              "type": "uint256"
            }
          ],
          "internalType": "struct OTCMarket.Order",
          "name": "",
          "type": "tuple"
        }
      ],
      "stateMutability": "view",
      "type": "function"
    },
    {
      "inputs": [
        {
          "internalType": "address",
          "name": "_user",
          "type": "address"
        }
      ],
      "name": "getUserOrders",
      "outputs": [
        {
          "internalType": "uint256[]",
          "name": "",
          "type": "uint256[]"
        }
      ],
      "stateMutability": "view",
      "type": "function"
    },
    {
      "inputs": [
        {
          "internalType": "uint256",
          "name": "",
          "type": "uint256"
        }
      ],
      "name": "orders",
      "outputs": [
        {
          "internalType": "uint256",
          "name": "orderId",
          "type": "uint256"
        },
        {
          "internalType": "address",
          "name": "maker",
          "type": "address"
        },
        {
          "internalType": "address",
          "name": "tokenToSell",
          "type": "address"
        },
        {
          "internalType": "address",
          "name": "tokenToBuy",
          "type": "address"
        },
        {
          "internalType": "uint256",
          "name": "amountToSell",
          "type": "uint256"
        },
        {
          "internalType": "uint256",
          "name": "amountToBuy",
          "type": "uint256"
        },
        {
          "internalType": "enum OTCMarket.OrderStatus",
          "name": "status",
          "type": "uint8"
        },
        {
          "internalType": "uint256",
          "name": "createdAt",
          "type": "uint256"
        }
      ],
      "stateMutability": "view",
      "type": "function"
    },
    {
      "inputs": [],
      "name": "owner",
      "outputs": [
        {
          "internalType": "address",
          "name": "",
          "type": "address"
        }
      ],
      "stateMutability": "view",
      "type": "function"
    },
    {
      "inputs": [],
      "name": "renounceOwnership",
      "outputs": [],
      "stateMutability": "nonpayable",
      "type": "function"
    },
    {
      "inputs": [
        {
          "internalType": "address",
          "name": "newOwner",
          "type": "address"
        }
      ],
      "name": "transferOwnership",
      "outputs": [],
      "stateMutability": "nonpayable",
      "type": "function"
    },
    {
      "inputs": [
        {
          "internalType": "address",
          "name": "",
          "type": "address"
        },
        {
          "internalType": "uint256",
          "name": "",
          "type": "uint256"
        }
      ],
      "name": "userOrders",
      "outputs": [
        {
          "internalType": "uint256",
          "name": "",
          "type": "uint256"
        }
      ],
      "stateMutability": "view",
      "type": "function"
    }
  ],
  "bytecode": "0x608060405234801561001057600080fd5b506001600055338061003c57604051631e4fbdf760e01b81526000600482015260240160405180910390fd5b6100458161004b565b5061009d565b600180546001600160a01b038381166001600160a01b0319831681179093556040519116919082907f8be0079c531659141344cd1fd0a4f28419497f9722a3daafe3b4186f6b6457e090600090a35050565b61103a806100ac6000396000f3fe608060405234801561001057600080fd5b50600436106100cf5760003560e01c80638da5cb5b1161008c578063d09ef24111610066578063d09ef24114610200578063eb5945e414610220578063f2fde38b14610233578063fe8799181461024657600080fd5b80638da5cb5b14610158578063a85c38ef14610173578063b6adaaff146101ed57600080fd5b8063514fcac7146100d457806363c69f08146100e9578063715018a6146101125780637bea0d1c1461011a578063815395fc1461012f578063856652e914610145575b600080fd5b6100e76100e2366004610d32565b610259565b005b6100fc6100f7366004610d67565b6103e8565b6040516101099190610d89565b60405180910390f35b6100e7610454565b610122610468565b6040516101099190610e69565b610137610555565b604051908152602001610109565b610137610153366004610eac565b6105b5565b6001546040516001600160a01b039091168152602001610109565b6101d9610181366004610d32565b60046020819052600091825260409091208054600182015460028301546003840154948401546005850154600686015460079096015494966001600160a01b0394851696938516959416939192909160ff9091169088565b604051610109989796959493929190610ed6565b6100e76101fb366004610d32565b6105e6565b61021361020e366004610d32565b61070b565b6040516101099190610f2b565b6101d961022e366004610d32565b610824565b6100e7610241366004610d67565b61088b565b610137610254366004610f40565b6108c6565b610261610c89565b60008111801561027357506003548111155b6102985760405162461bcd60e51b815260040161028f90610f82565b60405180910390fd5b600081815260046020526040902060018101546001600160a01b031633146102f45760405162461bcd60e51b815260206004820152600f60248201526e2737ba1037b93232b91036b0b5b2b960891b604482015260640161028f565b6000600682015460ff16600281111561030f5761030f610dcd565b1461034f5760405162461bcd60e51b815260206004820152601060248201526f4f72646572206e6f742061637469766560801b604482015260640161028f565b60068101805460ff191660029081179091558061036d600185610fc2565b8154811061037d5761037d610fd5565b60009182526020909120600660089092020101805460ff191660018360028111156103aa576103aa610dcd565b021790555060405182907f61b9399f2f0f32ca39ce8d7be32caed5ec22fe07a6daba3a467ed479ec60658290600090a2506103e56001600055565b50565b6001600160a01b03811660009081526005602090815260409182902080548351818402810184019094528084526060939283018282801561044857602002820191906000526020600020905b815481526020019060010190808311610434575b50505050509050919050565b61045c610cb3565b6104666000610ce0565b565b60606002805480602002602001604051908101604052809291908181526020016000905b8282101561054c5760008481526020908190206040805161010081018252600886029092018054835260018101546001600160a01b03908116948401949094526002808201548516928401929092526003810154909316606083015260048301546080830152600583015460a0830152600683015491929160c084019160ff9091169081111561051e5761051e610dcd565b600281111561052f5761052f610dcd565b81526020016007820154815250508152602001906001019061048c565b50505050905090565b60008060015b60035481116105af5760008181526004602052604081206006015460ff16600281111561058a5761058a610dcd565b0361059d578161059981610feb565b9250505b806105a781610feb565b91505061055b565b50919050565b600560205281600052604060002081815481106105d157600080fd5b90600052602060002001600091509150505481565b6000811180156105f857506003548111155b6106145760405162461bcd60e51b815260040161028f90610f82565b600081815260046020526040812090600682015460ff16600281111561063c5761063c610dcd565b1461067c5760405162461bcd60e51b815260206004820152601060248201526f4f72646572206e6f742061637469766560801b604482015260640161028f565b60068101805460ff19166001908117909155600261069a8285610fc2565b815481106106aa576106aa610fd5565b60009182526020909120600660089092020101805460ff191660018360028111156106d7576106d7610dcd565b021790555060405182907f02a7d4d9472af7118644884b9a0ee443540c0027e938dd0aa35be8ecbe946c0a90600090a25050565b6040805161010081018252600080825260208201819052918101829052606081018290526080810182905260a0810182905260c0810182905260e081019190915260008211801561075e57506003548211155b61077a5760405162461bcd60e51b815260040161028f90610f82565b6000828152600460208181526040928390208351610100810185528154815260018201546001600160a01b039081169382019390935260028083015484169582019590955260038201549092166060830152918201546080820152600582015460a08201526006820154909260c084019160ff16908111156107fe576107fe610dcd565b600281111561080f5761080f610dcd565b81526020016007820154815250509050919050565b6002818154811061083457600080fd5b6000918252602090912060089091020180546001820154600283015460038401546004850154600586015460068701546007909701549597506001600160a01b0394851696938516959490921693909260ff169088565b610893610cb3565b6001600160a01b0381166108bd57604051631e4fbdf760e01b81526000600482015260240161028f565b6103e581610ce0565b60006108d0610c89565b600083116109165760405162461bcd60e51b8152602060048201526013602482015272125b9d985b1a59081cd95b1b08185b5bdd5b9d606a1b604482015260640161028f565b6000821161095b5760405162461bcd60e51b8152602060048201526012602482015271125b9d985b1a5908189d5e48185b5bdd5b9d60721b604482015260640161028f565b6003805490600061096b83610feb565b90915550506003805460408051610100810182528281523360208083019182526001600160a01b038b81168486019081528b821660608601908152608086018c815260a087018c8152600060c089018181524260e08b01528b8252600497889052999020885181559651600180890180549288166001600160a01b031993841617905594516002808a0180549289169284169290921790915593519b880180549c9096169b169a909a1790935591519284019290925595516005830155925160068201805495969395869593949293919260ff1990911691908490811115610a5557610a55610dcd565b021790555060e09190910151600790910155336000908152600560209081526040808320805460018082018355918552838520018690556002805480830182559481905285517f405787fa12a823e0f2b7631cc41b3ba8828b3321ca811111fa75cd3aa3bb5ace6008909602958601908155938601517f405787fa12a823e0f2b7631cc41b3ba8828b3321ca811111fa75cd3aa3bb5acf860180546001600160a01b03199081166001600160a01b0393841617909155938701517f405787fa12a823e0f2b7631cc41b3ba8828b3321ca811111fa75cd3aa3bb5ad087018054861691831691909117905560608701517f405787fa12a823e0f2b7631cc41b3ba8828b3321ca811111fa75cd3aa3bb5ad18701805490951691161790925560808501517f405787fa12a823e0f2b7631cc41b3ba8828b3321ca811111fa75cd3aa3bb5ad285015560a08501517f405787fa12a823e0f2b7631cc41b3ba8828b3321ca811111fa75cd3aa3bb5ad385015560c08501517f405787fa12a823e0f2b7631cc41b3ba8828b3321ca811111fa75cd3aa3bb5ad49094018054869593919260ff19909116918490811115610c0c57610c0c610dcd565b021790555060e09190910151600790910155604080516001600160a01b0389811682528816602082015290810186905260608101859052339083907fa4be1e061958d160de04db54668a64922c36d2765b16644ae91acf127708970e9060800160405180910390a3509050610c816001600055565b949350505050565b600260005403610cac57604051633ee5aeb560e01b815260040160405180910390fd5b6002600055565b6001546001600160a01b031633146104665760405163118cdaa760e01b815233600482015260240161028f565b600180546001600160a01b038381166001600160a01b0319831681179093556040519116919082907f8be0079c531659141344cd1fd0a4f28419497f9722a3daafe3b4186f6b6457e090600090a35050565b600060208284031215610d4457600080fd5b5035919050565b80356001600160a01b0381168114610d6257600080fd5b919050565b600060208284031215610d7957600080fd5b610d8282610d4b565b9392505050565b6020808252825182820181905260009190848201906040850190845b81811015610dc157835183529284019291840191600101610da5565b50909695505050505050565b634e487b7160e01b600052602160045260246000fd5b60038110610e0157634e487b7160e01b600052602160045260246000fd5b9052565b80518252602081015160018060a01b03808216602085015280604084015116604085015280606084015116606085015250506080810151608083015260a081015160a083015260c0810151610e5d60c0840182610de3565b5060e090810151910152565b6020808252825182820181905260009190848201906040850190845b81811015610dc157610e98838551610e05565b928401926101009290920191600101610e85565b60008060408385031215610ebf57600080fd5b610ec883610d4b565b946020939093013593505050565b8881526001600160a01b0388811660208301528781166040830152861660608201526080810185905260a081018490526101008101610f1860c0830185610de3565b8260e08301529998505050505050505050565b6101008101610f3a8284610e05565b92915050565b60008060008060808587031215610f5657600080fd5b610f5f85610d4b565b9350610f6d60208601610d4b565b93969395505050506040820135916060013590565b60208082526010908201526f125b9d985b1a59081bdc99195c88125160821b604082015260600190565b634e487b7160e01b600052601160045260246000fd5b81810381811115610f3a57610f3a610fac565b634e487b7160e01b600052603260045260246000fd5b600060018201610ffd57610ffd610fac565b506001019056fea26469706673582212203b73262cae97204b6d349d994702756c366e601ee0de2cf0e67b573dabcc009764736f6c63430008140033",
  "linkReferences": {},
  "deployedLinkReferences": {}
}